S00B000054534C2E7372656326
S11300000C947E000C9497000C9420030C9497009D
S11300100C9497000C9497000C9497000C94970000
S11300200C9497000C9497000C9497000C949700F0
S11300300C9497000C9497000C9497000C949700E0
S11300400C9497000C9497000C9497000C949700D0
S11300500C9497000C9497000C9497000C949700C0
S11300600C9497000C9497000C9497000C949700B0
S11300700C9497000C9497000C9497000C949700A0
S11300800C9497000C9497000C9497000C94970090
S11300900C9497000C9497000C9497000C94040310
S11300A00C9497000C9497000C9497000C94970070
S11300B00C9497000C9497000C9497000C94970060
S11300C00C9497000C9497000C9497000C94970050
S11300D00C9497000C949700A602A202A602A00218
S11300E0A602A002A602A602A002A602A002A602DE
S11300F00C94A6020C94A0020C94A20211241FBE1C
S1130100CFEFCDBFDFE3DEBF00E00CBF10E2A0E025
S1130110B0E2E0EAF5E100E00BBF02C007900D9207
S1130120AE3BB107D9F70E9447070C94CE0A0C9452
S11301300000E62FE695E695E695F0E094E0899FC9
S1130140E00DF11D1124E05FF24F2081677081E022
S113015090E001C0880F6A95EAF7822B80830895A6
S1130160E62FE695E695E695F0E094E0899FE00DAC
S1130170F11D1124E05FF24F2081677081E090E06F
S113018001C0880F6A95EAF78095822380830895D9
S1130190EF92FF920F931F93CF93DF93E62FF0E03C
S11301A0E055FF4DE0802EE0829FC0011124EC0158
S11301B0C85FDF4D00E010E0F12CC701002E02C043
S11301C0959587950A94E2F7698180FF04C0888138
S11301D00E94990003C088810E94B0000F5F1F4FE6
S11301E022960730110549F7DF91CF911F910F91A6
S11301F0FF90EF900895EF92FF920F931F93CF9388
S1130200DF93E82FF0E0E055FF4DE0808EE0689F3B
S1130210E0011124C85FDF4D00E010E0F12CC701BC
S1130220002E02C0959587950A94E2F780FF04C0DA
S1130230698188810E9499000F5F1F4F22960730C1
S1130240110569F7DF91CF911F910F91FF90EF9006
S11302500895EF92FF920F931F93CF93DF939EE045
S1130260699FE0011124C85FDF4D00E010E0E82E33
S1130270F12CC701002E02C0959587950A94E2F7E8
S113028080FF04C0698188810E9499000F5F1F4F1D
S113029022960730110569F7DF91CF911F910F91D5
S11302A0FF90EF900895682F80E40C9429016BE08F
S11302B082E60E9429016AE083E60E94290165E042
S11302C087E40E94290164E082E40E94290163E03A
S11302D082E00E94290162E08FE20C9429016BE024
S11302E083E40E9429016AE087E00E94290169E011
S11302F083E60E94290168E083E40E94290165E005
S11303008FE40E94290164E082E40E94290163E0F1
S113031082E40E94290162E083E60E94290161E0EF
S113032082E40C942901CF93C82F6BE08FE40E94E0
S113033029016AE08FE40E94290169E08EE50E94A8
S1130340290168E082E40E94290167E083E60E94B3
S1130350290165E08FE40E94290164E082E40E949F
S1130360290163E082E40E94290162E083E60E949D
S1130370290161E082E40E94290160E08C2FCF9181
S11303800C94FB0069E087E30E94290168E083E69E
S11303900E94290167E086E00E94290166E087E463
S11303A00E94290165E087E30E94290164E08FE44B
S11303B00E94290163E082E40C9429016BE083E448
S11303C00E9429016AE082E00E94FB0069E080E06B
S11303D00E94FB0068E081E00E94FB0067E088E087
S11303E00E94FB0065E083E30E94290164E08FE33F
S11303F00E94290163E08DE60E94290162E086E7FC
S11304000C94290168E10C949900EDE1FDE08081F0
S1130410816080830895EDE1FDE080818E7F80839B
S11304200895EEE1FDE08081806180830895EEE12E
S1130430FDE080818F7E80830895ECE1FDE0808182
S1130440806180830895EEE1FDE080818160808396
S11304500895EF92FF920F931F93CF93DF93E62FAC
S1130460F0E0E050F04EE0802EE0829FC0011124C5
S1130470EC01C85FDF4D00E010E0F12CC701002E55
S113048002C0959587950A94E2F780FF04C06981BC
S113049088810E9499000F5F1F4F22960730110533
S11304A069F7DF91CF911F910F91FF90EF9008951D
S11304B0E0E0FDE08081826080830895E0E0FDE07B
S11304C080818D7F8083089581E080937200809382
S11304D0400220E82A95F1F700C097E09A95F1F7D9
S11304E000008093460285E080934002809146029A
S11304F080FFFCCF809150021092400293E09093D1
S1130500720024E68202C001112497FF02C08158C0
S11305109F4F880F892F881F990B089528E0AC01FD
S113052060E082E30C94880990E0FC013197EC30A0
S1130530F10560F48827E459FF4F8F4F0C940E0A9D
S11305408EE10895637021F08CE108958FE10895A0
S11305508DE10895E0E0FDE084E0808388EF81830D
S11305608FE3828380818668808317820895AAEC52
S1130570B1E022E02C93FC0184911C920895E0E701
S1130580F0E087E580838FE5838385830895E0E247
S1130590F6E087E0808B818B838B848B858B868BC5
S11305A0E0E4F6E0848B858B868BE0ECF6E0808BD0
S11305B0818B828B838B848B858B868B878BE0E608
S11305C0F7E0808B818B828B838B848B858B878BED
S11305D0089582E08093B200E0E4F6E088E1828B43
S11305E0838B0895E0E2F6E082E0828B81E08187EC
S11305F0EAE2F6E08081846080830895E0E2F6E038
S113060080E88183858308951895E0E4F6E088E125
S1130610878B83EF91E00197F1F700C0000081E040
S11306208187EAE4F6E08081806880830895EAE4C3
S1130630F6E080818F77808387E080935706089562
S11306401895E0E6F6E08081816080830895E0E615
S1130650F6E08081826080830895E0E6F6E085819B
S1130660816085830895E0E6F6E086818160868373
S11306700895E0E6F6E08581826085830895E0E6EA
S1130680F6E086818260868308950E9421030C949B
S113069027031F93CF93DF930E942D038FE097E2EC
S11306A00197F1F700C000000E9433030E94390350
S11306B0EFE0F7E23197F1F700C000000E943F033A
S11306C00E942D038FE097E20197F1F700C000002C
S11306D00E9433030E943903EFE0F7E23197F1F708
S11306E000C000000E943F03CEE114E60E942D03E7
S11306F08C2FE9EFF0E03197F1F700C00000815052
S1130700C1F70E943303D12FDC1B8D2F882341F0C6
S1130710E9EFF0E03197F1F700C000008150F6CF27
S11307200E9439038C2FE9EFF0E03197F1F700C014
S113073000008150C1F70E943F03DD2341F089EF9F
S113074090E00197F1F700C00000D150F6CFCA50F5
S113075069F6DF91CF911F910895CF93DF931F9294
S1130760CDB7DEB788E0898321E0AE014F5F5F4FEC
S11307706DE082E30E946A090F90DF91CF910895A2
S1130780982F92959F702AEF929F800D11240895BF
S1130790DF92EF92FF920F931F93CF93DF93EC01BD
S11307A088810E94C003F82E89810E94C003082F0B
S11307B08A810E94C003182F8C810E94C003D82E06
S11307C08D810E94C003E82E8E810E94C003CAE07E
S11307D06C2F0E94E709D82F692F86E00E94C80079
S11307E06D2F87E00E94C8008D2D6C2F0E94E709B1
S11307F0D82F692F88E00E94C8006D2F89E00E94DD
S1130800C8008E2D6C2F0E94E709D82F692F8AE02B
S11308100E94C8006D2F8BE00E94C8008F2D6C2FA2
S11308200E94E709D82F692F80E00E94C8006D2F2D
S113083081E00E94C800802F6C2F0E94E709D82F06
S1130840692F82E00E94C8006D2F83E00E94C800D7
S1130850812F6C2F0E94E709C82F692F84E00E9422
S1130860C8006C2F85E0DF91CF911F910F91FF900D
S1130870EF90DF900C94C800282F6AE00E94E709EB
S1130880982F990F890F880F820F089524E04AEB5F
S113089050E268E082E30C946A09CF93DF931F92DD
S11308A0CDB7DEB7198221E0AE014F5F5F4F68E13B
S11308B082E30E946A090F90DF91CF910895CF934C
S11308C0DF931F92CDB7DEB721E0AE014F5F5F4FDC
S11308D06EE082E30E948809898182700F90DF9123
S11308E0CF910895CF93DF931F92CDB7DEB71982CE
S11308F021E0AE014F5F5F4F6EE082E30E946A0920
S11309000F90DF91CF910895FF920F931F93CF9390
S1130910DF93EC018E810E94C003F82E83E68F15CD
S113092048F18D810E94C003082F8FEF800F8C3017
S113093008F58C810E94C003182F8823D9F06F2DED
S1130940802F0E9494028117A8F08F810E94C00317
S1130950853180F488810E94C0038C3358F48981E6
S11309600E94C0038C3330F48A810E94C00391E05A
S1130970883108F090E0892FDF91CF911F910F917A
S1130980FF900895AF92BF92CF92DF92EF92FF92C1
S11309900F931F93CF93DF93EC017B01FB018081C5
S11309A00E94C0038883F70181810E94C003898368
S11309B0F70182810E94C0038A83F70184810E9427
S11309C0C003182FF70185810E94C003A82EF701E8
S11309D086810E94C003B82EF70187810E94C0035C
S11309E08695282F30E0ADEABEE80E94160A6B0116
S11309F07C0180E0B81691F0982F937039F4FEE6EC
S1130A00CF0EF1E0DF1EE11CF11C06C09DE6C90E0D
S1130A1091E0D91EE11CF11C8F5FECCF01E00A15B7
S1130A2050F46B2D802F0E949402C80ED11CE11C3F
S1130A30F11C0F5FF4CF812F90E0A0E0B0E00197AC
S1130A40A109B109C80ED91EEA1EFB1ECB82DC82A5
S1130A50ED82FE82DF91CF911F910F91FF90EF9075
S1130A60DF90CF90BF90AF900895CF93DF931F9204
S1130A70CDB7DEB781E4898321E0AE014F5F5F4FDC
S1130A806FE082E30E946A090F90DF91CF9108958D
S1130A900F931F93CF93DF93C0E08091000D86687E
S1130AA08093000DD0E00C2F10E00A5F1F4F0770F9
S1130AB011276C2F8D2F0E942902602F81E08D0F4A
S1130AC00E942902DE5FDC30A1F78895CF5FC83031
S1130AD009F4C0E08091480687FDDFCFDF91CF9114
S1130AE01F910F91089580E00E94020283E00C940C
S1130AF002020E94580288950E945E028895F9CFEE
S1130B000E94C8030E9479050E946F010E94790522
S1130B100E9493010E947905E0E0FDE080818668EF
S1130B2080830E9473050E94790569E086E00E9433
S1130B30C80069E087E00E94C80069E088E00E947C
S1130B40C80069E089E00E94C80069E08AE00E9468
S1130B50C80069E08BE00E94C80069E080E00E9460
S1130B60C80065E081E00E94C80069E082E00E945C
S1130B70C80065E083E00E94C80063E084E00E944E
S1130B80C80062E085E00E94C8000E947905CF9306
S1130B90C0E08C2F0E945301CF5FCC30D1F7CF91AE
S1130BA00895CF93C6E060E08C2F0E94C800CF5F09
S1130BB0CC30C9F760E080E00E94C80060E081E0CA
S1130BC00E94C80060E082E00E94C80060E083E008
S1130BD00E94C80060E084E00E94C80060E085E0F4
S1130BE0CF910C94C80088ED84BF81E08093790094
S1130BF04F925F926F927F928F929F92AF92BF9229
S1130C00CF92DF92EF92FF920F931F93CF93DF93D4
S1130C106B01E82ED42F122F802F6AE00E94E7097F
S1130C20C82F8AE0C89F001911242AE0622E712C73
S1130C30812C3AE0B32E46EFA42E90E4C91692E438
S1130C40D9069FE0E90608F090C0EC2D7D2D8E2D8D
S1130C5096E0F92E6E2F482D93010E94F309962EEB
S1130C60472E582E6E2F9AE0999E601911248F2DCD
S1130C700E94C800F394E92D742D852D9CE0F9128F
S1130C80E9CFD83108F047C08D2F6B2D0E94E709BA
S1130C90F82E6D2F8A9D600D112484E00E94C800F7
S1130CA06F2D85E00E94C8001C3390F5812F6B2DB9
S1130CB00E94E709F82E612F8A9D600D112482E0BD
S1130CC00E94C8006F2D83E00E94C800C63080F4E3
S1130CD06C2F81E00E94C8000A3038F4602F80E055
S1130CE00E94C80088950F5FF7CFCF5F00E0EECF7A
S1130CF01F5F929B07C082B383FB992790F981E021
S1130D00892701C081E0C0E0882371F20E94F305C5
S1130D10DF5F10E0B6CF8FEFC81AD80AE80AAE2D0D
S1130D20C60187709927AA270197A10531F40E946B
S1130D306402883110F40E948C05AE2DC6018F77B1
S1130D409927AA27892B8A2B71F48091000D866834
S1130D508093000D0E94DE0188958091000D8668C5
S1130D608093000D0F5FD0E068CFDF91CF911F918A
S1130D700F91FF90EF90DF90CF90BF90AF909F9036
S1130D808F907F906F905F904F900895CF93DF93F3
S1130D90CDB7DEB72897CDBFDEBF0E94050248E07D
S1130DA050E060E070E0CE0101960E94810ACE011D
S1130DB001960E94C8032896CDBFDEBFDF91CF9174
S1130DC00895CF93DF93CDB7DEB72897CDBFDEBFAD
S1130DD00E945F0481110E941D0284E190E00E9440
S1130DE08D0A81110E9423020E941102CE010196F4
S1130DF00E948E02CE0101960E94C8032896CDBFA0
S1130E00DEBFDF91CF910895CF930E94C2010E946B
S1130E1064026AE00E94E709C92F6BE00E94FB00AC
S1130E206AE08C2F0E94FB0062E081E00E94FB00DC
S1130E3061E080E00E94FB0060E081E0CF910C94CF
S1130E40FB00CF93DF93CDB7DEB72897CDBFDEBFCE
S1130E5082E190E00E948D0A882389F048E050E006
S1130E606AE070E0CE0101960E94810A0E940502A8
S1130E700E941102CE0101960E94C80302C00E9482
S1130E8057012896CDBFDEBFDF91CF910895CF9350
S1130E90DF93CDB7DEB76E97CDBFDEBFFF24F394EB
S1130EA0F09243000E94C7020E9417030E94640943
S1130EB00E94E90280E290E00E94B70280934C0213
S1130EC081E290E00E94B70280934D0284E1809316
S1130ED0410282E0809342021092600280E180939A
S1130EE0610283E0809372000E94BF0218ED14BF78
S1130EF0F09296000E94AA0214BF8091A200816021
S1130F008093A20080914800817F8660809348008E
S1130F10809148008160809348000E9445030E94AC
S1130F20FE020E94F20278940E94C7052FE78AE12C
S1130F3096E0215080409040E1F700C000000E94FC
S1130F40AD030E944D048091000D86688093000DCE
S1130F50929914C00E94C60688958091000D8668F7
S1130F608093000D0E94E10688958091000D8668AB
S1130F708093000D0E9404078895E5CF939909C0DA
S1130F800E94210788958091000D86688093000D4A
S1130F90F5CF0E946402883110F40E948C0584E12C
S1130FA090E00E948D0A823010F081E008C088E051
S1130FB090E00E948D0A182F823018F082E00E947F
S1130FC0880582E190E00E948D0A823010F083E06F
S1130FD0F6CF111127C0882311F084E0F0CF0E94CE
S1130FE0720448E050E060E070E0CE0101960E9497
S1130FF0810ACE0101960E948404811102C087E017
S1131000DECF0E94350528E0AE014F5F5F4F60E000
S113101082E30E946A090E94460461E088E090E04D
S11310200E949D0A0E945F04882329F061E084E104
S113103090E00E949D0A84E190E00E948D0A88233A
S1131040A1F082E190E00E948D0A882361F048E0DB
S113105050E06AE070E0CE0101960E94810ACE0160
S113106001960E9480050E94840582E190E00E941E
S11310708D0A882391F048E050E06AE070E0CE01E8
S113108009960E94810ACE0109960E948404811166
S113109002C088E094CF889549C00E94050311E0FE
S11310A08091480687FD17C0F02EF126011104C077
S11310B00E9405020E941102CE0109960E948E022E
S11310C0CE0109960E94C80388950E940B020E94D3
S11310D017020F2DE5CF8FE493EC0197F1F700C0D1
S11310E000008091480687FF03C00E944805F9CF9D
S11310F08091000D86688093000D0E943505CE0115
S113110001960E948E0248E050E06AE070E0CE0151
S113111001960E94250A61E082E190E00E949D0A06
S11311200E9417030E94D1050E9449038895CE01AD
S113113001960E948E028F810E94C003182F888519
S11311400E94C003982F9170123318F0992319F05C
S11311500EC0992361F08F5F0E943C04888728E0C9
S1131160AE014F5F5F4F60E082E30E946A09BE01F7
S11311706F5F7F4FCE0148960E94C204BE01675F35
S11311807F4FCE0141960E94C204E989888D8E1753
S113119020F4845C888F41E001C040E0088DFA8926
S11311A0898D242F30E02F0F311D682F70E06217D6
S11311B0730724F4845C898F31E001C030E0298D09
S11311C05B898A8D632F70E0650F711DA82FB0E0D5
S11311D0A617B70724F4885E8A8F81E001C080E0F7
S11311E0CC88DD88EE88FF88C80ED11CE11CF11C78
S11311F08B8D9C8DAD8DBE8D8C159D05AE05BF056B
S113120080F00E1B2F1B241B4A8D451B431BBC0166
S1131210CD016C197D098E099F090E94F8050E9471
S1131220950585E0CCCE28E030E090E861E052E01E
S1131230482F492319F06093420602C06093410687
S113124000C000C0000042E05093420600C000C04D
S113125000005093410696952150310949F781E0E9
S11312608093420600C000C000004093420600C0C4
S113127000C00000809148064093410600C000C0B1
S113128000008170089500C000C00000E0E4F6E0B2
S113129091E0918300C000C0000092E09183880F28
S11312A0862B0C941309E0E4F6E081E0818300C00E
S11312B000C0000092E0928300C000C0000082835E
S11312C000C000C000000895E0E4F6E088E1808BEF
S11312D0818B08950F931F93CF93DF93D62F8A01A9
S11312E0C22F60E00E9443098D2F0E941309CC2372
S11312F039F0F80181918F010E941309C150F7CF91
S11313000E94530980E0DF91CF911F910F910895BE
S1131310FF920F931F93CF93DF93D82FF62E8A015A
S1131320C22F60E00E9443098F2D0E94130982E0BE
S11313308093420600C000C0000061E08D2F0E942F
S1131340430942E052E061E0CC2381F128E030E03F
S113135090E880E04093420600C000C00000709115
S1131360480670FD892B4093410600C000C0000070
S113137096952150310971F7F80181938F01C1507D
S1131380A9F06093410600C000C0000050934206DB
S113139000C000C000005093410600C000C000001F
S11313A06093420600C000C00000CECF82E080936C
S11313B0420600C000C00000809341060E94530909
S11313C080E0DF91CF911F910F91FF900895991BB9
S11313D079E004C0991F961708F0961B881F7A9528
S11313E0C9F78095089559E1AA27991B0AC0111CD1
S11313F0AA1F991F1216A307940718F0121AA30B19
S1131400940B661F771F881F5A9589F7609570950E
S11314108095212D3A2F492F11240895EE0FFF1F97
S1131420881F8BBF0790F691E02D1994A29FB001FD
S1131430B39FC001A39F700D811D1124911DB29F04
S1131440700D811D1124911D0895CF92DF92EF92AA
S1131450FF920F931F93CF93DF932091CC012860C9
S11314602093CC01C0E20FEF17E0D5E3FF24F394FF
S113147041155105C1F1262F2F713C2F321B232F0B
S113148030E04217530708F49A01D22EF801E21B08
S1131490F30BE617F70710F40E94C00AE091CF019E
S11314A0E7FDFCCFC82EDB01B05FFC01E090CF016B
S11314B0E7FCFCCFE190ED92EE2EEC18ED14B0F3C6
S11314C01092C2017093C1016093C001D093CA010C
S11314D0E8EDE4BFF092CB01820F931F620F731FFC
S11314E0421B530BC5CF8091CC01877F8093CC01E5
S11314F0DF91CF911F910F91FF90EF90DF90CF90EC
S11315000895E0ECF1E0A785A7FDFDCFA485A860D0
S1131510A4876050704F0C94C50A03D0808199272A
S11315200895E0ECF1E0378537FDFDCF3485386070
S11315303487FC01E050F04F0895262FE0ECF1E0F1
S1131540378537FDFDCF3485377F3487378531FFC5
S113155009C036E3328738ED34BF31E0338737854D
S113156037FDFDCF33E33287808391831282248356
S113157025E3228728ED31E024BF338701960895BF
S113158081E090E0F8940C94CE0AFB01DC0102C0E7
S113159001900D9241505040D8F70895F894FFCF30
S11315A00102401008044020001601160216031719
S11315B00217001701170014011402140315021571
S11315C00015011500120112021203130213001375
S11315D00113001001100210031102110011011176
S11315E0000E010E020E030F020F000F010F000C7C
S11315F0010C020C030D020D000D010D000A010A7D
S1131600020A030B020B000B010B0008010802087D
S1131610030902090009010900060106020603077D
S11316200207000701070004010402040305020580
S11316300005010500020102020203030203000384
S11316400103000001000200030102010001010185
S11116503F305B79746D6F387F7D54734C337B
S9030000FC
