:100000000C947E000C9497000C946D9C0C949700BB
:100010000C9497000C9497000C9497000C94970004
:100020000C9497000C9497000C9497000C949700F4
:100030000C9497000C9497000C9497000C949700E4
:100040000C9497000C9497000C9497000C949700D4
:100050000C9497000C9497000C9497000C949700C4
:100060000C9497000C9497000C9497000C949700B4
:100070000C9497000C9497000C9497000C949700A4
:100080000C9497000C9497000C9497000C94970094
:100090000C9497000C9497000C9497000C946E9C11
:1000A0000C9497000C9497000C9497000C94970074
:1000B0000C9497000C9497000C9497000C94970064
:1000C0000C9497000C9497000C9497000C94970054
:1000D0000C9497000C949700009CF89B009CCC9B80
:1000E000009CCC9B009C009CCC9B009CCC9B009CCF
:1000F0000C94CC9B0C94009C0C94F89B11241FBE78
:10010000CFEFCDBFDFE3DEBF00E00CBF10E2A0E029
:10011000B0E2ECE7F4E501E00BBF02C007900D92FE
:10012000A63BB107D9F70E94FFA00C943CAA0C94FF
:10013000589D3AEA4AE25FEF6EEE7AEE8EEF9FEE5E
:100140001F931AE80F922FEB022E1F922EEA122E07
:100150002F9228EA222E3F922AEF322E4F922EEB38
:10016000422E5F922FEA522E6F922BEF622E7F92D9
:100170002BEE722E8F922AE0822E9F9228E2922EF0
:10018000AF922AEBA22EBF922BEAB22ECF9222EA96
:10019000C22EDF922BEBD22EEF922EEDE22EFF92AB
:1001A0002FEDF22E0F9328E8022FBDE0A6E1DF939A
:1001B000CF93DDE0C2E1FDE0EAE115D0CF91DF9120
:1001C0000F91FF90EF90DF90CF90BF90AF909F90F6
:1001D0008F907F906F905F904F903F902F901F90E7
:1001E0000F901F910895588325E52C9350833093E9
:1001F0001E0D8895D29BFDCF8895D299FDCF0882A0
:1002000025E12C93008240931E0D8895D29BFDCF53
:100210008895D299FDCF2FE7288325ED2C93309335
:100220001E0D8895D29BFDCF8895D299FDCF58831E
:1002300025E92C938895D29BFDCF8895D299FDCF47
:100240000882508340931E0D8895D29BFDCF8895E0
:10025000D299FDCF58832FE7208330931E0D8895C8
:10026000D29BFDCF8895D299FDCF25ED2C93889513
:10027000D29BFDCF8895D299FDCF088225E12C93A2
:1002800000828895D29BFDCF8895D299FDCF588367
:1002900025ED2C9350838895D29BFDCF8895D299DC
:1002A000FDCF25E92C938895D29BFDCF8895D299D7
:1002B000FDCF988325E42C93908310931E0D889591
:1002C000D29BFDCF8895D299FDCF588225E02C9303
:1002D000508280921E0D8895D29BFDCF8895D29931
:1002E000FDCF2FE6288325EC2C9310931E0D8895C7
:1002F000D29BFDCF8895D299FDCF988325E82C938A
:100300008895D29BFDCF8895D299FDCF5882908356
:1003100080921E0D8895D29BFDCF8895D299FDCFF6
:1003200098832FE6208310931E0D8895D29BFDCFD6
:100330008895D299FDCF25EC2C938895D29BFDCF43
:100340008895D299FDCF588225E02C9350828895CC
:10035000D29BFDCF8895D299FDCF988325EC2C9325
:1003600090838895D29BFDCF8895D299FDCF25E8C3
:100370002C938895D29BFDCF8895D299FDCFF8829A
:1003800025E72C9330931E0D8895D29BFDCF889541
:10039000D299FDCF2FE9288325E32C9350824093F7
:1003A0001E0D8895D29BFDCF8895D299FDCF2FE564
:1003B000288325EF2C9330931E0D8895D29BFDCF7B
:1003C0008895D299FDCFF88225EB2C938895D29B06
:1003D000FDCF8895D299FDCF2FE928839083409354
:1003E0001E0D8895D29BFDCF8895D299FDCFF882BE
:1003F0002FE6208330931E0D8895D29BFDCF8895E4
:10040000D299FDCF25EF2C938895D29BFDCF88956F
:10041000D299FDCF2FE9288325E32C93508288952C
:10042000D29BFDCF8895D299FDCFF88225EF2C93F2
:1004300090838895D29BFDCF8895D299FDCF25EBEF
:100440002C938895D29BFDCF8895D299FDCF588368
:1004500025E62C938895D29BFDCF8895D299FDCF28
:10046000088225E22C93508240931E0D8895D29BE2
:10047000FDCF8895D299FDCF2FE7288325EE2C93C9
:1004800030931E0D8895D29BFDCF8895D299FDCFD4
:10049000588325EA2C938895D29BFDCF8895D299D5
:1004A000FDCF0882908340931E0D8895D29BFDCF8F
:1004B0008895D299FDCF58832FE6208330931E0D67
:1004C0008895D29BFDCF8895D299FDCF25EE2C93B0
:1004D0008895D29BFDCF8895D299FDCF088225E2E1
:1004E0002C9350828895D29BFDCF8895D299FDCFD1
:1004F000588325EE2C9390838895D29BFDCF8895C9
:10050000D299FDCF25EA2C938895D29BFDCF889573
:10051000D299FDCF988325E62C93508310931E0D1E
:100520008895D29BFDCF8895D299FDCF588225E240
:100530002C93008280921E0D8895D29BFDCF8895CA
:10054000D299FDCF2FE6288325EE2C9310931E0D14
:100550008895D29BFDCF8895D299FDCF988325EAC7
:100560002C938895D29BFDCF8895D299FDCF588248
:10057000508380921E0D8895D29BFDCF8895D2998D
:10058000FDCF98832FE7208310931E0D8895D29B73
:10059000FDCF8895D299FDCF25EE2C938895D29BDF
:1005A000FDCF8895D299FDCF588225E22C93008209
:1005B0008895D29BFDCF8895D299FDCF988325EE63
:1005C0002C9350838895D29BFDCF8895D299FDCFEF
:1005D00025EA2C938895D29BFDCF8895D299FDCFA3
:1005E000588325E62C93F08230931E0D8895D29B7C
:1005F000FDCF8895D299FDCF088225E22C932FE973
:10060000208340931E0D8895D29BFDCF8895D2996B
:10061000FDCF2FE7288325EE2C9330931E0D889570
:10062000D29BFDCF8895D299FDCF588325EA2C9394
:100630008895D29BFDCF8895D299FDCF0882F08214
:1006400040931E0D8895D29BFDCF8895D299FDCF02
:1006500058832FE5208330931E0D8895D29BFDCFC4
:100660008895D299FDCF25EE2C938895D29BFDCF0E
:100670008895D299FDCF088225E22C932FE920831B
:100680008895D29BFDCF8895D299FDCF588325EED2
:100690002C93F0828895D29BFDCF8895D299FDCF7F
:1006A00025EA2C938895D29BFDCF8895D299FDCFD2
:1006B000688221E52C936082C0921E0D8895D29BA2
:1006C000FDCF8895D299FDCFD88221E12C93D0829D
:1006D00022E220931E0D8895D29BFDCF8895D2995A
:1006E000FDCF2BE7288321ED2C93C0921E0D88951A
:1006F000D29BFDCF8895D299FDCF688221E92C93BA
:100700008895D29BFDCF8895D299FDCFD882608203
:1007100022E220931E0D8895D29BFDCF8895D29919
:10072000FDCF68822BE72083C0921E0D8895D29B57
:10073000FDCF8895D299FDCF21ED2C938895D29B42
:10074000FDCF8895D299FDCFD88221E12C93D0821C
:100750008895D29BFDCF8895D299FDCF688221EDF7
:100760002C9360828895D29BFDCF8895D299FDCF3E
:1007700021E92C938895D29BFDCF8895D299FDCF06
:10078000788221E42C93708222E820931E0D8895B4
:10079000D29BFDCF8895D299FDCFB88221E02C93D2
:1007A000B08222E020931E0D8895D29BFDCF8895C4
:1007B000D299FDCF2BE6288321EC2C9322E82093BD
:1007C0001E0D8895D29BFDCF8895D299FDCF78825A
:1007D00021E82C938895D29BFDCF8895D299FDCFA7
:1007E000B882708222E020931E0D8895D29BFDCFA7
:1007F0008895D299FDCF78822BE6208322E820933A
:100800001E0D8895D29BFDCF8895D299FDCF21EC06
:100810002C938895D29BFDCF8895D299FDCFB88235
:1008200021E02C93B0828895D29BFDCF8895D299F8
:10083000FDCF788221EC2C9370828895D29BFDCFDE
:100840008895D299FDCF21E82C938895D29BFDCF36
:100850008895D299FDCF2BED288321E72C93C09268
:100860001E0D8895D29BFDCF8895D299FDCF2BE99F
:10087000288321E32C93B08222E220931E0D8895D9
:10088000D29BFDCF8895D299FDCF2BE5288321EF10
:100890002C93C0921E0D8895D29BFDCF8895D2993E
:1008A000FDCF2BED288321EB2C938895D29BFDCF98
:1008B0008895D299FDCF2BE92883708222E220937C
:1008C0001E0D8895D29BFDCF8895D299FDCF2BED3B
:1008D00028832BE62083C0921E0D8895D29BFDCFE6
:1008E0008895D299FDCF21EF2C938895D29BFDCF8F
:1008F0008895D299FDCF2BE9288321E32C93B082F0
:100900008895D29BFDCF8895D299FDCF2BED28837A
:1009100021EF2C9370828895D29BFDCF8895D29938
:10092000FDCF21EB2C938895D29BFDCF8895D29952
:10093000FDCF688221E62C938895D29BFDCF8895C8
:10094000D299FDCFD88221E22C93B08222E220936B
:100950001E0D8895D29BFDCF8895D299FDCF2BE7B0
:10096000288321EE2C93C0921E0D8895D29BFDCF3B
:100970008895D299FDCF688221EA2C938895D29BE5
:10098000FDCF8895D299FDCFD882708222E2209344
:100990001E0D8895D29BFDCF8895D299FDCF688298
:1009A0002BE62083C0921E0D8895D29BFDCF8895A3
:1009B000D299FDCF21EE2C938895D29BFDCF8895BF
:1009C000D299FDCFD88221E22C93B0828895D29B18
:1009D000FDCF8895D299FDCF688221EE2C9370824D
:1009E0008895D29BFDCF8895D299FDCF21EA2C9393
:1009F0008895D29BFDCF8895D299FDCF788221E64C
:100A00002C93608222E820931E0D8895D29BFDCF07
:100A10008895D299FDCFB88221E22C93D08222E032
:100A200020931E0D8895D29BFDCF8895D299FDCF3E
:100A30002BE6288321EE2C9322E820931E0D889527
:100A4000D29BFDCF8895D299FDCF788221EA2C9355
:100A50008895D29BFDCF8895D299FDCFB8826082D0
:100A600022E020931E0D8895D29BFDCF8895D299C8
:100A7000FDCF78822BE7208322E820931E0D8895F6
:100A8000D29BFDCF8895D299FDCF21EE2C938895EE
:100A9000D29BFDCF8895D299FDCFB88221E22C93CD
:100AA000D0828895D29BFDCF8895D299FDCF788250
:100AB00021EE2C9360828895D29BFDCF8895D299A8
:100AC000FDCF21EA2C938895D29BFDCF8895D299B2
:100AD000FDCF688221E62C932BED2083C0921E0D62
:100AE0008895D29BFDCF8895D299FDCFD88221E2FF
:100AF0002C932BE9208322E220931E0D8895D29B14
:100B0000FDCF8895D299FDCF2BE7288321EE2C933A
:100B1000C0921E0D8895D29BFDCF8895D299FDCFAE
:100B2000688221EA2C938895D29BFDCF8895D29933
:100B3000FDCFD8822BED208322E220931E0D8895D5
:100B4000D29BFDCF8895D299FDCF68822BE520837B
:100B5000C0921E0D8895D29BFDCF8895D299FDCF6E
:100B600021EE2C938895D29BFDCF8895D299FDCF0D
:100B7000D88221E22C932BE920838895D29BFDCF4C
:100B80008895D299FDCF688221EE2C932BED20839E
:100B90008895D29BFDCF8895D299FDCF21EA2C93E1
:100BA0008895D29BFDCF8895D299FDCF27EF2883DA
:100BB0002DE52C93608230931E0D8895D29BFDCF3E
:100BC0008895D299FDCF27EB28832DE12C93D082F5
:100BD00040931E0D8895D29BFDCF8895D299FDCF6D
:100BE00027E728832DED2C9330931E0D8895D29BFB
:100BF000FDCF8895D299FDCF27EF28832DE92C933F
:100C00008895D29BFDCF8895D299FDCF27EB28837D
:100C1000608240931E0D8895D29BFDCF8895D29916
:100C2000FDCF27EF28832BE7208330931E0D889577
:100C3000D29BFDCF8895D299FDCF2DED2C93889531
:100C4000D29BFDCF8895D299FDCF27EB28832DE14C
:100C50002C93D0828895D29BFDCF8895D299FDCFD9
:100C600027EF28832DED2C9360828895D29BFDCFB2
:100C70008895D299FDCF2DE92C938895D29BFDCFF5
:100C80008895D299FDCF27EE28832DE42C9370828E
:100C900010931E0D8895D29BFDCF8895D299FDCFDC
:100CA00027EA28832DE02C93B08280921E0D889530
:100CB000D29BFDCF8895D299FDCF27E628832DECD6
:100CC0002C9310931E0D8895D29BFDCF8895D299B9
:100CD000FDCF27EE28832DE82C938895D29BFDCF5E
:100CE0008895D299FDCF27EA2883708280921E0DC5
:100CF0008895D29BFDCF8895D299FDCF27EE28838A
:100D00002BE6208310931E0D8895D29BFDCF8895EE
:100D1000D299FDCF2DEC2C938895D29BFDCF889551
:100D2000D299FDCF27EA28832DE02C93B0828895B5
:100D3000D29BFDCF8895D299FDCF27EE28832DEC4D
:100D40002C9370828895D29BFDCF8895D299FDCF48
:100D50002DE82C938895D29BFDCF8895D299FDCF15
:100D600027ED28832DE72C9330931E0D8895D29B79
:100D7000FDCF8895D299FDCF27E928832DE32C93C9
:100D8000B08240931E0D8895D29BFDCF8895D29955
:100D9000FDCF27E528832DEF2C9330931E0D8895EA
:100DA000D29BFDCF8895D299FDCF27ED28832DEBDF
:100DB0002C938895D29BFDCF8895D299FDCF27E9BA
:100DC0002883708240931E0D8895D29BFDCF889515
:100DD000D299FDCF27ED28832BE6208330931E0D7B
:100DE0008895D29BFDCF8895D299FDCF2DEF2C937E
:100DF0008895D29BFDCF8895D299FDCF27E928838E
:100E00002DE32C93B0828895D29BFDCF8895D29903
:100E1000FDCF27ED28832DEF2C9370828895D29BF0
:100E2000FDCF8895D299FDCF2DEB2C938895D29B41
:100E3000FDCF8895D299FDCF27EF28832DE62C93FF
:100E40008895D29BFDCF8895D299FDCF27EB28833B
:100E50002DE22C93B08240931E0D8895D29BFDCF3E
:100E60008895D299FDCF27E728832DEE2C933093D8
:100E70001E0D8895D29BFDCF8895D299FDCF27EF87
:100E800028832DEA2C938895D29BFDCF8895D29903
:100E9000FDCF27EB2883708240931E0D8895D29B4F
:100EA000FDCF8895D299FDCF27EF28832BE62083AD
:100EB00030931E0D8895D29BFDCF8895D299FDCF9A
:100EC0002DEE2C938895D29BFDCF8895D299FDCF9E
:100ED00027EB28832DE22C93B0828895D29BFDCFFF
:100EE0008895D299FDCF27EF28832DEE2C93708221
:100EF0008895D29BFDCF8895D299FDCF2DEA2C9372
:100F00008895D29BFDCF8895D299FDCF27EE288377
:100F10002DE62C93608210931E0D8895D29BFDCFF9
:100F20008895D299FDCF27EA28832DE22C93D08291
:100F300080921E0D8895D29BFDCF8895D299FDCFCA
:100F400027E628832DEE2C9310931E0D8895D29BB7
:100F5000FDCF8895D299FDCF27EE28832DEA2C93DB
:100F60008895D29BFDCF8895D299FDCF27EA28831B
:100F7000608280921E0D8895D29BFDCF8895D29974
:100F8000FDCF27EE28832BE7208310931E0D889535
:100F9000D29BFDCF8895D299FDCF2DEE2C938895CD
:100FA000D29BFDCF8895D299FDCF27EA28832DE2E9
:100FB0002C93D0828895D29BFDCF8895D299FDCF76
:100FC00027EE28832DEE2C9360828895D29BFDCF4F
:100FD0008895D299FDCF2DEA2C938895D29BFDCF91
:100FE0008895D299FDCF27EF28832DE62C932BED02
:100FF000208330931E0D8895D29BFDCF8895D29982
:10100000FDCF27EB28832DE22C932BE920834093FF
:101010001E0D8895D29BFDCF8895D299FDCF27E7ED
:1010200028832DEE2C9330931E0D8895D29BFDCFF7
:101030008895D299FDCF27EF28832DEA2C938895A8
:10104000D29BFDCF8895D299FDCF27EB28832BED3E
:10105000208340931E0D8895D29BFDCF8895D29911
:10106000FDCF27EF28832BE5208330931E0D889535
:10107000D29BFDCF8895D299FDCF2DEE2C938895EC
:10108000D29BFDCF8895D299FDCF27EB28832DE207
:101090002C932BE920838895D29BFDCF8895D299FC
:1010A000FDCF27EF28832DEE2C932BED2083889501
:1010B000D29BFDCF8895D299FDCF2DEA2C938895B0
:1010C000D29BFDCF8895D299FDCF588329E52C93EB
:1010D00060828895D29BFDCF8895D299FDCF0882FA
:1010E00029E12C93D08240931E0D8895D29BFDCF91
:1010F0008895D299FDCF2FE7288329ED2C93309343
:101100001E0D8895D29BFDCF8895D299FDCF58832F
:1011100029E92C938895D29BFDCF8895D299FDCF54
:101120000882608240931E0D8895D29BFDCF8895E2
:10113000D299FDCF58832BE7208330931E0D8895DD
:10114000D29BFDCF8895D299FDCF29ED2C93889520
:10115000D29BFDCF8895D299FDCF088229E12C93AF
:10116000D0828895D29BFDCF8895D299FDCF5883A8
:1011700029ED2C9360828895D29BFDCF8895D299DA
:10118000FDCF29E92C938895D29BFDCF8895D299E4
:10119000FDCF988329E42C93708210931E0D8895BF
:1011A000D29BFDCF8895D299FDCF588229E02C9310
:1011B000B08280921E0D8895D29BFDCF8895D299E2
:1011C000FDCF2FE6288329EC2C9310931E0D8895D4
:1011D000D29BFDCF8895D299FDCF988329E82C9397
:1011E0008895D29BFDCF8895D299FDCF5882708289
:1011F00080921E0D8895D29BFDCF8895D299FDCF08
:1012000098832BE6208310931E0D8895D29BFDCFEB
:101210008895D299FDCF29EC2C938895D29BFDCF50
:101220008895D299FDCF588229E02C93B082889579
:10123000D29BFDCF8895D299FDCF988329EC2C9332
:1012400070828895D29BFDCF8895D299FDCF29E8F1
:101250002C938895D29BFDCF8895D299FDCFF882AB
:1012600029E72C9330931E0D8895D29BFDCF88954E
:10127000D299FDCF2FE9288329E32C93B0824093A4
:101280001E0D8895D29BFDCF8895D299FDCF2FE575
:10129000288329EF2C9330931E0D8895D29BFDCF88
:1012A0008895D299FDCFF88229EB2C938895D29B13
:1012B000FDCF8895D299FDCF2FE928837082409386
:1012C0001E0D8895D29BFDCF8895D299FDCFF882CF
:1012D0002BE6208330931E0D8895D29BFDCF8895F9
:1012E000D299FDCF29EF2C938895D29BFDCF88957D
:1012F000D299FDCF2FE9288329E32C93B0828895DA
:10130000D29BFDCF8895D299FDCFF88229EF2C93FF
:1013100070828895D29BFDCF8895D299FDCF29EB1D
:101320002C938895D29BFDCF8895D299FDCF588379
:1013300029E62C938895D29BFDCF8895D299FDCF35
:10134000088229E22C93B08240931E0D8895D29B8F
:10135000FDCF8895D299FDCF2FE7288329EE2C93D6
:1013600030931E0D8895D29BFDCF8895D299FDCFE5
:10137000588329EA2C938895D29BFDCF8895D299E2
:10138000FDCF0882708240931E0D8895D29BFDCFC1
:101390008895D299FDCF58832BE6208330931E0D7C
:1013A0008895D29BFDCF8895D299FDCF29EE2C93BD
:1013B0008895D29BFDCF8895D299FDCF088229E2EE
:1013C0002C93B0828895D29BFDCF8895D299FDCF82
:1013D000588329EE2C9370828895D29BFDCF8895F7
:1013E000D299FDCF29EA2C938895D29BFDCF889581
:1013F000D299FDCF988329E62C93608210931E0D1D
:101400008895D29BFDCF8895D299FDCF588229E24D
:101410002C93D08280921E0D8895D29BFDCF88950B
:10142000D299FDCF2FE6288329EE2C9310931E0D21
:101430008895D29BFDCF8895D299FDCF988329EAD4
:101440002C938895D29BFDCF8895D299FDCF588259
:10145000608280921E0D8895D29BFDCF8895D2998F
:10146000FDCF98832BE7208310931E0D8895D29B88
:10147000FDCF8895D299FDCF29EE2C938895D29BEC
:10148000FDCF8895D299FDCF588229E22C93D08246
:101490008895D29BFDCF8895D299FDCF988329EE70
:1014A0002C9360828895D29BFDCF8895D299FDCFF1
:1014B00029EA2C938895D29BFDCF8895D299FDCFB0
:1014C000588329E62C932BED208330931E0D8895AD
:1014D000D29BFDCF8895D299FDCF088229E22C932B
:1014E0002BE9208340931E0D8895D29BFDCF8895D4
:1014F000D299FDCF2FE7288329EE2C9330931E0D30
:101500008895D29BFDCF8895D299FDCF588329EA43
:101510002C938895D29BFDCF8895D299FDCF0882D8
:101520002BED208340931E0D8895D29BFDCF88958F
:10153000D299FDCF58832BE5208330931E0D8895DB
:10154000D29BFDCF8895D299FDCF29EE2C9388951B
:10155000D29BFDCF8895D299FDCF088229E22C93AA
:101560002BE920838895D29BFDCF8895D299FDCF1A
:10157000588329EE2C932BED20838895D29BFDCFA9
:101580008895D299FDCF29EA2C938895D29BFDCFDF
:101590008895D299FDCF688229E52C935083C0921B
:1015A0001E0D8895D29BFDCF8895D299FDCFD8820C
:1015B00029E12C93008222E220931E0D8895D29B74
:1015C000FDCF8895D299FDCF2BE7288329ED2C9369
:1015D000C0921E0D8895D29BFDCF8895D299FDCFE4
:1015E000688229E92C938895D29BFDCF8895D29962
:1015F000FDCFD882508322E220931E0D8895D29B86
:10160000FDCF8895D299FDCF68822FE72083C092C5
:101610001E0D8895D29BFDCF8895D299FDCF29EDDF
:101620002C938895D29BFDCF8895D299FDCFD882F7
:1016300029E12C9300828895D29BFDCF8895D29981
:10164000FDCF688229ED2C9350838895D29BFDCFE6
:101650008895D299FDCF29E92C938895D29BFDCF0F
:101660008895D299FDCF788229E42C93908322E843
:1016700020931E0D8895D29BFDCF8895D299FDCFE2
:10168000B88229E02C93508222E020931E0D889589
:10169000D29BFDCF8895D299FDCF2BE6288329ECEC
:1016A0002C9322E820931E0D8895D29BFDCF889520
:1016B000D299FDCF788229E82C938895D29BFDCFD3
:1016C0008895D299FDCFB882908322E020931E0D99
:1016D0008895D29BFDCF8895D299FDCF78822FE651
:1016E000208322E820931E0D8895D29BFDCF8895FC
:1016F000D299FDCF29EC2C938895D29BFDCF88956C
:10170000D299FDCFB88229E02C9350828895D29B44
:10171000FDCF8895D299FDCF788229EC2C939083C8
:101720008895D29BFDCF8895D299FDCF29E82C933F
:101730008895D29BFDCF8895D299FDCF2BED28833C
:1017400029E72C93C0921E0D8895D29BFDCF8895DA
:10175000D299FDCF2BE9288329E32C93508222E2F2
:1017600020931E0D8895D29BFDCF8895D299FDCFF1
:101770002BE5288329EF2C93C0921E0D8895D29BD0
:10178000FDCF8895D299FDCF2BED288329EB2C93A3
:101790008895D29BFDCF8895D299FDCF2BE92883E0
:1017A000908322E220931E0D8895D29BFDCF8895D1
:1017B000D299FDCF2BED28832FE62083C0921E0DFA
:1017C0008895D29BFDCF8895D299FDCF29EF2C9398
:1017D0008895D29BFDCF8895D299FDCF2BE92883A0
:1017E00029E32C9350828895D29BFDCF8895D2997E
:1017F000FDCF2BED288329EF2C9390838895D29BE6
:10180000FDCF8895D299FDCF29EB2C938895D29B5B
:10181000FDCF8895D299FDCF688229E62C938895D3
:10182000D29BFDCF8895D299FDCFD88229E22C9307
:10183000508222E220931E0D8895D29BFDCF889581
:10184000D299FDCF2BE7288329EE2C93C0921E0D51
:101850008895D29BFDCF8895D299FDCF688229EAE1
:101860002C938895D29BFDCF8895D299FDCFD882B5
:10187000908322E220931E0D8895D29BFDCF889500
:10188000D299FDCF68822FE62083C0921E0D8895E5
:10189000D29BFDCF8895D299FDCF29EE2C938895C8
:1018A000D29BFDCF8895D299FDCFD88229E22C9387
:1018B00050828895D29BFDCF8895D299FDCF6882C2
:1018C00029EE2C9390838895D29BFDCF8895D29951
:1018D000FDCF29EA2C938895D29BFDCF8895D2998C
:1018E000FDCF788229E62C93508322E820931E0DA9
:1018F0008895D29BFDCF8895D299FDCFB88229E2F9
:101900002C93008222E020931E0D8895D29BFDCF60
:101910008895D299FDCF2BE6288329EE2C9322E8D7
:1019200020931E0D8895D29BFDCF8895D299FDCF2F
:10193000788229EA2C938895D29BFDCF8895D299FD
:10194000FDCFB882508322E020931E0D8895D29B54
:10195000FDCF8895D299FDCF78822FE7208322E8AA
:1019600020931E0D8895D29BFDCF8895D299FDCFEF
:1019700029EE2C938895D29BFDCF8895D299FDCFE7
:10198000B88229E22C9300828895D29BFDCF88955E
:10199000D299FDCF788229EE2C9350838895D29BE3
:1019A000FDCF8895D299FDCF29EA2C938895D29BBB
:1019B000FDCF8895D299FDCF688229E62C93F082DD
:1019C000C0921E0D8895D29BFDCF8895D299FDCFF0
:1019D000D88229E22C932FE9208322E220931E0D46
:1019E0008895D29BFDCF8895D299FDCF2BE7288390
:1019F00029EE2C93C0921E0D8895D29BFDCF889521
:101A0000D299FDCF688229EA2C938895D29BFDCF8D
:101A10008895D299FDCFD882F08222E220931E0DC4
:101A20008895D29BFDCF8895D299FDCF68822FE50E
:101A30002083C0921E0D8895D29BFDCF8895D299A8
:101A4000FDCF29EE2C938895D29BFDCF8895D29916
:101A5000FDCFD88229E22C932FE920838895D29B51
:101A6000FDCF8895D299FDCF688229EE2C93F08224
:101A70008895D29BFDCF8895D299FDCF29EA2C93EA
:101A80008895D29BFDCF8895D299FDCF588329E5C3
:101A90002C9327EF208330931E0D8895D29BFDCF8A
:101AA0008895D299FDCF088229E12C9327EB2083DA
:101AB00040931E0D8895D29BFDCF8895D299FDCF7E
:101AC0002FE7288329ED2C9330931E0D8895D29B08
:101AD000FDCF8895D299FDCF588329E92C9388951D
:101AE000D29BFDCF8895D299FDCF088227EF208326
:101AF00040931E0D8895D29BFDCF8895D299FDCF3E
:101B0000588327E7208330931E0D8895D29BFDCF05
:101B10008895D299FDCF29ED2C938895D29BFDCF46
:101B20008895D299FDCF088229E12C9327EB208359
:101B30008895D29BFDCF8895D299FDCF588329ED0A
:101B40002C9327EF20838895D29BFDCF8895D2993F
:101B5000FDCF29E92C938895D29BFDCF8895D2990A
:101B6000FDCF988329E42C9327EE208310931E0D3C
:101B70008895D29BFDCF8895D299FDCF588229E0D8
:101B80002C9327EA208380921E0D8895D29BFDCF4F
:101B90008895D299FDCF2FE6288329EC2C931093BA
:101BA0001E0D8895D29BFDCF8895D299FDCF988345
:101BB00029E82C938895D29BFDCF8895D299FDCFAB
:101BC000588227EE208380921E0D8895D29BFDCFF0
:101BD0008895D299FDCF988327E6208310931E0D18
:101BE0008895D29BFDCF8895D299FDCF29EC2C9377
:101BF0008895D29BFDCF8895D299FDCF588229E058
:101C00002C9327EA20838895D29BFDCF8895D29983
:101C1000FDCF988329EC2C9327EE20838895D29BC7
:101C2000FDCF8895D299FDCF29E82C938895D29B3A
:101C3000FDCF8895D299FDCFF88229E72C93309378
:101C40001E0D8895D29BFDCF8895D299FDCF2FE9A7
:101C5000288329E32C9327EA208340931E0D88953F
:101C6000D29BFDCF8895D299FDCF2FE5288329EF10
:101C70002C9330931E0D8895D29BFDCF8895D299D9
:101C8000FDCFF88229EB2C938895D29BFDCF8895C8
:101C9000D299FDCF2FE9288327EE208340931E0D94
:101CA0008895D29BFDCF8895D299FDCFF88227E603
:101CB000208330931E0D8895D29BFDCF8895D299B5
:101CC000FDCF29EF2C938895D29BFDCF8895D29993
:101CD000FDCF2FE9288329E32C9327EA20838895D9
:101CE000D29BFDCF8895D299FDCFF88229EF2C9316
:101CF00027EE20838895D29BFDCF8895D299FDCF82
:101D000029EB2C938895D29BFDCF8895D299FDCF56
:101D1000588329E62C938895D29BFDCF8895D2993C
:101D2000FDCF088229E22C9327EA208340931E0DE1
:101D30008895D29BFDCF8895D299FDCF2FE7288338
:101D400029EE2C9330931E0D8895D29BFDCF88955C
:101D5000D299FDCF588329EA2C938895D29BFDCF49
:101D60008895D299FDCF088227EE208340931E0DDF
:101D70008895D29BFDCF8895D299FDCF588327E6D1
:101D8000208330931E0D8895D29BFDCF8895D299E4
:101D9000FDCF29EE2C938895D29BFDCF8895D299C3
:101DA000FDCF088229E22C9327EA20838895D29BD5
:101DB000FDCF8895D299FDCF588329EE2C9327EE3D
:101DC00020838895D29BFDCF8895D299FDCF29EAB3
:101DD0002C938895D29BFDCF8895D299FDCF98837F
:101DE00029E62C9327EF208310931E0D8895D29B14
:101DF000FDCF8895D299FDCF588229E22C9327EB0D
:101E0000208380921E0D8895D29BFDCF8895D29914
:101E1000FDCF2FE6288329EE2C9310931E0D889575
:101E2000D29BFDCF8895D299FDCF988329EA2C9338
:101E30008895D29BFDCF8895D299FDCF588227EF08
:101E4000208380921E0D8895D29BFDCF8895D299D4
:101E5000FDCF988327E7208310931E0D8895D29B92
:101E6000FDCF8895D299FDCF29EE2C938895D29BF2
:101E7000FDCF8895D299FDCF588229E22C9327EB8C
:101E800020838895D29BFDCF8895D299FDCF9883EA
:101E900029EE2C9327EF20838895D29BFDCF889540
:101EA000D299FDCF29EA2C938895D29BFDCF8895B6
:101EB000D299FDCF588329E62C9327ED20833093C8
:101EC0001E0D8895D29BFDCF8895D299FDCF0882B3
:101ED00029E22C9327E9208340931E0D8895D29BFD
:101EE000FDCF8895D299FDCF2FE7288329EE2C933B
:101EF00030931E0D8895D29BFDCF8895D299FDCF4A
:101F0000588329EA2C938895D29BFDCF8895D29946
:101F1000FDCF088227ED208340931E0D8895D29B2C
:101F2000FDCF8895D299FDCF588327E52083309344
:101F30001E0D8895D29BFDCF8895D299FDCF29EEB5
:101F40002C938895D29BFDCF8895D299FDCF08829E
:101F500029E22C9327E920838895D29BFDCF889591
:101F6000D299FDCF588329EE2C9327ED20838895B5
:101F7000D29BFDCF8895D299FDCF29EA2C938895E5
:101F8000D29BFDCF8895D299FDCF2DE52C9327EFDD
:101F900020838895D29BFDCF8895D299FDCF08826A
:101FA0002DE12C9327EB208340931E0D8895D29B27
:101FB000FDCF8895D299FDCF2FE728832DED2C9367
:101FC00030931E0D8895D29BFDCF8895D299FDCF79
:101FD00058832DE92C938895D29BFDCF8895D29973
:101FE000FDCF088227EF208340931E0D8895D29B5A
:101FF000FDCF8895D299FDCF588327E72083309372
:102000001E0D8895D29BFDCF8895D299FDCF2DEDE1
:102010002C938895D29BFDCF8895D299FDCF0882CD
:102020002DE12C9327EB20838895D29BFDCF8895BB
:10203000D299FDCF58832DED2C9327EF20838895DF
:10204000D29BFDCF8895D299FDCF2DE92C93889511
:10205000D29BFDCF8895D299FDCF98832DE42C9308
:1020600027EE208310931E0D8895D29BFDCF889577
:10207000D299FDCF58822DE02C9327EA20838092BD
:102080001E0D8895D29BFDCF8895D299FDCF2FE666
:1020900028832DEC2C9310931E0D8895D29BFDCF99
:1020A0008895D299FDCF98832DE82C938895D29B63
:1020B000FDCF8895D299FDCF588227EE208380925C
:1020C0001E0D8895D29BFDCF8895D299FDCF988320
:1020D00027E6208310931E0D8895D29BFDCF88950F
:1020E000D299FDCF2DEC2C938895D29BFDCF88956E
:1020F000D299FDCF58822DE02C9327EA2083889532
:10210000D29BFDCF8895D299FDCF98832DEC2C934F
:1021100027EE20838895D29BFDCF8895D299FDCF5D
:102120002DE82C938895D29BFDCF8895D299FDCF31
:10213000F8822DE72C9330931E0D8895D29BFDCF0E
:102140008895D299FDCF2FE928832DE32C9327EA98
:10215000208340931E0D8895D29BFDCF8895D29900
:10216000FDCF2FE528832DEF2C9330931E0D8895FE
:10217000D29BFDCF8895D299FDCFF8822DEB2C9381
:102180008895D29BFDCF8895D299FDCF2FE92883E2
:1021900027EE208340931E0D8895D29BFDCF889516
:1021A000D299FDCFF88227E6208330931E0D8895C3
:1021B000D29BFDCF8895D299FDCF2DEF2C9388959A
:1021C000D29BFDCF8895D299FDCF2FE928832DE3AF
:1021D0002C9327EA20838895D29BFDCF8895D299AE
:1021E000FDCFF8822DEF2C9327EE20838895D29B8C
:1021F000FDCF8895D299FDCF2DEB2C938895D29B5E
:10220000FDCF8895D299FDCF58832DE62C938895E4
:10221000D29BFDCF8895D299FDCF08822DE22C93D9
:1022200027EA208340931E0D8895D29BFDCF889589
:10223000D299FDCF2FE728832DEE2C9330931E0DDE
:102240008895D29BFDCF8895D299FDCF58832DEAF2
:102250002C938895D29BFDCF8895D299FDCF08828B
:1022600027EE208340931E0D8895D29BFDCF889545
:10227000D299FDCF588327E6208330931E0D889591
:10228000D29BFDCF8895D299FDCF2DEE2C938895CA
:10229000D29BFDCF8895D299FDCF08822DE22C9359
:1022A00027EA20838895D29BFDCF8895D299FDCFD0
:1022B00058832DEE2C9327EE20838895D29BFDCF5B
:1022C0008895D299FDCF2DEA2C938895D29BFDCF8E
:1022D0008895D299FDCF98832DE62C9327EF208304
:1022E00010931E0D8895D29BFDCF8895D299FDCF76
:1022F00058822DE22C9327EB208380921E0D889527
:10230000D29BFDCF8895D299FDCF2FE628832DEE65
:102310002C9310931E0D8895D29BFDCF8895D29952
:10232000FDCF98832DEA2C938895D29BFDCF88957D
:10233000D299FDCF588227EF208380921E0D889579
:10234000D29BFDCF8895D299FDCF988327E7208334
:1023500010931E0D8895D29BFDCF8895D299FDCF05
:102360002DEE2C938895D29BFDCF8895D299FDCFE9
:1023700058822DE22C9327EB20838895D29BFDCFAA
:102380008895D299FDCF98832DEE2C9327EF20834B
:102390008895D29BFDCF8895D299FDCF2DEA2C93BD
:1023A0008895D29BFDCF8895D299FDCF58832DE695
:1023B0002C9327ED208330931E0D8895D29BFDCF63
:1023C0008895D299FDCF08822DE22C9327E92083AE
:1023D00040931E0D8895D29BFDCF8895D299FDCF55
:1023E0002FE728832DEE2C9330931E0D8895D29BDA
:1023F000FDCF8895D299FDCF58832DEA2C938895EF
:10240000D29BFDCF8895D299FDCF088227ED2083FE
:1024100040931E0D8895D29BFDCF8895D299FDCF14
:10242000588327E5208330931E0D8895D29BFDCFDE
:102430008895D299FDCF2DEE2C938895D29BFDCF18
:102440008895D299FDCF08822DE22C9327E920832D
:102450008895D29BFDCF8895D299FDCF58832DEEDC
:102460002C9327ED20838895D29BFDCF8895D29918
:10247000FDCF2DEA2C938895D29BFDCF8895D299DC
:10248000FDCF688221E52C9360828895D29BFDCF99
:102490008895D299FDCFD88221E12C93D0824093A8
:1024A0001E0D8895D29BFDCF8895D299FDCF2BE745
:1024B000288321ED2C9330931E0D8895D29BFDCF60
:1024C0008895D299FDCF688221E92C938895D29B7B
:1024D000FDCF8895D299FDCFD882608240931E0DA2
:1024E0008895D29BFDCF8895D299FDCF68822BE746
:1024F000208330931E0D8895D29BFDCF8895D2996D
:10250000FDCF21ED2C938895D29BFDCF8895D29954
:10251000FDCFD88221E12C93D0828895D29BFDCF2C
:102520008895D299FDCF688221ED2C9360828895A1
:10253000D29BFDCF8895D299FDCF21E92C93889528
:10254000D29BFDCF8895D299FDCF788221E42C9340
:10255000708210931E0D8895D29BFDCF8895D299DD
:10256000FDCFB88221E02C93B08280921E0D889519
:10257000D29BFDCF8895D299FDCF2BE6288321EC05
:102580002C9310931E0D8895D29BFDCF8895D299E0
:10259000FDCF788221E82C938895D29BFDCF88953A
:1025A000D299FDCFB882708280921E0D8895D29B01
:1025B000FDCF8895D299FDCF78822BE620831093AA
:1025C0001E0D8895D29BFDCF8895D299FDCF21EC29
:1025D0002C938895D29BFDCF8895D299FDCFB88258
:1025E00021E02C93B0828895D29BFDCF8895D2991B
:1025F000FDCF788221EC2C9370828895D29BFDCF01
:102600008895D299FDCF21E82C938895D29BFDCF58
:102610008895D299FDCF2BED288321E72C93309319
:102620001E0D8895D29BFDCF8895D299FDCF2BE9C1
:10263000288321E32C93B08240931E0D8895D29B72
:10264000FDCF8895D299FDCF2BE5288321EF2C93E0
:1026500030931E0D8895D29BFDCF8895D299FDCFE2
:102660002BED288321EB2C938895D29BFDCF889569
:10267000D299FDCF2BE92883708240931E0D889557
:10268000D29BFDCF8895D299FDCF2BED28832BE6E9
:10269000208330931E0D8895D29BFDCF8895D299CB
:1026A000FDCF21EF2C938895D29BFDCF8895D299B1
:1026B000FDCF2BE9288321E32C93B0828895D29B10
:1026C000FDCF8895D299FDCF2BED288321EF2C9358
:1026D00070828895D29BFDCF8895D299FDCF21EB52
:1026E0002C938895D29BFDCF8895D299FDCF688297
:1026F00021E62C938895D29BFDCF8895D299FDCF6A
:10270000D88221E22C93B08240931E0D8895D29BF3
:10271000FDCF8895D299FDCF2BE7288321EE2C930E
:1027200030931E0D8895D29BFDCF8895D299FDCF11
:10273000688221EA2C938895D29BFDCF8895D29907
:10274000FDCFD882708240931E0D8895D29BFDCF1D
:102750008895D299FDCF68822BE6208330931E0D99
:102760008895D29BFDCF8895D299FDCF21EE2C93F1
:102770008895D29BFDCF8895D299FDCFD88221E252
:102780002C93B0828895D29BFDCF8895D299FDCFAE
:10279000688221EE2C9370828895D29BFDCF88951C
:1027A000D299FDCF21EA2C938895D29BFDCF8895B5
:1027B000D299FDCF788221E62C93608210931E0D72
:1027C0008895D29BFDCF8895D299FDCFB88221E222
:1027D0002C93D08280921E0D8895D29BFDCF889538
:1027E000D299FDCF2BE6288321EE2C9310931E0D5A
:1027F0008895D29BFDCF8895D299FDCF788221EA2A
:102800002C938895D29BFDCF8895D299FDCFB88225
:10281000608280921E0D8895D29BFDCF8895D299BB
:10282000FDCF78822BE7208310931E0D8895D29BD5
:10283000FDCF8895D299FDCF21EE2C938895D29B20
:10284000FDCF8895D299FDCFB88221E22C93D0821A
:102850008895D29BFDCF8895D299FDCF788221EEC5
:102860002C9360828895D29BFDCF8895D299FDCF1D
:1028700021EA2C938895D29BFDCF8895D299FDCFE4
:10288000688221E62C932BED208330931E0D8895D2
:10289000D29BFDCF8895D299FDCFD88221E22C938F
:1028A0002BE9208340931E0D8895D29BFDCF889500
:1028B000D299FDCF2BE7288321EE2C9330931E0D68
:1028C0008895D29BFDCF8895D299FDCF688221EA69
:1028D0002C938895D29BFDCF8895D299FDCFD88235
:1028E0002BED208340931E0D8895D29BFDCF8895BC
:1028F000D299FDCF68822BE5208330931E0D8895F9
:10290000D29BFDCF8895D299FDCF21EE2C9388954F
:10291000D29BFDCF8895D299FDCFD88221E22C930E
:102920002BE920838895D29BFDCF8895D299FDCF46
:10293000688221EE2C932BED20838895D29BFDCFCE
:102940008895D299FDCF21EA2C938895D29BFDCF13
:102950008895D299FDCF58832DE52C935083889587
:10296000D29BFDCF8895D299FDCF08822DE12C9383
:10297000008240931E0D8895D29BFDCF8895D299F9
:10298000FDCF2FE728832DED2C9330931E0D8895D6
:10299000D29BFDCF8895D299FDCF58832DE92C93FA
:1029A0008895D29BFDCF8895D299FDCF0882508320
:1029B00040931E0D8895D29BFDCF8895D299FDCF6F
:1029C00058832FE7208330931E0D8895D29BFDCF2F
:1029D0008895D299FDCF2DED2C938895D29BFDCF74
:1029E0008895D299FDCF08822DE12C93008288959D
:1029F000D29BFDCF8895D299FDCF58832DED2C9396
:102A000050838895D29BFDCF8895D299FDCF2DE933
:102A10002C938895D29BFDCF8895D299FDCF988332
:102A20002DE42C93908310931E0D8895D29BFDCF9F
:102A30008895D299FDCF58822DE02C9350828092B8
:102A40001E0D8895D29BFDCF8895D299FDCF2FE69C
:102A500028832DEC2C9310931E0D8895D29BFDCFCF
:102A60008895D299FDCF98832DE82C938895D29B99
:102A7000FDCF8895D299FDCF5882908380921E0D0C
:102A80008895D29BFDCF8895D299FDCF98832FE66C
:102A9000208310931E0D8895D29BFDCF8895D299E7
:102AA000FDCF2DEC2C938895D29BFDCF8895D299A4
:102AB000FDCF58822DE02C9350828895D29BFDCF7C
:102AC0008895D299FDCF98832DEC2C93908388958F
:102AD000D29BFDCF8895D299FDCF2DE82C93889578
:102AE000D29BFDCF8895D299FDCFF8822DE72C930C
:102AF00030931E0D8895D29BFDCF8895D299FDCF3E
:102B00002FE928832DE32C93508240931E0D889546
:102B1000D29BFDCF8895D299FDCF2FE528832DEF4D
:102B20002C9330931E0D8895D29BFDCF8895D2991A
:102B3000FDCFF8822DEB2C938895D29BFDCF889505
:102B4000D299FDCF2FE92883908340931E0D88955D
:102B5000D29BFDCF8895D299FDCFF8822FE62083B6
:102B600030931E0D8895D29BFDCF8895D299FDCFCD
:102B70002DEF2C938895D29BFDCF8895D299FDCFD0
:102B80002FE928832DE32C9350828895D29BFDCF8B
:102B90008895D299FDCFF8822DEF2C93908388955C
:102BA000D29BFDCF8895D299FDCF2DEB2C938895A4
:102BB000D29BFDCF8895D299FDCF58832DE62C93DB
:102BC0008895D29BFDCF8895D299FDCF08822DE2C2
:102BD0002C93508240931E0D8895D29BFDCF8895F3
:102BE000D299FDCF2FE728832DEE2C9330931E0D25
:102BF0008895D29BFDCF8895D299FDCF58832DEA39
:102C00002C938895D29BFDCF8895D299FDCF0882D1
:102C1000908340931E0D8895D29BFDCF8895D299C5
:102C2000FDCF58832FE6208330931E0D8895D29BCD
:102C3000FDCF8895D299FDCF2DEE2C938895D29B10
:102C4000FDCF8895D299FDCF08822DE22C9350823A
:102C50008895D29BFDCF8895D299FDCF58832DEED4
:102C60002C9390838895D29BFDCF8895D299FDCFE8
:102C70002DEA2C938895D29BFDCF8895D299FDCFD4
:102C800098832DE62C93508310931E0D8895D29B2C
:102C9000FDCF8895D299FDCF58822DE22C930082EA
:102CA00080921E0D8895D29BFDCF8895D299FDCF3D
:102CB0002FE628832DEE2C9310931E0D8895D29B22
:102CC000FDCF8895D299FDCF98832DEA2C938895D6
:102CD000D29BFDCF8895D299FDCF588250838092A8
:102CE0001E0D8895D29BFDCF8895D299FDCF9883F4
:102CF0002FE7208310931E0D8895D29BFDCF8895DA
:102D0000D299FDCF2DEE2C938895D29BFDCF88953F
:102D1000D299FDCF58822DE22C9300828895D29BC8
:102D2000FDCF8895D299FDCF98832DEE2C935083BB
:102D30008895D29BFDCF8895D299FDCF2DEA2C9313
:102D40008895D29BFDCF8895D299FDCF58832DE6EB
:102D50002C93F08230931E0D8895D29BFDCF8895E1
:102D6000D299FDCF08822DE22C932FE92083409346
:102D70001E0D8895D29BFDCF8895D299FDCF2FE768
:102D800028832DEE2C9330931E0D8895D29BFDCF7A
:102D90008895D299FDCF58832DEA2C938895D29BA4
:102DA000FDCF8895D299FDCF0882F08240931E0D09
:102DB0008895D29BFDCF8895D299FDCF58832FE57A
:102DC000208330931E0D8895D29BFDCF8895D29994
:102DD000FDCF2DEE2C938895D29BFDCF8895D2996F
:102DE000FDCF08822DE22C932FE920838895D29B7A
:102DF000FDCF8895D299FDCF58832DEE2C93F0828C
:102E00008895D29BFDCF8895D299FDCF2DEA2C9342
:102E10008895D29BFDCF8895D299FDCF29E52C933B
:102E200050838895D29BFDCF8895D299FDCF08829B
:102E300029E12C93008240931E0D8895D29BFDCFF3
:102E40008895D299FDCF2FE7288329ED2C933093D5
:102E50001E0D8895D29BFDCF8895D299FDCF5883C2
:102E600029E92C938895D29BFDCF8895D299FDCFE7
:102E70000882508340931E0D8895D29BFDCF889584
:102E8000D299FDCF58832FE7208330931E0D88956C
:102E9000D29BFDCF8895D299FDCF29ED2C938895B3
:102EA000D29BFDCF8895D299FDCF088229E12C9342
:102EB00000828895D29BFDCF8895D299FDCF58830B
:102EC00029ED2C9350838895D29BFDCF8895D2997C
:102ED000FDCF29E92C938895D29BFDCF8895D29977
:102EE000FDCF988329E42C93908310931E0D889531
:102EF000D29BFDCF8895D299FDCF588229E02C93A3
:102F0000508280921E0D8895D29BFDCF8895D299D4
:102F1000FDCF2FE6288329EC2C9310931E0D889566
:102F2000D29BFDCF8895D299FDCF988329E82C9329
:102F30008895D29BFDCF8895D299FDCF58829083FA
:102F400080921E0D8895D29BFDCF8895D299FDCF9A
:102F500098832FE6208310931E0D8895D29BFDCF7A
:102F60008895D299FDCF29EC2C938895D29BFDCFE3
:102F70008895D299FDCF588229E02C93508288956C
:102F8000D29BFDCF8895D299FDCF988329EC2C93C5
:102F900090838895D29BFDCF8895D299FDCF29E863
:102FA0002C938895D29BFDCF8895D299FDCFF8823E
:102FB00029E72C9330931E0D8895D29BFDCF8895E1
:102FC000D299FDCF2FE9288329E32C935082409397
:102FD0001E0D8895D29BFDCF8895D299FDCF2FE508
:102FE000288329EF2C9330931E0D8895D29BFDCF1B
:102FF0008895D299FDCFF88229EB2C938895D29BA6
:10300000FDCF8895D299FDCF2FE9288390834093F7
:103010001E0D8895D29BFDCF8895D299FDCFF88261
:103020002FE6208330931E0D8895D29BFDCF889587
:10303000D299FDCF29EF2C938895D29BFDCF88950F
:10304000D299FDCF2FE9288329E32C9350828895CC
:10305000D29BFDCF8895D299FDCFF88229EF2C9392
:1030600090838895D29BFDCF8895D299FDCF29EB8F
:103070002C938895D29BFDCF8895D299FDCF58830C
:1030800029E62C938895D29BFDCF8895D299FDCFC8
:10309000088229E22C93508240931E0D8895D29B82
:1030A000FDCF8895D299FDCF2FE7288329EE2C9369
:1030B00030931E0D8895D29BFDCF8895D299FDCF78
:1030C000588329EA2C938895D29BFDCF8895D29975
:1030D000FDCF0882908340931E0D8895D29BFDCF33
:1030E0008895D299FDCF58832FE6208330931E0D0B
:1030F0008895D29BFDCF8895D299FDCF29EE2C9350
:103100008895D29BFDCF8895D299FDCF088229E280
:103110002C9350828895D29BFDCF8895D299FDCF74
:10312000588329EE2C9390838895D29BFDCF889568
:10313000D299FDCF29EA2C938895D29BFDCF889513
:10314000D299FDCF988329E62C93508310931E0DBE
:103150008895D29BFDCF8895D299FDCF588229E2E0
:103160002C93008280921E0D8895D29BFDCF88956E
:10317000D299FDCF2FE6288329EE2C9310931E0DB4
:103180008895D29BFDCF8895D299FDCF988329EA67
:103190002C938895D29BFDCF8895D299FDCF5882EC
:1031A000508380921E0D8895D29BFDCF8895D29931
:1031B000FDCF98832FE7208310931E0D8895D29B17
:1031C000FDCF8895D299FDCF29EE2C938895D29B7F
:1031D000FDCF8895D299FDCF588229E22C930082A9
:1031E0008895D29BFDCF8895D299FDCF988329EE03
:1031F0002C9350838895D29BFDCF8895D299FDCF93
:1032000029EA2C938895D29BFDCF8895D299FDCF42
:10321000588329E62C93F08230931E0D8895D29B1B
:10322000FDCF8895D299FDCF088229E22C932FE912
:10323000208340931E0D8895D29BFDCF8895D2990F
:10324000FDCF2FE7288329EE2C9330931E0D889510
:10325000D29BFDCF8895D299FDCF588329EA2C9334
:103260008895D29BFDCF8895D299FDCF0882F082B8
:1032700040931E0D8895D29BFDCF8895D299FDCFA6
:1032800058832FE5208330931E0D8895D29BFDCF68
:103290008895D299FDCF29EE2C938895D29BFDCFAE
:1032A0008895D299FDCF088229E22C932FE92083BB
:1032B0008895D29BFDCF8895D299FDCF588329EE72
:1032C0002C93F0828895D29BFDCF8895D299FDCF23
:1032D00029EA2C938895D29BFDCF8895D299FDCF72
:1032E000888324E52C93808320921E0D8895D29BA1
:1032F000FDCF8895D299FDCF488224E12C9340825E
:1033000090921E0D8895D29BFDCF8895D299FDCFC6
:103310002EE7288324ED2C9320921E0D8895D29BB6
:10332000FDCF8895D299FDCF888324E92C93889589
:10333000D29BFDCF8895D299FDCF48828083909211
:103340001E0D8895D29BFDCF8895D299FDCF88839D
:103350002EE7208320921E0D8895D29BFDCF889565
:10336000D299FDCF24ED2C938895D29BFDCF8895E3
:10337000D299FDCF488224E12C9340828895D29B3C
:10338000FDCF8895D299FDCF888324ED2C9380833F
:103390008895D29BFDCF8895D299FDCF24E92C93B7
:1033A0008895D29BFDCF8895D299FDCF688324E480
:1033B0002C93608300931E0D8895D29BFDCF88953A
:1033C000D299FDCF188224E02C93108228E020931C
:1033D0001E0D8895D29BFDCF8895D299FDCF2EE604
:1033E000288324EC2C9300931E0D8895D29BFDCF4F
:1033F0008895D299FDCF688324E82C938895D29B39
:10340000FDCF8895D299FDCF1882608328E0209364
:103410001E0D8895D29BFDCF8895D299FDCF6883EC
:103420002EE6208300931E0D8895D29BFDCF8895B4
:10343000D299FDCF24EC2C938895D29BFDCF889513
:10344000D299FDCF188224E02C9310828895D29BCC
:10345000FDCF8895D299FDCF688324EC2C936083AF
:103460008895D29BFDCF8895D299FDCF24E82C93E7
:103470008895D29BFDCF8895D299FDCFE88224E72D
:103480002C9320921E0D8895D29BFDCF8895D299C2
:10349000FDCF2EE9288324E32C93108290921E0DF9
:1034A0008895D29BFDCF8895D299FDCF2EE52883B4
:1034B00024EF2C9320921E0D8895D29BFDCF8895EA
:1034C000D299FDCFE88224EB2C938895D29BFDCF37
:1034D0008895D299FDCF2EE92883608390921E0DA6
:1034E0008895D29BFDCF8895D299FDCFE8822EE6B4
:1034F000208320921E0D8895D29BFDCF8895D2996E
:10350000FDCF24EF2C938895D29BFDCF8895D2993F
:10351000FDCF2EE9288324E32C9310828895D29B3B
:10352000FDCF8895D299FDCFE88224EF2C9360835C
:103530008895D29BFDCF8895D299FDCF24EB2C9313
:103540008895D29BFDCF8895D299FDCF888324E6BC
:103550002C938895D29BFDCF8895D299FDCF488238
:1035600024E22C93108290921E0D8895D29BFDCF61
:103570008895D299FDCF2EE7288324EE2C932092B4
:103580001E0D8895D29BFDCF8895D299FDCF88835B
:1035900024EA2C938895D29BFDCF8895D299FDCFB4
:1035A0004882608390921E0D8895D29BFDCF8895AE
:1035B000D299FDCF88832EE6208320921E0D889518
:1035C000D29BFDCF8895D299FDCF24EE2C93889580
:1035D000D29BFDCF8895D299FDCF488224E22C93CF
:1035E00010828895D29BFDCF8895D299FDCF888394
:1035F00024EE2C9360838895D29BFDCF8895D29939
:10360000FDCF24EA2C938895D29BFDCF8895D29943
:10361000FDCF688324E62C93808300931E0D88954C
:10362000D29BFDCF8895D299FDCF188224E22C93AE
:10363000408228E020931E0D8895D29BFDCF88956F
:10364000D299FDCF2EE6288324EE2C9300931E0DF5
:103650008895D29BFDCF8895D299FDCF688324EAC7
:103660002C938895D29BFDCF8895D299FDCF188257
:10367000808328E020931E0D8895D29BFDCF8895EE
:10368000D299FDCF68832EE7208300931E0D889585
:10369000D29BFDCF8895D299FDCF24EE2C938895AF
:1036A000D29BFDCF8895D299FDCF188224E22C932E
:1036B00040828895D29BFDCF8895D299FDCF6883B3
:1036C00024EE2C9380838895D29BFDCF8895D29948
:1036D000FDCF24EA2C938895D29BFDCF8895D29973
:1036E000FDCF888324E62C93E08220921E0D8895DE
:1036F000D29BFDCF8895D299FDCF488224E22C93AE
:103700002EE9208390921E0D8895D29BFDCF88953F
:10371000D299FDCF2EE7288324EE2C9320921E0D04
:103720008895D29BFDCF8895D299FDCF888324EAD6
:103730002C938895D29BFDCF8895D299FDCF488256
:10374000E08290921E0D8895D29BFDCF8895D299EC
:10375000FDCF88832EE5208320921E0D8895D29B75
:10376000FDCF8895D299FDCF24EE2C938895D29BDE
:10377000FDCF8895D299FDCF488224E22C932EE983
:1037800020838895D29BFDCF8895D299FDCF8883E1
:1037900024EE2C93E0828895D29BFDCF8895D29918
:1037A000FDCF24EA2C938895D29BFDCF8895D299A2
:1037B000FDCF388220E52C93308220EA20931E0D25
:1037C0008895D29BFDCF8895D299FDCFA88220E124
:1037D0002C93A08220E220931E0D8895D29BFDCFD2
:1037E0008895D299FDCF2AE7288320ED2C9320EAF3
:1037F00020931E0D8895D29BFDCF8895D299FDCF41
:10380000388220E92C938895D29BFDCF8895D29958
:10381000FDCFA882308220E220931E0D8895D29B96
:10382000FDCF8895D299FDCF38822AE7208320EA00
:1038300020931E0D8895D29BFDCF8895D299FDCF00
:1038400020ED2C938895D29BFDCF8895D299FDCF02
:10385000A88220E12C93A0828895D29BFDCF8895E9
:10386000D299FDCF388220ED2C9330828895D29B5F
:10387000FDCF8895D299FDCF20E92C938895D29BD6
:10388000FDCF8895D299FDCF788320E42C93708367
:1038900020E820931E0D8895D29BFDCF8895D29964
:1038A000FDCF388320E02C93308320931E0D889524
:1038B000D29BFDCF8895D299FDCF2AE6288320ECB4
:1038C0002C9320E820931E0D8895D29BFDCF8895E0
:1038D000D299FDCF78832C938895D29BFDCF889584
:1038E000D299FDCF3883708320E020931E0D8895F8
:1038F000D29BFDCF8895D299FDCF78832AE620838D
:1039000020E820931E0D8895D29BFDCF8895D299F3
:10391000FDCF20EC2C938895D29BFDCF8895D29932
:10392000FDCF388320E02C9330838895D29BFDCF48
:103930008895D299FDCF788320EC2C93708388955D
:10394000D29BFDCF8895D299FDCF20E82C93889506
:10395000D29BFDCF8895D299FDCF2AED288320E711
:103960002C9320EA20931E0D8895D29BFDCF88953D
:10397000D299FDCF2AE9288320E32C93308320E2DB
:1039800020931E0D8895D29BFDCF8895D299FDCFAF
:103990002AE5288320EF2C9320EA20931E0D88959A
:1039A000D29BFDCF8895D299FDCF2AED288320EBBD
:1039B0002C938895D29BFDCF8895D299FDCF2AE98B
:1039C0002883708320E220931E0D8895D29BFDCF23
:1039D0008895D299FDCF2AED28832AE6208320EA14
:1039E00020931E0D8895D29BFDCF8895D299FDCF4F
:1039F00020EF2C938895D29BFDCF8895D299FDCF4F
:103A00002AE9288320E32C9330838895D29BFDCF2D
:103A10008895D299FDCF2AED288320EF2C937083CF
:103A20008895D29BFDCF8895D299FDCF20EB2C9322
:103A30008895D29BFDCF8895D299FDCF388220E61C
:103A40002C938895D29BFDCF8895D299FDCFA882E3
:103A500020E22C93308320931E0D8895D29BFDCFBE
:103A60008895D299FDCF2AE7288320EE2C9320EA6F
:103A700020931E0D8895D29BFDCF8895D299FDCFBE
:103A800038822C938895D29BFDCF8895D299FDCF13
:103A9000A882708320E220931E0D8895D29BFDCFD3
:103AA0008895D299FDCF38822AE6208320EA209398
:103AB0001E0D8895D29BFDCF8895D299FDCF20EE23
:103AC0002C938895D29BFDCF8895D299FDCFA88263
:103AD00020E22C9330838895D29BFDCF8895D29994
:103AE000FDCF388220EE2C9370838895D29BFDCF3A
:103AF0008895D299FDCF20EA2C938895D29BFDCF53
:103B00008895D299FDCF788320E62C93308220E8E7
:103B100020931E0D8895D29BFDCF8895D299FDCF1D
:103B2000388320E22C93A08220E020931E0D8895FC
:103B3000D29BFDCF8895D299FDCF2AE6288320EE2F
:103B40002C9320E820931E0D8895D29BFDCF88955D
:103B5000D299FDCF788320EA2C938895D29BFDCF14
:103B60008895D299FDCF3883308220E020931E0DB6
:103B70008895D29BFDCF8895D299FDCF78832AE78F
:103B8000208320E820931E0D8895D29BFDCF889539
:103B9000D299FDCF20EE2C938895D29BFDCF8895AE
:103BA000D299FDCF388320E22C93A0828895D29BB6
:103BB000FDCF8895D299FDCF788320EE2C9330826B
:103BC0008895D29BFDCF8895D299FDCF20EA2C9382
:103BD0008895D29BFDCF8895D299FDCF388220E67B
:103BE0002C932AED208320EA20931E0D8895D29BEA
:103BF000FDCF8895D299FDCFA88220E22C932AE9A7
:103C0000208320E220931E0D8895D29BFDCF8895BE
:103C1000D299FDCF2AE7288320EE2C9320EA209327
:103C20001E0D8895D29BFDCF8895D299FDCF388205
:103C30002C938895D29BFDCF8895D299FDCFA882F1
:103C40002AED208320E220931E0D8895D29BFDCF84
:103C50008895D299FDCF38822AE5208320EA2093E7
:103C60001E0D8895D29BFDCF8895D299FDCF20EE71
:103C70002C938895D29BFDCF8895D299FDCFA882B1
:103C800020E22C932AE920838895D29BFDCF88954A
:103C9000D299FDCF388220EE2C932AED208388958F
:103CA000D29BFDCF8895D299FDCF20EA2C938895A1
:103CB000D29BFDCF8895D299FDCF26EF28832CE5A6
:103CC0002C93308220921E0D8895D29BFDCF889533
:103CD000D299FDCF26EB28832CE12C93A0829092E1
:103CE0001E0D8895D29BFDCF8895D299FDCF26E7F2
:103CF00028832CED2C9320921E0D8895D29BFDCF0E
:103D00008895D299FDCF26EF28832CE92C938895AE
:103D1000D29BFDCF8895D299FDCF26EB28833082A8
:103D200090921E0D8895D29BFDCF8895D299FDCF9C
:103D300026EF28832AE7208320921E0D8895D29BA8
:103D4000FDCF8895D299FDCF2CED2C938895D29BF1
:103D5000FDCF8895D299FDCF26EB28832CE12C93BB
:103D6000A0828895D29BFDCF8895D299FDCF26EF72
:103D700028832CED2C9330828895D29BFDCF88959B
:103D8000D299FDCF2CE92C938895D29BFDCF8895B5
:103D9000D299FDCF26EE28832CE42C9370830093D8
:103DA0001E0D8895D29BFDCF8895D299FDCF26EA2E
:103DB00028832CE02C93308328E020931E0D8895D7
:103DC000D29BFDCF8895D299FDCF26E628832CEC97
:103DD0002C9300931E0D8895D29BFDCF8895D29988
:103DE000FDCF26EE28832CE82C938895D29BFDCF1F
:103DF0008895D299FDCF26EA2883708328E0209306
:103E00001E0D8895D29BFDCF8895D299FDCF26EEC9
:103E100028832AE6208300931E0D8895D29BFDCF30
:103E20008895D299FDCF2CEC2C938895D29BFDCF11
:103E30008895D299FDCF26EA28832CE02C933083F5
:103E40008895D29BFDCF8895D299FDCF26EE288309
:103E50002CEC2C9370838895D29BFDCF8895D299BA
:103E6000FDCF2CE82C938895D29BFDCF8895D299D5
:103E7000FDCF26ED28832CE72C9320921E0D8895EC
:103E8000D29BFDCF8895D299FDCF26E928832CE3DC
:103E90002C93308390921E0D8895D29BFDCF8895F0
:103EA000D299FDCF26E528832CEF2C9320921E0D6E
:103EB0008895D29BFDCF8895D299FDCF26ED28839A
:103EC0002CEB2C938895D29BFDCF8895D299FDCF72
:103ED00026E92883708390921E0D8895D29BFDCF92
:103EE0008895D299FDCF26ED28832AE6208320925B
:103EF0001E0D8895D29BFDCF8895D299FDCF2CEFD2
:103F00002C938895D29BFDCF8895D299FDCF26E939
:103F100028832CE32C9330838895D29BFDCF889502
:103F2000D299FDCF26ED28832CEF2C9370838895B2
:103F3000D29BFDCF8895D299FDCF2CEB2C93889501
:103F4000D29BFDCF8895D299FDCF26EF28832CE612
:103F50002C938895D29BFDCF8895D299FDCF26EBE7
:103F600028832CE22C93308390921E0D8895D29B4F
:103F7000FDCF8895D299FDCF26E728832CEE2C9390
:103F800020921E0D8895D29BFDCF8895D299FDCFAA
:103F900026EF28832CEA2C938895D29BFDCF889519
:103FA000D299FDCF26EB2883708390921E0D8895C1
:103FB000D29BFDCF8895D299FDCF26EF28832AE6A4
:103FC000208320921E0D8895D29BFDCF8895D29993
:103FD000FDCF2CEE2C938895D29BFDCF8895D2995E
:103FE000FDCF26EB28832CE22C9330838895D29B3F
:103FF000FDCF8895D299FDCF26EF28832CEE2C9308
:1040000070838895D29BFDCF8895D299FDCF2CEAFD
:104010002C938895D29BFDCF8895D299FDCF26EE23
:1040200028832CE62C93308200931E0D8895D29B1A
:10403000FDCF8895D299FDCF26EA28832CE22C93D8
:10404000A08228E020931E0D8895D29BFDCF8895F5
:10405000D299FDCF26E628832CEE2C9300931E0DDB
:104060008895D29BFDCF8895D299FDCF26EE2883E7
:104070002CEA2C938895D29BFDCF8895D299FDCFC1
:1040800026EA2883308228E020931E0D8895D29B53
:10409000FDCF8895D299FDCF26EE28832AE720838D
:1040A00000931E0D8895D29BFDCF8895D299FDCFA8
:1040B0002CEE2C938895D29BFDCF8895D299FDCF7D
:1040C00026EA28832CE22C93A0828895D29BFDCFF0
:1040D0008895D299FDCF26EE28832CEE2C93308242
:1040E0008895D29BFDCF8895D299FDCF2CEA2C9351
:1040F0008895D29BFDCF8895D299FDCF26EF288356
:104100002CE62C932AED208320921E0D8895D29BBD
:10411000FDCF8895D299FDCF26EB28832CE22C93F6
:104120002AE9208390921E0D8895D29BFDCF889519
:10413000D299FDCF26E728832CEE2C9320921E0DDA
:104140008895D29BFDCF8895D299FDCF26EF288305
:104150002CEA2C938895D29BFDCF8895D299FDCFE0
:1041600026EB28832AED208390921E0D8895D29B02
:10417000FDCF8895D299FDCF26EF28832AE52083AD
:1041800020921E0D8895D29BFDCF8895D299FDCFA8
:104190002CEE2C938895D29BFDCF8895D299FDCF9C
:1041A00026EB28832CE22C932AE920838895D29B46
:1041B000FDCF8895D299FDCF26EF28832CEE2C9346
:1041C0002AED20838895D29BFDCF8895D299FDCF8B
:1041D0002CEA2C938895D29BFDCF8895D299FDCF60
:1041E000888328E52C9330828895D29BFDCF8895D3
:1041F000D299FDCF488228E12C93A08290921E0D87
:104200008895D29BFDCF8895D299FDCF2EE7288344
:1042100028ED2C9320921E0D8895D29BFDCF88957A
:10422000D299FDCF888328E92C938895D29BFDCF26
:104230008895D299FDCF4882308290921E0D889544
:10424000D29BFDCF8895D299FDCF88832AE7208322
:1042500020921E0D8895D29BFDCF8895D299FDCFD7
:1042600028ED2C938895D29BFDCF8895D299FDCFD0
:10427000488228E12C93A0828895D29BFDCF889517
:10428000D299FDCF888328ED2C9330828895D29BDC
:10429000FDCF8895D299FDCF28E92C938895D29BA4
:1042A000FDCF8895D299FDCF688328E42C93708345
:1042B00000931E0D8895D29BFDCF8895D299FDCF96
:1042C000188228E02C93308320931E0D8895D29B72
:1042D000FDCF8895D299FDCF2EE6288328EC2C932C
:1042E00000931E0D8895D29BFDCF8895D299FDCF66
:1042F00068830C938895D29BFDCF8895D299FDCF8A
:104300001882708328E020931E0D8895D29BFDCFE4
:104310008895D299FDCF68832AE6208300931E0DED
:104320008895D29BFDCF8895D299FDCF28EC2C9310
:104330008895D29BFDCF8895D299FDCF188228E031
:104340002C9330838895D29BFDCF8895D299FDCF51
:10435000688328EC2C9370838895D29BFDCF889539
:10436000D299FDCF0C938895D29BFDCF8895D29999
:10437000FDCFE88228E72C9320921E0D8895D29BD2
:10438000FDCF8895D299FDCF2EE9288328E32C9381
:10439000308390921E0D8895D29BFDCF8895D2993F
:1043A000FDCF2EE5288328EF2C9320921E0D8895B3
:1043B000D29BFDCF8895D299FDCFE88228EB2C9334
:1043C0008895D29BFDCF8895D299FDCF2EE9288381
:1043D000708390921E0D8895D29BFDCF8895D299BF
:1043E000FDCFE8822AE6208320921E0D8895D29B7D
:1043F000FDCF8895D299FDCF28EF2C938895D29B3D
:10440000FDCF8895D299FDCF2EE9288328E32C9300
:1044100030838895D29BFDCF8895D299FDCFE882D5
:1044200028EF2C9370838895D29BFDCF8895D299E5
:10443000FDCF28EB2C938895D29BFDCF8895D29900
:10444000FDCF888328E62C938895D29BFDCF889555
:10445000D299FDCF48829C92308390921E0D889510
:10446000D29BFDCF8895D299FDCF2EE7288328EEE9
:104470002C9320921E0D8895D29BFDCF8895D299C2
:10448000FDCF88832C928895D29BFDCF8895D299B9
:10449000FDCF4882708390921E0D8895D29BFDCFF0
:1044A0008895D299FDCF88832AE6208320921E0D1D
:1044B0008895D29BFDCF8895D299FDCF28EE2C937D
:1044C0008895D29BFDCF8895D299FDCF48829C924A
:1044D00030838895D29BFDCF8895D299FDCF888374
:1044E0002C9370838895D29BFDCF8895D299FDCF70
:1044F0002C928895D29BFDCF8895D299FDCF688369
:1045000028E62C93308200931E0D8895D29BFDCF18
:104510008895D299FDCF18829C92A08228E02093A2
:104520001E0D8895D29BFDCF8895D299FDCF2EE6A2
:10453000288328EE2C9300931E0D8895D29BFDCFE7
:104540008895D299FDCF68832C928895D29BFDCF18
:104550008895D299FDCF1882308228E020931E0DD5
:104560008895D29BFDCF8895D299FDCF68832AE7A5
:10457000208300931E0D8895D29BFDCF8895D299FC
:10458000FDCF28EE2C938895D29BFDCF8895D299AC
:10459000FDCF18829C92A0828895D29BFDCF8895F2
:1045A000D299FDCF68832C9330828895D29BFDCF22
:1045B0008895D299FDCF2C928895D29BFDCF889576
:1045C000D299FDCF888328E62C932AED2083209270
:1045D0001E0D8895D29BFDCF8895D299FDCF48823C
:1045E0009C922AE9208390921E0D8895D29BFDCF44
:1045F0008895D299FDCF2EE7288328EE2C93209220
:104600001E0D8895D29BFDCF8895D299FDCF8883CA
:104610002C928895D29BFDCF8895D299FDCF488268
:104620002AED208390921E0D8895D29BFDCF889510
:10463000D299FDCF88832AE5208320921E0D88958C
:10464000D29BFDCF8895D299FDCF28EE2C938895EB
:10465000D29BFDCF8895D299FDCF48829C922AE9C2
:1046600020838895D29BFDCF8895D299FDCF8883F2
:1046700028EE2C932AED20838895D29BFDCF889538
:10468000D299FDCF2C928895D29BFDCF8895D29957
:10469000FDCF388228E52C93808320EA20931E0DDD
:1046A0008895D29BFDCF8895D299FDCFA88228E12D
:1046B0002C93408220E220931E0D8895D29BFDCF43
:1046C0008895D299FDCF2AE7288328ED2C9320EAFC
:1046D00020931E0D8895D29BFDCF8895D299FDCF52
:1046E000388228E92C938895D29BFDCF8895D29962
:1046F000FDCFA882808320E220931E0D8895D29B57
:10470000FDCF8895D299FDCF38822EE7208320EA0D
:1047100020931E0D8895D29BFDCF8895D299FDCF11
:1047200028ED2C938895D29BFDCF8895D299FDCF0B
:10473000A88228E12C9340828895D29BFDCF889552
:10474000D299FDCF388228ED2C9380838895D29B17
:10475000FDCF8895D299FDCF28E92C938895D29BDF
:10476000FDCF8895D299FDCF788328E42C93608380
:1047700020E820931E0D8895D29BFDCF8895D29975
:10478000FDCF388328E02C93108220E020931E0D6B
:104790008895D29BFDCF8895D299FDCF2AE62883B4
:1047A00028EC2C9320E820931E0D8895D29BFDCFFA
:1047B0008895D299FDCF78830C938895D29BFDCFB5
:1047C0008895D299FDCF3883608320E020931E0D19
:1047D0008895D29BFDCF8895D299FDCF78832EE620
:1047E000208320E820931E0D8895D29BFDCF8895CD
:1047F000D299FDCF28EC2C938895D29BFDCF88953C
:10480000D299FDCF388328E02C9310828895D29BD3
:10481000FDCF8895D299FDCF788328EC2C936083C7
:104820008895D29BFDCF8895D299FDCF0C93889522
:10483000D29BFDCF8895D299FDCF2AED288328E71A
:104840002C9320EA20931E0D8895D29BFDCF88954E
:10485000D299FDCF2AE9288328E32C93108220E205
:1048600020931E0D8895D29BFDCF8895D299FDCFC0
:104870002AE5288328EF2C9320EA20931E0D8895A3
:10488000D29BFDCF8895D299FDCF2AED288328EBC6
:104890002C938895D29BFDCF8895D299FDCF2AE99C
:1048A0002883608320E220931E0D8895D29BFDCF44
:1048B0008895D299FDCF2AED28832EE6208320EA21
:1048C00020931E0D8895D29BFDCF8895D299FDCF60
:1048D00028EF2C938895D29BFDCF8895D299FDCF58
:1048E0002AE9288328E32C9310828895D29BFDCF58
:1048F0008895D299FDCF2AED288328EF2C936083E9
:104900008895D29BFDCF8895D299FDCF28EB2C932B
:104910008895D29BFDCF8895D299FDCF388228E625
:104920002C938895D29BFDCF8895D299FDCFA882F4
:104930009C92108220E220931E0D8895D29BFDCF81
:104940008895D299FDCF2AE7288328EE2C9320EA78
:1049500020931E0D8895D29BFDCF8895D299FDCFCF
:1049600038822C928895D29BFDCF8895D299FDCF25
:10497000A882608320E220931E0D8895D29BFDCFF4
:104980008895D299FDCF38822EE6208320EA2093A5
:104990001E0D8895D29BFDCF8895D299FDCF28EE2C
:1049A0002C938895D29BFDCF8895D299FDCFA88274
:1049B0009C9210828895D29BFDCF8895D299FDCF8D
:1049C00038822C9360838895D29BFDCF8895D299AD
:1049D000FDCF2C928895D29BFDCF8895D299FDCFA3
:1049E000788328E62C93808320E820931E0D8895F9
:1049F000D29BFDCF8895D299FDCF38839C9240827F
:104A000020E020931E0D8895D29BFDCF8895D299EA
:104A1000FDCF2AE6288328EE2C9320E820931E0D54
:104A20008895D29BFDCF8895D299FDCF78832C9223
:104A30008895D29BFDCF8895D299FDCF388380830E
:104A400020E020931E0D8895D29BFDCF8895D299AA
:104A5000FDCF78832EE7208320E820931E0D8895D4
:104A6000D29BFDCF8895D299FDCF28EE2C938895C7
:104A7000D29BFDCF8895D299FDCF38839C924082FE
:104A80008895D29BFDCF8895D299FDCF78832C93C2
:104A900080838895D29BFDCF8895D299FDCF2C92AB
:104AA0008895D29BFDCF8895D299FDCF388228E694
:104AB0002C93E08220EA20931E0D8895D29BFDCF97
:104AC0008895D299FDCFA8829C922EE9208320E27E
:104AD00020931E0D8895D29BFDCF8895D299FDCF4E
:104AE0002AE7288328EE2C9320EA20931E0D889530
:104AF000D29BFDCF8895D299FDCF38822C92889594
:104B0000D29BFDCF8895D299FDCFA882E08220E28A
:104B100020931E0D8895D29BFDCF8895D299FDCF0D
:104B200038822EE5208320EA20931E0D8895D29BA3
:104B3000FDCF8895D299FDCF28EE2C938895D29BF6
:104B4000FDCF8895D299FDCFA8829C922EE9208333
:104B50008895D29BFDCF8895D299FDCF388228EEDB
:104B60002C93E0828895D29BFDCF8895D299FDCF7A
:104B70002C928895D29BFDCF8895D299FDCF8883C2
:104B800028E52C9326EF208320921E0D8895D29B3A
:104B9000FDCF8895D299FDCF488228E12C9326EB52
:104BA000208390921E0D8895D29BFDCF8895D29937
:104BB000FDCF2EE7288328ED2C9320921E0D88959B
:104BC000D29BFDCF8895D299FDCF888328E92C937D
:104BD0008895D29BFDCF8895D299FDCF488226EF4C
:104BE000208390921E0D8895D29BFDCF8895D299F7
:104BF000FDCF888326E7208320921E0D8895D29BC7
:104C0000FDCF8895D299FDCF28ED2C938895D29B26
:104C1000FDCF8895D299FDCF488228E12C9326EBD1
:104C200020838895D29BFDCF8895D299FDCF88832C
:104C300028ED2C9326EF20838895D29BFDCF889575
:104C4000D299FDCF28E92C938895D29BFDCF8895EA
:104C5000D299FDCF688328E42C9326EE208300931D
:104C60001E0D8895D29BFDCF8895D299FDCF1882D5
:104C700028E02C9326EA208328E020931E0D8895B7
:104C8000D29BFDCF8895D299FDCF2EE6288328ECC4
:104C90002C9300931E0D8895D29BFDCF8895D299B9
:104CA000FDCF68830C938895D29BFDCF8895D299D0
:104CB000FDCF188226EE208328E020931E0D8895D4
:104CC000D29BFDCF8895D299FDCF688326E62083BD
:104CD00000931E0D8895D29BFDCF8895D299FDCF6C
:104CE00028EC2C938895D29BFDCF8895D299FDCF47
:104CF000188228E02C9326EA20838895D29BFDCF4A
:104D00008895D299FDCF688328EC2C9326EE2083DA
:104D10008895D29BFDCF8895D299FDCF0C9388952D
:104D2000D29BFDCF8895D299FDCFE88228E72C93BE
:104D300020921E0D8895D29BFDCF8895D299FDCFEC
:104D40002EE9288328E32C9326EA208390921E0DD7
:104D50008895D29BFDCF8895D299FDCF2EE52883EB
:104D600028EF2C9320921E0D8895D29BFDCF88951D
:104D7000D299FDCFE88228EB2C938895D29BFDCF6A
:104D80008895D299FDCF2EE9288326EE2083909234
:104D90001E0D8895D29BFDCF8895D299FDCFE882D4
:104DA00026E6208320921E0D8895D29BFDCF889504
:104DB000D299FDCF28EF2C938895D29BFDCF889573
:104DC000D299FDCF2EE9288328E32C9326EA20836D
:104DD0008895D29BFDCF8895D299FDCFE88228EFA8
:104DE0002C9326EE20838895D29BFDCF8895D2996F
:104DF000FDCF28EB2C938895D29BFDCF8895D29937
:104E0000FDCF888328E62C938895D29BFDCF88958B
:104E1000D299FDCF48829C9226EA208390921E0D63
:104E20008895D29BFDCF8895D299FDCF2EE7288318
:104E300028EE2C9320921E0D8895D29BFDCF88954D
:104E4000D299FDCF88832C928895D29BFDCF8895EF
:104E5000D299FDCF488226EE208390921E0D889530
:104E6000D29BFDCF8895D299FDCF888326E62083FB
:104E700020921E0D8895D29BFDCF8895D299FDCFAB
:104E800028EE2C938895D29BFDCF8895D299FDCFA3
:104E900048829C9226EA20838895D29BFDCF8895F4
:104EA000D299FDCF888328EE2C9326EE2083889517
:104EB000D29BFDCF8895D299FDCF2C928895D29B1D
:104EC000FDCF8895D299FDCF688328E62C9326EFF5
:104ED000208300931E0D8895D29BFDCF8895D29993
:104EE000FDCF18829C9226EB208328E020931E0D94
:104EF0008895D29BFDCF8895D299FDCF2EE6288349
:104F000028EE2C9300931E0D8895D29BFDCF88959B
:104F1000D299FDCF68832C928895D29BFDCF88953E
:104F2000D299FDCF188226EF208328E020931E0D12
:104F30008895D29BFDCF8895D299FDCF688326E7CF
:104F4000208300931E0D8895D29BFDCF8895D29922
:104F5000FDCF28EE2C938895D29BFDCF8895D299D2
:104F6000FDCF18829C9226EB20838895D29BFDCFA3
:104F70008895D299FDCF688328EE2C9326EF208365
:104F80008895D29BFDCF8895D299FDCF2C9288959C
:104F9000D29BFDCF8895D299FDCF888328E62C93AC
:104FA00026ED208320921E0D8895D29BFDCF8895FB
:104FB000D299FDCF48829C9226E9208390921E0DC3
:104FC0008895D29BFDCF8895D299FDCF2EE7288377
:104FD00028EE2C9320921E0D8895D29BFDCF8895AC
:104FE000D299FDCF88832C928895D29BFDCF88954E
:104FF000D299FDCF488226ED208390921E0D889590
:10500000D29BFDCF8895D299FDCF888326E520835A
:1050100020921E0D8895D29BFDCF8895D299FDCF09
:1050200028EE2C938895D29BFDCF8895D299FDCF01
:1050300048829C9226E920838895D29BFDCF889553
:10504000D299FDCF888328EE2C9326ED2083889576
:10505000D29BFDCF8895D299FDCF2C928895D29B7B
:10506000FDCF8895D299FDCF2CE52C9326EF208398
:105070008895D29BFDCF8895D299FDCF48822CE1AF
:105080002C9326EB208390921E0D8895D29BFDCF0A
:105090008895D299FDCF2EE728832CED2C93209272
:1050A0001E0D8895D29BFDCF8895D299FDCF888320
:1050B0002CE92C938895D29BFDCF8895D299FDCF72
:1050C000488226EF208390921E0D8895D29BFDCFBB
:1050D0008895D299FDCF888326E7208320921E0DE4
:1050E0008895D29BFDCF8895D299FDCF2CED2C933E
:1050F0008895D29BFDCF8895D299FDCF48822CE12F
:105100002C9326EB20838895D29BFDCF8895D2994E
:10511000FDCF88832CED2C9326EF20838895D29B9E
:10512000FDCF8895D299FDCF2CE92C938895D29B01
:10513000FDCF8895D299FDCF68832CE42C9326EE81
:10514000208300931E0D8895D29BFDCF8895D29920
:10515000FDCF18822CE02C9326EA208328E02093B0
:105160001E0D8895D29BFDCF8895D299FDCF2EE656
:1051700028832CEC2C9300931E0D8895D29BFDCF99
:105180008895D299FDCF68832CE82C938895D29B83
:10519000FDCF8895D299FDCF188226EE208328E096
:1051A00020931E0D8895D29BFDCF8895D299FDCF77
:1051B000688326E6208300931E0D8895D29BFDCF41
:1051C0008895D299FDCF2CEC2C938895D29BFDCF5E
:1051D0008895D299FDCF18822CE02C9326EA208363
:1051E0008895D29BFDCF8895D299FDCF68832CEC12
:1051F0002C9326EE20838895D29BFDCF8895D2995B
:10520000FDCF2CE82C938895D29BFDCF8895D29921
:10521000FDCFE8822CE72C9320921E0D8895D29B1F
:10522000FDCF8895D299FDCF2EE928832CE32C93CE
:1052300026EA208390921E0D8895D29BFDCF8895FB
:10524000D299FDCF2EE528832CEF2C9320921E0DB2
:105250008895D29BFDCF8895D299FDCFE8822CEB23
:105260002C938895D29BFDCF8895D299FDCF2EE9BE
:10527000288326EE208390921E0D8895D29BFDCF29
:105280008895D299FDCFE88226E6208320921E0DD4
:105290008895D29BFDCF8895D299FDCF2CEF2C938A
:1052A0008895D29BFDCF8895D299FDCF2EE9288392
:1052B0002CE32C9326EA20838895D29BFDCF8895FA
:1052C000D299FDCFE8822CEF2C9326EE208388958F
:1052D000D29BFDCF8895D299FDCF2CEB2C9388954E
:1052E000D29BFDCF8895D299FDCF88832CE62C9355
:1052F0008895D29BFDCF8895D299FDCF48822CE22C
:105300002C9326EA208390921E0D8895D29BFDCF88
:105310008895D299FDCF2EE728832CEE2C932092EE
:105320001E0D8895D29BFDCF8895D299FDCF88839D
:105330002CEA2C938895D29BFDCF8895D299FDCFEE
:10534000488226EE208390921E0D8895D29BFDCF39
:105350008895D299FDCF888326E6208320921E0D62
:105360008895D29BFDCF8895D299FDCF2CEE2C93BA
:105370008895D29BFDCF8895D299FDCF48822CE2AB
:105380002C9326EA20838895D29BFDCF8895D299CD
:10539000FDCF88832CEE2C9326EE20838895D29B1C
:1053A000FDCF8895D299FDCF2CEA2C938895D29B7E
:1053B000FDCF8895D299FDCF68832CE62C9326EFFC
:1053C000208300931E0D8895D29BFDCF8895D2999E
:1053D000FDCF18822CE22C9326EB208328E020932B
:1053E0001E0D8895D29BFDCF8895D299FDCF2EE6D4
:1053F00028832CEE2C9300931E0D8895D29BFDCF15
:105400008895D299FDCF68832CEA2C938895D29BFE
:10541000FDCF8895D299FDCF188226EF208328E012
:1054200020931E0D8895D29BFDCF8895D299FDCFF4
:10543000688326E7208300931E0D8895D29BFDCFBD
:105440008895D299FDCF2CEE2C938895D29BFDCFD9
:105450008895D299FDCF18822CE22C9326EB2083DD
:105460008895D29BFDCF8895D299FDCF68832CEE8D
:105470002C9326EF20838895D29BFDCF8895D299D7
:10548000FDCF2CEA2C938895D29BFDCF8895D2999D
:10549000FDCF88832CE62C9326ED208320921E0DD1
:1054A0008895D29BFDCF8895D299FDCF48822CE27A
:1054B0002C9326E9208390921E0D8895D29BFDCFD8
:1054C0008895D299FDCF2EE728832CEE2C9320923D
:1054D0001E0D8895D29BFDCF8895D299FDCF8883EC
:1054E0002CEA2C938895D29BFDCF8895D299FDCF3D
:1054F000488226ED208390921E0D8895D29BFDCF89
:105500008895D299FDCF888326E5208320921E0DB1
:105510008895D29BFDCF8895D299FDCF2CEE2C9308
:105520008895D29BFDCF8895D299FDCF48822CE2F9
:105530002C9326E920838895D29BFDCF8895D2991C
:10554000FDCF88832CEE2C9326ED20838895D29B6B
:10555000FDCF8895D299FDCF2CEA2C938895D29BCC
:10556000FDCF8895D299FDCF388220E52C933082EB
:105570008895D29BFDCF8895D299FDCFA88220E156
:105580002C93A08290921E0D8895D29BFDCF88957A
:10559000D299FDCF2AE7288320ED2C9320921E0D6F
:1055A0008895D29BFDCF8895D299FDCF388220E98E
:1055B0002C938895D29BFDCF8895D299FDCFA88258
:1055C000308290921E0D8895D29BFDCF8895D299FE
:1055D000FDCF38822AE7208320921E0D8895D29B2A
:1055E000FDCF8895D299FDCF20ED2C938895D29B45
:1055F000FDCF8895D299FDCFA88220E12C93A0827F
:105600008895D29BFDCF8895D299FDCF388220ED29
:105610002C9330828895D29BFDCF8895D299FDCF6F
:1056200020E92C938895D29BFDCF8895D299FDCF08
:10563000788320E42C93708300931E0D8895D29B71
:10564000FDCF8895D299FDCF388320E02C9330830D
:1056500028E020931E0D8895D29BFDCF8895D29986
:10566000FDCF2AE6288320EC2C9300931E0D88950D
:10567000D29BFDCF8895D299FDCF788320E82C93DB
:105680008895D29BFDCF8895D299FDCF38837083C2
:1056900028E020931E0D8895D29BFDCF8895D29946
:1056A000FDCF78832AE6208300931E0D8895D29B38
:1056B000FDCF8895D299FDCF20EC2C938895D29B75
:1056C000FDCF8895D299FDCF388320E02C9330838D
:1056D0008895D29BFDCF8895D299FDCF788320EC19
:1056E0002C9370838895D29BFDCF8895D299FDCF5E
:1056F00020E82C938895D29BFDCF8895D299FDCF39
:105700002AED288320E72C9320921E0D8895D29BAA
:10571000FDCF8895D299FDCF2AE9288320E32C93E9
:10572000308390921E0D8895D29BFDCF8895D2999B
:10573000FDCF2AE5288320EF2C9320921E0D88951B
:10574000D29BFDCF8895D299FDCF2AED288320EBFF
:105750002C938895D29BFDCF8895D299FDCF2AE9CD
:105760002883708390921E0D8895D29BFDCF8895DB
:10577000D299FDCF2AED28832AE6208320921E0DA0
:105780008895D29BFDCF8895D299FDCF20EF2C93A1
:105790008895D29BFDCF8895D299FDCF2AE92883A1
:1057A00020E32C9330838895D29BFDCF8895D299A6
:1057B000FDCF2AED288320EF2C9370838895D29B10
:1057C000FDCF8895D299FDCF20EB2C938895D29B65
:1057D000FDCF8895D299FDCF388220E62C9388950D
:1057E000D29BFDCF8895D299FDCFA88220E22C9341
:1057F000308390921E0D8895D29BFDCF8895D299CB
:10580000FDCF2AE7288320EE2C9320921E0D889549
:10581000D29BFDCF8895D299FDCF388220EA2C9378
:105820008895D29BFDCF8895D299FDCFA8827083B1
:1058300090921E0D8895D29BFDCF8895D299FDCF71
:1058400038822AE6208320921E0D8895D29BFDCFB8
:105850008895D299FDCF20EE2C938895D29BFDCFD1
:105860008895D299FDCFA88220E22C933083889529
:10587000D29BFDCF8895D299FDCF388220EE2C9314
:1058800070838895D29BFDCF8895D299FDCF20EA71
:105890002C938895D29BFDCF8895D299FDCF7883A4
:1058A00020E62C93308200931E0D8895D29BFDCF6D
:1058B0008895D299FDCF388320E22C93A08228E0EE
:1058C00020931E0D8895D29BFDCF8895D299FDCF50
:1058D0002AE6288320EE2C9300931E0D8895D29BF8
:1058E000FDCF8895D299FDCF788320EA2C938895B7
:1058F000D29BFDCF8895D299FDCF3883308228E0A6
:1059000020931E0D8895D29BFDCF8895D299FDCF0F
:1059100078832AE7208300931E0D8895D29BFDCFC4
:105920008895D299FDCF20EE2C938895D29BFDCF00
:105930008895D299FDCF388320E22C93A082889558
:10594000D29BFDCF8895D299FDCF788320EE2C9302
:1059500030828895D29BFDCF8895D299FDCF20EAE1
:105960002C938895D29BFDCF8895D299FDCF388214
:1059700020E62C932AED208320921E0D8895D29B41
:10598000FDCF8895D299FDCFA88220E22C932AE9F9
:10599000208390921E0D8895D29BFDCF8895D29939
:1059A000FDCF2AE7288320EE2C9320921E0D8895A8
:1059B000D29BFDCF8895D299FDCF388220EA2C93D7
:1059C0008895D29BFDCF8895D299FDCFA8822AEDEC
:1059D000208390921E0D8895D29BFDCF8895D299F9
:1059E000FDCF38822AE5208320921E0D8895D29B18
:1059F000FDCF8895D299FDCF20EE2C938895D29B30
:105A0000FDCF8895D299FDCFA88220E22C932AE978
:105A100020838895D29BFDCF8895D299FDCF38827F
:105A200020EE2C932AED20838895D29BFDCF88957C
:105A3000D299FDCF20EA2C938895D29BFDCF8895F3
:105A4000D299FDCF88832CE52C9380838895D29BB7
:105A5000FDCF8895D299FDCF48822CE12C934082CE
:105A600090921E0D8895D29BFDCF8895D299FDCF3F
:105A70002EE728832CED2C9320921E0D8895D29B27
:105A8000FDCF8895D299FDCF88832CE92C938895FA
:105A9000D29BFDCF8895D299FDCF4882808390928A
:105AA0001E0D8895D29BFDCF8895D299FDCF888316
:105AB0002EE7208320921E0D8895D29BFDCF8895DE
:105AC000D299FDCF2CED2C938895D29BFDCF889554
:105AD000D299FDCF48822CE12C9340828895D29BAD
