:100000000C947E000C9497000C94E8070C949700D5
:100010000C9497000C9497000C9497000C94970004
:100020000C9497000C9497000C9497000C949700F4
:100030000C9497000C9497000C9497000C949700E4
:100040000C9497000C9497000C9497000C949700D4
:100050000C9497000C9497000C9497000C949700C4
:100060000C9497000C9497000C9497000C949700B4
:100070000C9497000C9497000C9497000C949700A4
:100080000C9497000C9497000C9497000C94970094
:100090000C9497000C9497000C9497000C94E9072B
:1000A0000C9497000C9497000C9497000C94970074
:1000B0000C9497000C9497000C9497000C94970064
:1000C0000C9497000C9497000C9497000C94970054
:1000D0000C9497000C9497007B0773077B074707E6
:1000E0007B0747077B077B0747077B0747077B079C
:1000F0000C9473070C9447070C947B0711241FBEC4
:10010000CFEFCDBFDFE3DEBF00E00CBF10E2A0E029
:10011000B0E2E6EEF5E300E00BBF02C007900D92FF
:10012000A23CB107D9F70E94560C0C94F11A0C941A
:1001300000008091000D82608093000D8895809171
:10014000000D8D7F8093000D8895F3CFE0E0FDE0FA
:10015000808186688083E3E1FDE080818160808327
:10016000EFE1FDE08081816080830E949900DC01E5
:100170003C91832F82958F7026E0829F3019112445
:1001800011962C911197822F82958F7046E0849F53
:100190002019112412969C911297892F82958F70A5
:1001A00056E0859F9019112414965C911497852F21
:1001B00082958F7066E0869F5019112415964C9198
:1001C0001597842F82958F7076E0879F40191124B0
:1001D00016968C91682F62956F7076E0679F8019F4
:1001E00011246DEC869F612D1124669566956695A8
:1001F000E82F7AE0679FE0191124F0E0E954FF4D01
:100200006081E62F60FDE8C26091110D6B7F609305
:10021000110D6091150DE1FDE8C26B7F6093150D26
:100220006091190DE2FDE8C26B7F6093190D60913A
:100230001D0DE3FDE8C2677F60931D0D6091190DF0
:10024000E4FDE8C2677F6093190D6091110DE5FD33
:10025000E8C2677F6093110D6091150DE6FFE8C25B
:1002600068606093150DEDEC8E9FE12D1124E695ED
:10027000E695E695F0E0E954FF4D8081682F80FD1A
:100280001FC48091110D8E7F8093110D8091150DEB
:1002900061FD12C48E7F8093150D8091190D62FD52
:1002A00007C48E7F8093190D80911D0D63FDFCC3E3
:1002B0008D7F80931D0D8091190D64FDF1C38D7F9D
:1002C0008093190D8091110D65FDE6C38D7F80939C
:1002D000110D8091150D66FFDBC382608093150DB3
:1002E0008DEC589F812D1124869586958695E52F56
:1002F0006AE0869FE0191124F0E0E954FF4D808107
:10030000682F80FDBFC38091100D8F7B8093100DEF
:100310008091140D61FDB2C38F7B8093140D809189
:10032000180D62FDA7C38F7B8093180D80911C0D63
:1003300063FD9CC38F7780931C0D8091180D64FD25
:1003400091C38F778093180D8091100D65FD86C342
:100350008F778093100D8091140D66FF7BC38068AA
:100360008093140DEDEC5E9FE12D1124E695E6954A
:10037000E695F0E0E954FF4D8081682F80FD64C36D
:100380008091100D8F7E8093100D8091140D61FD72
:1003900057C38F7E8093140D8091180D62FD4CC35E
:1003A0008F7E8093180D80911C0D63FD41C38F7D5E
:1003B00080931C0D8091180D64FD36C38F7D809352
:1003C000180D8091100D65FD2BC38F7D8093100D4E
:1003D0008091140D66FF20C380628093140D8DEC14
:1003E000489F812D1124869586958695E42F7AE085
:1003F000879FE0191124F0E0E954FF4D8081682FB8
:1004000080FD04C38091100D8B7F8093100D80912F
:10041000140D61FDF7C28B7F8093140D8091180D30
:1004200062FDECC28B7F8093180D80911C0D63FDE3
:10043000E1C2877F80931C0D8091180D64FDD6C2A8
:10044000877F8093180D8091100D65FDCBC2877F4B
:100450008093100D8091140D66FFC0C28860809358
:10046000140DEDEC4E9FE12D1124E695E695E695F1
:10047000F0E0E954FF4D8081482F80FDA9C28091B2
:10048000100D8E7F8093100D8091140D41FD9CC244
:100490008E7F8093140D8091180D42FD91C28E7F46
:1004A0008093180D80911C0D43FD86C28D7F809333
:1004B0001C0D8091180D44FD7BC28D7F8093180D1B
:1004C0008091100D45FD70C28D7F8093100D80913D
:1004D000140D46FF65C282608093140D8DEC389F29
:1004E000812D1124869586958695E32F4AE0849F79
:1004F000E0191124F0E0E954FF4D8081482F80FD80
:1005000049C28091120D8F7B8093120D8091160D40
:1005100041FD3CC28F7B8093160D80911A0D42FDE8
:1005200031C28F7B80931A0D80911E0D43FD26C230
:100530008F7780931E0D80911A0D44FD1BC28F771B
:1005400080931A0D8091120D45FD10C28F77809314
:10055000120D8091160D46FF05C280688093160D1E
:10056000EDEC3E9FE12D1124E695E695E695F0E051
:10057000E954FF4D8081482F80FDEEC18091120D1E
:100580008F7E8093120D8091160D41FDE1C18F7E0B
:100590008093160D80911A0D42FDD6C18F7E8093F7
:1005A0001A0D80911E0D43FDCBC18F7D80931E0DD2
:1005B00080911A0D44FDC0C18F7D80931A0D8091EA
:1005C000120D45FDB5C18F7D8093120D8091160DE2
:1005D00046FFAAC180628093160D8DEC289F812D65
:1005E0001124869586958695E22F5AE0859FE0191D
:1005F0001124F0E0E954FF4D8081482F80FD8EC129
:100600008091120D8B7F8093120D8091160D41FD0C
:1006100081C18B7F8093160D80911A0D42FD76C1AA
:100620008B7F80931A0D80911E0D43FD6BC1877FD8
:1006300080931E0D80911A0D44FD60C1877F8093C9
:100640001A0D8091120D45FD55C1877F8093120DC3
:100650008091160D46FF4AC188608093160DEDEC1F
:100660002E9FE12D1124E695E695E695F0E0E954FC
:10067000FF4D8081282F80FD33C18091120D8E7F28
:100680008093120D8091160D21FD26C18E7F8093DF
:10069000160D80911A0D22FD1BC18E7F80931A0DBD
:1006A00080911E0D23FD10C18D7F80931E0D8091C2
:1006B0001A0D24FD05C18D7F80931A0D8091120DB6
:1006C00025FDFAC08D7F8093120D8091160D26FFB7
:1006D000EFC082608093160D8DEC989F812D1124C0
:1006E000869586958695E92F6AE0869FE019112404
:1006F000F0E0E954FF4D8081282F80FDD3C0809128
:10070000110D8F7B8093110D8091150D21FDC6C0B9
:100710008F7B8093150D8091190D22FDBBC08F7BBF
:100720008093190D80911D0D23FDB0C08F778093AC
:100730001D0D8091190D24FDA5C08F778093190D93
:100740008091110D25FD9AC08F778093110D8091B6
:10075000150D26FF8FC080688093150DEDEC9E9FD0
:10076000E12D1124E695E695E695F0E0E954FF4D7C
:100770008081282F80FD78C08091110D8F7E80931D
:10078000110D8091150D21FD6BC08F7E8093150D8D
:100790008091190D22FD60C08F7E8093190D80918C
:1007A0001D0D23FD55C08F7D80931D0D8091190D6A
:1007B00024FD4AC08F7D8093190D8091110D25FD78
:1007C0003FC08F7D8093110D8091150D26FF34C0A1
:1007D00080628093150D08956091110D646060939F
:1007E000110D6091150DE1FF18CD64606093150D3A
:1007F0006091190DE2FF18CD64606093190D60914E
:100800001D0DE3FF18CD686060931D0D6091190DFB
:10081000E4FF18CD68606093190D6091110DE5FF3C
:1008200018CD68606093110D6091150DE6FD18CD2F
:10083000677F6093150D17CD8F7D8093150D0895FB
:1008400080628093110DC0CF80628093190DB5CF67
:10085000806280931D0DAACF80618093190D9FCF78
:1008600080618093150D94CF8091110D80618093EC
:10087000110D87CF8F778093150D70CF806880938F
:10088000110D65CF80688093190D5ACF80688093D1
:100890001D0D4FCF80648093190D44CF80648093E9
:1008A000150D39CF8091110D80648093110D2CCFDF
:1008B0008D7F8093160D10CF82608093120D05CF2F
:1008C000826080931A0DFACE826080931E0DEFCE67
:1008D000816080931A0DE4CE81608093160DD9CE8D
:1008E0008091120D81608093120DCCCE877F809312
:1008F000160DB5CE88608093120DAACE88608093C5
:100900001A0D9FCE886080931E0D94CE84608093D4
:100910001A0D89CE84608093160D7ECE8091120DC3
:1009200084608093120D71CE8F7D8093160D55CE0D
:1009300080628093120D4ACE806280931A0D3FCE62
:10094000806280931E0D34CE806180931A0D29CE73
:1009500080618093160D1ECE8091120D8061809370
:10096000120D11CE8F778093160DFACD806880938B
:10097000120DEFCD806880931A0DE4CD80688093CE
:100980001E0DD9CD806480931A0DCECD80648093E6
:10099000160DC3CD8091120D80648093120DB6CDDB
:1009A0008D7F8093140D9ACD82608093100D8FCD32
:1009B00082608093180D84CD826080931C0D79CD68
:1009C00081608093180D6ECD81608093140D63CD8E
:1009D0008091100D81608093100D56CD877F80939C
:1009E000140D3FCD88608093100D34CD88608093C6
:1009F000180D29CD886080931C0D1ECD84608093D6
:100A0000180D13CD84608093140D08CD8091100DC6
:100A100084608093100DFBCC8F7D8093140DDFCC10
:100A200080628093100DD4CC80628093180DC9CC65
:100A3000806280931C0DBECC80618093180DB3CC76
:100A400080618093140DA8CC8091100D80618093FB
:100A5000100D9BCC8F778093140D84CC806880938D
:100A6000100D79CC80688093180D6ECC80688093CF
:100A70001C0D63CC80648093180D58CC80648093E7
:100A8000140D4DCC8091100D80648093100D40CCDE
:100A90008D7F8093150D24CC82608093110D19CC2D
:100AA00082608093190D0ECC826080931D0D03CC63
:100AB00081608093190DF8CB81608093150DEDCB8B
:100AC0008091110D81608093110DE0CBE62FF0E055
:100AD000E954FF4D4081242F90E0880F991FFC01BD
:100AE000EE0FFF1FEE0FFF1FEE0FFF1FE81BF90BAE
:100AF000E15FFF4D518140FD09C14081E52FE69541
:100B0000E695E695F0E064E0469FE00DF11D1124C6
:100B1000E05FF24F7081652F677041E050E001C0E7
:100B2000440F6A95EAF7409547234083FC01EE0F96
:100B3000FF1FEE0FFF1FEE0FFF1FE81BF90BE15F1A
:100B4000FF4D5381E281F0E0EE0FFF1FEE0FFF1F1C
:100B5000452F469546954695E40FF11DE05FF24F0F
:100B60007081652F677041E050E001C0440F6A95C5
:100B7000EAF721FDFDC0409547234083FC01EE0FBD
:100B8000FF1FEE0FFF1FEE0FFF1FE81BF90BE15FCA
:100B9000FF4D5581E481F0E0EE0FFF1FEE0FFF1FC8
:100BA000452F469546954695E40FF11DE05FF24FBF
:100BB0007081652F677041E050E001C0440F6A9575
:100BC000EAF722FDD2C0409547234083FC01EE0F97
:100BD000FF1FEE0FFF1FEE0FFF1FE81BF90BE15F7A
:100BE000FF4D5781E681F0E0EE0FFF1FEE0FFF1F74
:100BF000452F469546954695E40FF11DE05FF24F6F
:100C00007081652F677041E050E001C0440F6A9524
:100C1000EAF723FDA7C0409547234083FC01EE0F70
:100C2000FF1FEE0FFF1FEE0FFF1FE81BF90BE15F29
:100C3000FF4D5185E085F0E0EE0FFF1FEE0FFF1F27
:100C4000452F469546954695E40FF11DE05FF24F1E
:100C50007081652F677041E050E001C0440F6A95D4
:100C6000EAF724FD7CC0409547234083FC01EE0F4A
:100C7000FF1FEE0FFF1FEE0FFF1FE81BF90BE15FD9
:100C8000FF4D5385E285F0E0EE0FFF1FEE0FFF1FD3
:100C9000452F469546954695E40FF11DE05FF24FCE
:100CA0007081652F677041E050E001C0440F6A9584
:100CB000EAF725FD51C0409547234083FC01EE0F24
:100CC000FF1FEE0FFF1FEE0FFF1FE81BF90BE15F89
:100CD000FF4D9585E485F0E0EE0FFF1FEE0FFF1F3F
:100CE000892F869586958695E80FF11DE05FF24F76
:100CF000308126FF25C0292F277081E090E001C0B8
:100D0000880F2A95EAF7832B80830895E081F0E02D
:100D1000EE0FFF1FEE0FFF1F452F46954695469598
:100D2000E40FF11DE05FF24F7081652F677041E0C5
:100D300050E001C0440F6A95EAF7472B4083F6CE96
:100D4000292F277081E090E001C0880F2A95EAF7EB
:100D50008095832380830895472B4083AFCF472B13
:100D6000408384CF472B408359CF472B40832ECFDE
:100D7000472B408303CFBF92CF92DF92EF92FF9237
:100D80000F931F93CF93DF938C01EB018881982FF2
:100D900092959F7026E0929F80191124F80180831C
:100DA0008981982F92959F70F6E09F9F801911245A
:100DB000F80181838A81982F92959F70F6E09F9F1A
:100DC00080191124F8018283BD80EE812F818B2D43
:100DD00082958F70F6E08F9FB01811248E2F829528
:100DE0008F7096E0899FE0191124822F82958F7071
:100DF000F6E08F9F20191124269530E0ADEABEE879
:100E00000E94E21AAB01BC01EE2339F180E00BC075
:100E1000FC2D3D2D2E2D9F2D4F2F532F622F792FDF
:100E20008F5FE817D1F06A017B012EE6C20E21E048
:100E3000D21EE11CF11C43595E4F6F4F7F4F982F1C
:100E4000937031F3F42F352F262F972F4F2F532FD9
:100E5000622F792F8F5FE813E6CF81E08B1510F5B5
:100E6000E37069F48DE1C82ED12CE12CF12C21E046
:100E7000822F90E0FC013197EC30F10510F08CE10D
:100E8000F2CF8827E459FF4F8F4F0C94DA1A8EE186
:100E900090E0A0E0B0E0480F591F6A1F7B1F2F5F52
:100EA0002B1530F38C81982F92959F70E6E09E9FD2
:100EB0008019112490E0A0E0B0E00197A109B109E8
:100EC000480F591F6A1F7B1FF801438354836583B2
:100ED0007683DF91CF911F910F91FF90EF90DF907C
:100EE000CF90BF9008954C0D5D1D6E1D7F1DF3E0EA
:100EF000FB15C0F623E08FE190E0A0E0B0E0CBCF9F
:100F0000FC019681892F82958F7026E0829F90192F
:100F10001124943608F054C02581822F82958F7059
:100F200036E0839F201911248FEF820F8C3008F058
:100F300047C03481832F82958F7046E0849F30199B
:100F40001124832F332309F43CC0263009F43CC01C
:100F500030F42230B9F59370C9F59DE105C0293010
:100F600099F12B3089F19FE1981750F18781982FE3
:100F700092959F7026E0929F80191124853100F58B
:100F80008081982F92959F7036E0939F801911244D
:100F90008C33B0F48181982F92959F7046E0949F96
:100FA000801911248C3360F48281982F92959F7060
:100FB00026E0929F80191124982F81E0983108F043
:100FC00080E00895243079F69EE1CECF9CE1CCCF2D
:100FD00018951895282F80FF1FC04EE0649FF001E0
:100FE0001124E15FFF4D91818081E92FE695E6951F
:100FF000E695F0E044E0849FE00DF11D1124E05FF0
:10100000F24F5081492F477081E090E001C0880F76
:101010004A95EAF7852B808321FF1FC08EE0689FE9
:10102000F0011124E15FFF4D93818281E92FE69564
:10103000E695E695F0E044E0849FE00DF11D112473
:10104000E05FF24F5081492F477081E090E001C08E
:10105000880F4A95EAF7852B808322FF1FC08EE018
:10106000689FF0011124E15FFF4D95818481E92F94
:10107000E695E695E695F0E044E0849FE00DF11DED
:101080001124E05FF24F5081492F477081E090E0DA
:1010900001C0880F4A95EAF7852B808323FF1FC084
:1010A0008EE0689FF0011124E15FFF4D97818681FA
:1010B000E92FE695E695E695F0E044E0849FE00DA3
:1010C000F11D1124E05FF24F5081492F477081E0FC
:1010D00090E001C0880F4A95EAF7852B808324FFB2
:1010E0001FC08EE0689FF0011124E15FFF4D9185E4
:1010F0008085E92FE695E695E695F0E044E0849F4B
:10110000E00DF11D1124E05FF24F5081492F47702F
:1011100081E090E001C0880F4A95EAF7852B808333
:1011200025FF1FC08EE0689FF0011124E15FFF4D95
:1011300093858285E92FE695E695E695F0E044E013
:10114000849FE00DF11D1124E05FF24F5081492F83
:10115000477081E090E001C0880F4A95EAF7852B3F
:10116000808326FF1FC08EE0689FF0011124E15F9D
:10117000FF4D95858485E92FE695E695E695F0E0A7
:1011800024E0829FE00DF11D1124E05FF24F3081D9
:10119000292F277081E090E001C0880F2A95EAF797
:1011A000832B80830895C82F6BE08FE40E94EA07A9
:1011B0006AE08FE40E94EA0769E08EE50E94EA0790
:1011C00068E082E40E94EA0767E083E60E94EA079B
:1011D00065E08FE40E94EA0764E082E40E94EA0787
:1011E00063E082E40E94EA0762E083E60E94EA0785
:1011F00061E082E40E94EA07EC2FF0E0E954FF4D41
:101200002081822F20FF05C02091120D20642093A1
:10121000120D81FF05C02091160D20642093160D3C
:1012200082FF05C020911A0D206420931A0D83FFC0
:1012300005C020911E0D206820931E0D84FF05C05F
:1012400020911A0D206820931A0D85FF05C020916A
:10125000120D20682093120D86FF05C08091160D97
:1012600080688093160D0E94990028E030E090E895
:1012700061E042E011C06093420600C000C000007F
:1012800052E04093420600C000C000004093410677
:1012900096952150310931F0582F592361F7609309
:1012A0004106EBCF81E08093420600C000C0000001
:1012B0005093420600C000C0000080914806509341
:1012C000410600C000C00000817008952EE0829F9A
:1012D000C0011124FC01E15FFF4D8181A081B0E0DC
:1012E000AA0FBB1FAA0FBB1F982F96959695969590
:1012F000A90FB11DA05FB24F4C91282F277081E03C
:1013000090E0BC0102C0660F771F2A95E2F79B01AF
:10131000242B2C932381A281B0E0AA0FBB1FAA0F1C
:10132000BB1F322F369536953695A30FB11DA05FA2
:10133000B24F4C912770BC0102C0660F771F2A95EF
:10134000E2F79B01242B2C932581A481B0E0AA0F06
:10135000BB1FAA0FBB1F322F369536953695A30FAC
:10136000B11DA05FB24F4C912770BC0102C0660F47
:10137000771F2A95E2F79B01242B2C932781A681C6
:10138000B0E0AA0FBB1FAA0FBB1F322F36953695B0
:101390003695A30FB11DA05FB24F4C912770BC01D1
:1013A00002C0660F771F2A95E2F79B01242B2C932E
:1013B0002185A085B0E0AA0FBB1FAA0FBB1F322F4B
:1013C000369536953695A30FB11DA05FB24F4C915F
:1013D0002770BC0102C0660F771F2A95E2F79B01B8
:1013E000242B2C932385A285B0E0AA0FBB1FAA0F44
:1013F000BB1F322F369536953695A30FB11DA05FD2
:10140000B24F4C912770BC0102C0660F771F2A951E
:10141000E2F79B01242B2C932585E485F0E0EE0F69
:10142000FF1FEE0FFF1F322F369536953695E30FCF
:10143000F11DE05FF24F3081277001C0880F2A95BF
:10144000EAF780958323808308950F931F93CF93AA
:10145000DF93D82F8B01C42F00C000C0000081E0B3
:101460008093410600C000C0000082E080934106E6
:1014700084E60E9435098D2F0E943509AFEFAC0F2D
:10148000CC23B9F1F801B0E01196A00FB11F61E0D3
:1014900071E092E0519128E030E080E810C0609364
:1014A000420600C000C000009093420600C000C089
:1014B00000009093410686952150310931F0482F64
:1014C000452369F760934106ECCF7093420600C054
:1014D00000C000009093420600C000C00000809150
:1014E00048069093410600C000C00000EA17FB07C1
:1014F00089F681E08093410600C000C0000092E0C0
:101500009093420600C000C000008093420600C0D5
:1015100000C0000080E0DF91CF911F910F910895EE
:1015200000C000C0000021E02093410600C000C0C0
:10153000000022E02093410648E050E020E871E0FE
:1015400032E011C07093420600C000C0000062E0AB
:101550003093420600C000C000003093410626953B
:101560004150510931F0622F647661F77093410662
:10157000EBCF21E02093420600C000C00000609342
:10158000420600C000C0000020914806609341065A
:1015900000C000C0000028E030E071E042E061E0FF
:1015A0007093410600C000C0000052E04093420624
:1015B00000C000C00000409341062150310979F776
:1015C0006093420600C000C000005093420600C075
:1015D00000C00000209148065093410600C000C0A2
:1015E00000005093420600C000C0000000C000C0D0
:1015F00000006093410600C000C000005093410607
:1016000048E050E020E871E032E011C070934206FB
:1016100000C000C0000062E03093420600C000C07D
:1016200000003093410626954150510931F0622F58
:10163000657661F770934106EBCF21E02093420677
:1016400000C000C000006093420600C000C000005F
:10165000209148066093410600C000C00000FC01D4
:10166000BC01685F7F4F32E0A1E088E090E020E8B5
:1016700050E03093420600C000C000004091480690
:1016800040FD522B42E03093410600C000C00000F4
:101690002695019771F751936E177F07C9F4409310
:1016A000420600C000C000004093410681E08093E4
:1016B000410600C000C000004093420600C000C0C8
:1016C00000008093420600C000C0000080E0089542
:1016D000A093410600C000C000003093420600C045
:1016E00000C000003093410600C000C00000A0937D
:1016F000420600C000C00000B8CFFC0100C000C01E
:10170000000081E08093410600C000C0000082E03C
:101710008093410628E030E090E851E011C05093FA
:10172000420600C000C0000042E08093420600C0B4
:1017300000C000008093410696952150310931F098
:10174000492F447661F750934106EBCF81E08093B7
:10175000420600C000C000004093420600C000C026
:101760000000809148064093410600C000C0000080
:1017700028E030E090E851E011C05093420600C0EC
:1017800000C0000082E04093420600C000C000009C
:101790004093410696952150310931F0892F8E7082
:1017A00061F750934106EBCF91E09093420600C061
:1017B00000C000008093420600C000C000002091DD
:1017C00048068093410600C000C000008093420696
:1017D00000C000C0000000C000C00000909341069F
:1017E00000C000C000008093410628E030E090E88F
:1017F00051E042E011C05093420600C000C000001A
:1018000082E04093420600C000C0000040934106C1
:1018100096952150310931F0892F857661F75093E3
:101820004106EBCF91E09093420600C000C000005B
:101830008093420600C000C000009091480680934B
:10184000410600C000C0000028E030E090E860E001
:1018500042E04093420600C000C00000509148069C
:1018600050FD692B82E04093410600C000C000009B
:1018700096952150310969F760838093420600C034
:1018800000C000008093410691E09093410600C0A3
:1018900000C000008093420600C000C0000090938A
:1018A000420600C000C0000080E00895CF93DF939F
:1018B000CDB7DEB7A297CDBFDEBF21E020934300B6
:1018C00087E08093300680933106809333068093BF
:1018D00034068093350680933606809354068093B1
:1018E0005506809356068093D0068093D106809348
:1018F000D2068093D3068093D4068093D506809336
:10190000D6068093D70680937007809371078093E3
:101910007207809373078093740780937507809391
:10192000770790914A069F7790934A0680935706CF
:1019300088E18093500680935106809352068093ED
:10194000530692E09093CA01E0E2F0E0E491109235
:10195000CA01E0934C029093CA01E1E2F0E0E49105
:101960001092CA01E0934D0284E18093410290936A
:1019700042021092600280E18093610283E08093D2
:10198000720087E5809370008FE5809373008093E9
:10199000750038ED34BF2093960084E08093000DED
:1019A00088EF8093010D8FE38093020D8091000DED
:1019B00086688093000D1092070D34BF8091A200BD
:1019C00081608093A20080914800817F866080932F
:1019D00048008091480081608093480080916006B3
:1019E00081608093600680916006826080936006CB
:1019F00080E88093210680932506909332062093F9
:101A0000290680912A06846080932A067894809122
:101A1000160D80688093160D8091160D806280935C
:101A2000160D8091160D88608093160D8091160D0D
:101A300082608093160D8091150D80688093150D3E
:101A40008091150D80628093150D8091150D886031
:101A50008093150D8091150D82608093150D8091F6
:101A6000140D80688093140D8091140D8062809312
:101A7000140D8091140D88608093140D8091140DC5
:101A800082608093140D2FE73AE146E02150304008
:101A90004040E1F700C0000088E0898341E0BE01DA
:101AA0006F5F7F4F8DE00E94250A198241E0BE01E1
:101AB0006F5F7F4F88E10E94250A8091000D866844
:101AC0008093000D8091480682FD79C30DECD9C248
:101AD0007B7F7093110D7091150D61FD32C37B7F7B
:101AE0007093150D7091190D62FD32C37B7F709359
:101AF000190D70911D0D63FD32C3777F70931D0D1D
:101B00007091190D64FD32C3777F7093190D709138
:101B1000110D65FD32C3777F7093110D66FD32C3E1
:101B20006091150D677F6093150D509FE12D112475
:101B3000E695E695E695F0E0E954FF4D5081609119
:101B4000110D50FD58C46E7F6093110D6091150DFD
:101B500051FD4DC46E7F6093150D6091190D52FDBE
:101B600042C46E7F6093190D60911D0D53FD37C403
:101B70006D7F60931D0D6091190D54FD2CC46D7F18
:101B80006093190D6091110D55FD21C46D7F609317
:101B9000110D56FD16C45091150D5D7F5093150D16
:101BA000409F512D1124569556955695E42F6AE085
:101BB000569FE0191124F0E0E954FF4D50816091E7
:101BC000100D50FD7FC46F7B6093100D6091140D5C
:101BD00051FD74C46F7B6093140D6091180D52FD1C
:101BE00069C46F7B6093180D60911C0D53FD5EC43A
:101BF0006F7760931C0D6091180D54FD53C46F777F
:101C00006093180D6091100D55FD48C46F77609377
:101C1000100D56FD3DC45091140D5F775093140D77
:101C2000409FE12D1124E695E695E695F0E0E95414
:101C3000FF4D40815091100D40FD26C45F7E5093B2
:101C4000100D5091140D41FD1BC45F7E5093140D77
:101C50005091180D42FD10C45F7E5093180D5091A5
:101C60001C0D43FD05C45F7D50931C0D5091180D54
:101C700044FDFAC35F7D5093180D5091100D45FD42
:101C8000EFC35F7D5093100D46FDE4C34091140DEA
:101C90004F7D4093140D309F412D1124469546955C
:101CA0004695E32F7AE0479FE0191124F0E0E954CC
:101CB000FF4D40815091100D40FDC8C35B7F509394
:101CC000100D5091140D41FD9AC35B7F5093140D7C
:101CD0005091180D42FD9AC35B7F5093180D50919F
:101CE0001C0D43FD9AC3577F50931C0D5091180D46
:101CF00044FD9AC3577F5093180D5091100D45FD28
:101D00009AC3577F5093100D46FD9AC34091140D0E
:101D1000477F4093140D309FE12D1124E695E69501
:101D2000E695F0E0E954FF4D30814091100D30FD13
:101D30003BC44E7F4093100D4091140D31FD30C4D3
:101D40004E7F4093140D4091180D32FD25C44E7FF7
:101D50004093180D40911C0D33FD1AC44D7F4093E4
:101D60001C0D4091180D34FD0FC44D7F4093180D8C
:101D70004091100D35FD04C44D7F4093100D36FD8C
:101D8000F9C33091140D3D7F3093140D209F312DF8
:101D90001124369536953695E22FFAE03F9FE019EB
:101DA0001124F0E0E954FF4D30814091120D30FDD7
:101DB000DDC34F7B4093120D4091160D31FDD2C310
:101DC0004F7B4093160D40911A0D32FDC7C34F7BD8
:101DD00040931A0D40911E0D33FDBCC34F774093C5
:101DE0001E0D40911A0D34FDB1C34F7740931A0D6B
:101DF0004091120D35FDA6C34F774093120D36FD6D
:101E00009BC33091160D3F773093160D209FE12D27
:101E10001124E695E695E695F0E0E954FF4D208122
:101E20003091120D20FD84C33F7E3093120D30910E
:101E3000160D21FD79C33F7E3093160D30911A0D9A
:101E400022FD6EC33F7E30931A0D30911E0D23FD8F
:101E500063C33F7D30931E0D30911A0D24FD58C38E
:101E60003F7D30931A0D3091120D25FD4DC33F7DFE
:101E70003093120D26FD42C32091160D2F7D209325
:101E8000160D909F212D1124269526952695E92F34
:101E90003AE0239FE0191124F0E0E954FF4D20813E
:101EA0003091120D20FD26C33B7F3093120D3091EF
:101EB000160D21FD1BC33B7F3093160D30911A0D7B
:101EC00022FD10C33B7F30931A0D30911E0D23FD70
:101ED00005C3377F30931E0D30911A0D24FDFAC2D1
:101EE000377F30931A0D3091120D25FDEFC2377FE9
:101EF0003093120D26FD5FC22091160D277F20938F
:101F0000160D909FE12D1124E695E695E695F0E0FB
:101F1000E954FF4D90812091120D90FD48C22E7F13
:101F20002093120D2091160D91FD3DC22E7F20931E
:101F3000160D20911A0D92FD32C22E7F20931A0D9C
:101F400020911E0D93FD27C22D7F20931E0D209101
:101F50001A0D94FD1CC22D7F20931A0D2091120D95
:101F600095FD11C22D7F2093120D96FD06C2909112
:101F7000160D9D7F9093160D809F912D112496959F
:101F800096959695E82F4AE0949FE0191124F0E089
:101F9000E954FF4D90812091110D90FDEAC12F7BF6
:101FA0002093110D2091150D91FDDFC12F7B209302
:101FB000150D2091190D92FDD4C12F7B2093190D81
:101FC00020911D0D93FDC9C12F7720931D0D2091E8
:101FD000190D94FDBEC12F772093190D2091110D7D
:101FE00095FDB3C12F772093110D96FDA8C1909157
:101FF000150D9F779093150D809FE12D1124E69587
:10200000E695E695F0E0E954FF4D80819091110D41
:1020100080FD91C19F7E9093110D9091150D81FDD2
:1020200086C19F7E9093150D9091190D82FD7BC105
:102030009F7E9093190D90911D0D83FD70C19F7D22
:1020400090931D0D9091190D84FD65C19F7D909316
:10205000190D9091110D85FD5AC19F7D9093110D21
:1020600086FD4FC18091150D8F7D8093150D88954C
:102070008091000D86688093000D8091480682FD56
:102080009EC0CE0101960E947D0B898181FD96C282
:1020900084E190E00E94721A81118AC280911E0D23
:1020A000806180931E0DCE0101960E94900A2981C5
:1020B000822F82958F7056E0859F201911249A8176
:1020C000892F82958F7066E0869F901911248B81ED
:1020D000382F32953F7076E0379F801911244D815B
:1020E000342F32953F70E6E03E9F401911243E8127
:1020F000532F52955F70F6E05F9F301911245F8176
:10210000652F62956F7076E0679F50191124509F7C
:10211000612D1124669566956695E52FFAE06F9F0F
:10212000E0191124F0E0E954FF4D60817091110D28
:1021300060FFCECC74607093110D7091150D61FF2E
:10214000CECC74607093150D7091190D62FFCECCDA
:1021500074607093190D70911D0D63FFCECC786083
:1021600070931D0D7091190D64FFCECC7860709343
:10217000190D7091110D65FFCECC78607093110D23
:1021800066FFCECC6091150D68606093150DCDCCC7
:1021900048E050E06AE070E0CE0101960E94661AC5
:1021A00080911D0D816080931D0DCE0101960E94CE
:1021B000B70088958091000D86688093000D80910E
:1021C000480683FD6AC082E190E00E94721A811184
:1021D000DFCF8091140D81608093140D8091100DDC
:1021E00082608093100D8091140D82608093140D95
:1021F0008091100D84608093100D8091140D846087
:102200008093140D8091100D88608093100D809143
:10221000140D88608093140D8091150D806180935A
:10222000150D8091190D80618093190D80911D0D00
:10223000806280931D0D8091150D80648093150D33
:102240008091150D80688093150D8091160D816029
:102250008093160D8091120D84608093120D8091F1
:10226000160D84608093160D80911A0D8460809302
:102270001A0D80911E0D886080931E0D8091120DA5
:1022800088608093120D88958091000D86688093F8
:10229000000D8091480683FF96CF81E08093720005
:1022A0008093400250E85A95F1F700C067E06A95C4
:1022B000F1F700008093460285E080934002809110
:1022C000460280FFFCCF809150021092400293E0C2
:1022D0009093720074E68702C001112497FDAAC191
:1022E000880F892F881F990B883108F4A1C184E1D8
:1022F00090E00E94721A823008F466C181E00E9468
:10230000D3088091150D80628093150DB0CE906238
:102310009093110DA5CE90629093190D9ACE906274
:1023200090931D0D8FCE90619093190D84CE906186
:102330009093150D79CE90619093110D6ECE909182
:10234000150D90689093150D57CE20682093110DB0
:102350004CCE20682093190D41CE206820931D0D8E
:1023600036CE20642093190D2BCE20642093150DBA
:1023700020CE20642093110D15CE9091160D926001
:102380009093160DF9CD22602093120DEECD2260B0
:1023900020931A0DE3CD226020931E0DD8CD21602D
:1023A00020931A0DCDCD21602093160DC2CD216052
:1023B0002093120DB7CD2091160D28602093160D95
:1023C000A0CD5091150D52605093150DE9CB626070
:1023D0006093110DDECB62606093190DD3CB626008
:1023E00060931D0DC8CB61606093190DBDCB61601A
:1023F0006093150DB2CB61606093110DA7CB546053
:102400005093140D5091180D42FF66CC54605093B8
:10241000180D50911C0D43FF66CC586050931C0D55
:102420005091180D44FF66CC58605093180D509190
:10243000100D45FF66CC58605093100D46FF66CCDA
:102440004091140D48604093140D65CC5460509336
:10245000100D37CC4091140D40624093140D1BCCED
:1024600050625093100D10CC50625093180D05CC53
:10247000506250931C0DFACB50615093180DEFCB66
:1024800050615093140DE4CB50615093100DD9CB93
:102490005091140D50685093140DC2CB6068609336
:1024A000100DB7CB60686093180DACCB606860937B
:1024B0001C0DA1CB60646093180D96CB6064609393
:1024C000140D8BCB60646093100D80CB386030931B
:1024D000120D10CD386030931A0D05CD3860309351
:1024E0001E0DFACC346030931A0DEFCC346030936B
:1024F000160DE4CC34603093120DD9CC2091160D1A
:1025000020622093160DBDCC30623093120DB2CCF8
:10251000306230931A0DA7CC306230931E0D9CCCE4
:10252000306130931A0D91CC30613093160D86CC0A
:1025300030613093120D7BCC3091160D30683093A2
:10254000160D64CC40684093120D59CC40684093FE
:102550001A0D4ECC406840931E0D43CC406440930E
:102560001A0D38CC40644093160D2DCC4064409336
:10257000120D22CC3091140D32603093140D06CC24
:1025800042604093100DFBCB42604093180DF0CB9E
:10259000426040931C0DE5CB41604093180DDACBAF
:1025A00041604093140DCFCB41604093100DC4CBDC
:1025B00080911E0D816080931E0D70CD80911C0D49
:1025C000806180931C0D64CD88E090E00E94721AB7
:1025D000082F823090F182E00E94D30881E080933E
:1025E00072008093400260E86A95F1F700C077E0DE
:1025F0007A95F1F7000080934602E09240028091C4
:10260000460280FFFCCF8091500210924002F0926F
:102610007200E4E68E02C001112497FF02C08158C7
:102620009F4F880F892F881F990B883108F0F2C1BE
:102630000E94A60081589F4F53CE82E190E00E94F5
:10264000721A823018F083E00E94D308011123C06F
:10265000882309F490C184E00E94D30881E489872B
:10266000CE01099689A39AA341E0BC018FE00E94A4
:10267000250A48E0BE016F5F7F4F80E00E94250A77
:1026800044E06BE070E288E00E94250A61E088E0A7
:1026900090E00E94821ACE0101960E947D0B8981F2
:1026A00081FD5DC184E190E00E94721A811143C1F5
:1026B00082E190E00E94721A882309F4BAC348E0CC
:1026C00050E06AE070E0CE0101960E94661ACE01E9
:1026D00001960E948007882309F499C68895FE0117
:1026E0003996E9A3FAA3889589A19AA10E94900A34
:1026F0009F85292F22952F708889382F32953F701A
:10270000F6E03F9F8019112436E0239F9019112491
:10271000923308F48BC380FD12C021E0280F822F72
:102720006AE00E94B31A982F990F890F880F820FC1
:10273000888B48E069A17AA180E00E94250A69A1FE
:102740007AA1CE0141960E94BB06BE016F5F7F4F0A
:10275000CE0148960E94BB06B88D99899B1708F058
:1027600008C1945C998BE1E0A98D8A892E2F30E015
:102770002A0F311D482F50E0421753070CF0F7C0C5
:10278000845C8A8B31E0FA8D2B89432F50E04F0F08
:10279000511D622F70E0641775070CF0E6C0285ECB
:1027A0002B8B21E04B8C5C8C6D8C7E8C420E511CF3
:1027B000611C711C4C895D896E897F8944155505A2
:1027C0006605770508F420C6192F1B1B8A1BD82E17
:1027D000DE1A9B889F1A931A4419550966097709CE
:1027E0003A01862E812F6AE00E94B31A082F4AE030
:1027F000849F101911246AE0262E312C412C75E09B
:10280000E72EE3E0FE2EAA24A394B12C30E4631655
:1028100032E473063FE0830608F006C1E62D772D0B
:10282000882D56E0C52E6E2F442D91010E94BF1AAF
:10283000562E7F8F88A36E2F5AE0559E6019112463
:102840008C2D0E946605C394E52D7F8D88A16CE0D8
:10285000C612E9CF4DEC542E47E1491508F4CDC01E
:10286000892D6AE00E94B31AC82E692D76EF879FE2
:10287000600D112484E00E9466056C2D85E00E94A5
:1028800066058BE38D1508F453C0D59CC12C11242B
:10289000C694C694C6946D2D9AE0C99E6019112401
:1028A00082E00E9466056C2D83E00E94660506307A
:1028B000D0F5602F81E00E9466051A3040F4612F48
:1028C00080E00E94660588951F5F1A30C1F70F5F90
:1028D00081E08093720080934002E0E8EA95F1F78E
:1028E00000C0F7E0FA95F1F7000080934602E0920D
:1028F00040028091460280FFFCCF809150021092EE
:102900004002F092720024E68202C001112497FD79
:1029100071C0880F892F881F990B883108F488CEE1
:1029200010E0063031F6D39400E03CE3D312ADCF93
:102930009394D12C91CF82E190E00E94721A882367
:1029400099F148E050E06AE070E0CE0101960E9403
:10295000661ACE0101960E94B7000E94990061E0BC
:1029600084E190E00E94821A9DCE20E01BCF30E0EF
:102970000ACFE0E0F9CE198241E0BE016F5F7F4FE0
:102980008EE00E94250A48E050E060E070E0CE0151
:1029900001960E94661ACE0101960E94800781115D
:1029A0005DCE87E00E94D3086BE083E40E94EA07D3
:1029B0006AE087E00E94EA0769E083E60E94EA078E
:1029C00068E083E40E94EA0765E08FE40E94EA077A
:1029D00064E082E40E94EA0763E082E40E94EA077E
:1029E00062E083E60E94EA0761E082E40E94EA076F
:1029F0000E94990081589F4F8CCF5FEF651A750A2E
:102A0000850AA82DC30187709927AA270197A105D8
:102A100009F4E4CDA82DC3018F779927AA27892B24
:102A20008A2BA1F1912CF2CE69E086E00E94660526
:102A300069E087E00E94660569E088E00E9466051B
:102A400069E089E00E94660569E08AE00E94660507
:102A500069E08BE00E94660569E080E00E946605FF
:102A600065E081E00E94660569E082E00E946605FB
:102A700065E083E00E94660563E084E00E946605ED
:102A800062E085E00E9466050E9499008091000D39
:102A900086688093000DA9EAB0E280E090E023E42C
:102AA00030E0082E02C0359527950A94E2F720FF02
:102AB0001BC011962C9111973C91E22FE695E6955B
:102AC000E695F0E044E0349FE00DF11D1124E05F55
:102AD000F24F40812770B50102C0660F771F2A951B
:102AE000E2F79B01242B20830196129687309105F3
:102AF000B1F6ABE9B0E280E090E04BE550E09A013E
:102B0000082E02C0359527950A94E2F720FF1EC0D3
:102B100011962C9111973C91E22FE695E695E6955A
:102B2000F0E074E0379FE00DF11D1124E05FF24FFB
:102B30006081722F7770950102C0220F331F7A9542
:102B4000E2F729A33AA329A1262B20830196129606
:102B500087309105A1F6ADE8B0E280E090E04FE368
:102B600050E09A01082E02C0359527950A94E2F7A5
:102B700020FF1EC011962C9111973C91E22FE695F3
:102B8000E695E695F0E064E0369FE00DF11D112436
:102B9000E05FF24F6081722F7770950102C0220FC3
:102BA000331F7A95E2F729A33AA329A1262B208384
:102BB0000196129687309105A1F6A1E8B0E281E076
:102BC00090E040E350E09A01082E02C03595279529
:102BD0000A94E2F720FF1EC011962C9111973C91A8
:102BE000E22FE695E695E695F0E064E0369FE00D8D
:102BF000F11D1124E05FF24F6081722F7770950113
:102C000002C0220F331F7A95E2F729A33AA329A124
:102C1000262B20830196129687309105A1F6A1E715
:102C2000B0E280E090E04FE750E09A01082E02C049
:102C3000359527950A94E2F720FF1EC011962C9136
:102C400011973C91E22FE695E695E695F0E064E079
:102C5000369FE00DF11D1124E05FF24F6081722F6D
:102C60007770950102C0220F331F7A95E2F729A3EE
:102C70003AA329A1262B208301961296873091052D
:102C8000A1F6A5E5B0E280E090E043E350E09A01D0
:102C9000082E02C0359527950A94E2F720FF1EC042
:102CA00011962C9111973C91E22FE695E695E695C9
:102CB000F0E064E0369FE00DF11D1124E05FF24F7B
:102CC0006081722F7770950102C0220F331F7A95B1
:102CD000E2F729A33AA329A1262B20830196129675
:102CE00087309105A1F64FE050E249A35AA3DA01DB
:102CF00080E090E06FE370E09B01082E02C0359504
:102D000027950A94E2F720FF1FC0D9962C91D997F6
:102D1000D896EC91D897422F46954695469550E027
:102D2000F4E0EF9F400D511D1124405F524FFA0116
:102D3000C0802770F50102C0EE0FFF1F2A95E2F751
:102D40009F012C29FA012083019612968730910564
:102D500099F6AFE0B0E280E090E06DE670E09B01B4
:102D6000082E02C0359527950A94E2F720FF1FC070
:102D70009B962C919B979A963C919A97422F4695B9
:102D80004695469550E0F4E03F9F400D511D1124BB
:102D9000405F524FFA01C0802770F50102C0EE0F6C
:102DA000FF1F2A95E2F79F012C29FA012083019643
:102DB00012968730910599F681E090E046E750E061
:102DC0009A01082E02C0359527950A94E2F720FF54
:102DD0001BC0E9A1FAA1278D368DA22FA695A69535
:102DE000A695B0E0F4E03F9FA00DB11D1124A05FB7
:102DF000B24F6C912770F50102C0EE0FFF1F2A95AC
:102E0000E2F79F01262B2C93019629A13AA12E5F70
:102E10003F4F29A33AA38730910591F68895809179
:102E2000000D86688093000D1F5FFCCD80FD75CC82
:102E300086CC88E18093570683EF91E00197F1F704
:102E400000C0000081E08093490680914A068068B6
:102E500080934A06FE013996E9A3FAA301E0809126
:102E6000480687FD24C0F12EF0261123A9F089A180
:102E70009AA10E94900A89A19AA10E94B700889500
:102E800080911D0D8E7F80931D0D80911E0D8F7E74
:102E900080931E0D1F2DE3CF80911D0D81608093C7
:102EA0001D0D80911E0D806180931E0DE0CF8FE47B
:102EB00093EC0197F1F700C0000081E090E02091D1
:102EC000480627FFDEC1612C2091000D2668209363
:102ED000000D462D50E0FA013696E770FF27ED5FB2
:102EE000FF4D2081FA01ED5FFF4DE081022F02705E
:102EF000122F1470722F7870622F6071522F5072DF
:102F0000422F4074FE2FF2702F2E3E2F3470D32E9E
:102F1000FE2FF870CF2E3E2F3071B32EFE2FF072A1
:102F2000AF2E3E2F3074932EE1708E2E2170722EB4
:102F3000EFE0F0E226E08820D9F0F180A081B0E057
:102F4000AA0FBB1FAA0FBB1FEF2CE694E694E694D2
:102F5000AE0DB11DA05FB24F3C903F2D37702C01DC
:102F600002C0440C551C3A95E2F77201E328EC923A
:102F70002220D9F0F380A281B0E0AA0FBB1FAA0FD4
:102F8000BB1FEF2CE694E694E694AE0DB11DA05F56
:102F9000B24F3C903F2D37702C0102C0440C551CA1
:102FA0003A95E2F77201E328EC92DD20D9F0F58042
:102FB000A481B0E0AA0FBB1FAA0FBB1FEF2CE694A1
:102FC000E694E694AE0DB11DA05FB24F3C903F2D4C
:102FD00037702C0102C0440C551C3A95E2F772017F
:102FE000E328EC92CC20D9F0F780A681B0E0AA0FBC
:102FF000BB1FAA0FBB1FEF2CE694E694E694AE0D20
:10300000B11DA05FB24F3C903F2D37702C0102C024
:10301000440C551C3A95E2F77201E328EC92BB2070
:10302000D9F0F184A085B0E0AA0FBB1FAA0FBB1F87
:10303000EF2CE694E694E694AE0DB11DA05FB24F7E
:103040003C903F2D37702C0102C0440C551C3A9522
:10305000E2F77201E328EC92AA20D9F0F384A2856A
:10306000B0E0AA0FBB1FAA0FBB1FEF2CE694E6949B
:10307000E694AE0DB11DA05FB24F3C903F2D37706E
:103080002C0102C0440C551C3A95E2F77201E3286A
:10309000EC929920D9F0F584A485B0E0AA0FBB1F6B
:1030A000AA0FBB1FEF2CE694E694E694AE0DB11D7B
:1030B000A05FB24F3C903F2D37702C0102C0440CF2
:1030C000551C3A95E2F77201E328EC927720D9F08B
:1030D000F784A685B0E0AA0FBB1FAA0FBB1FEF2C79
:1030E000E694E694E694AE0DB11DA05FB24F3C901D
:1030F0003F2D37702C0102C0440C551C3A95E2F765
:103100007201E328EC920023D1F0F188E088AF2D22
:10311000A695A695A695B0E034E0E39EA00DB11D5E
:103120001124A05FB24F3C903F2D37702C0102C09C
:10313000440C551C3A95E2F77201E328EC921123F6
:10314000D9F0F388A289B0E0AA0FBB1FAA0FBB1F5A
:10315000EF2CE694E694E694AE0DB11DA05FB24F5D
:103160003C903F2D37702C0102C0440C551C3A9501
:10317000E2F77201E328EC927723D9F0F588A4896D
:10318000B0E0AA0FBB1FAA0FBB1FEF2CE694E6947A
:10319000E694AE0DB11DA05FB24F3C903F2D37704D
:1031A0002C0102C0440C551C3A95E2F77201E32849
:1031B000EC926623D9F0F788A689B0E0AA0FBB1F6E
:1031C000AA0FBB1FEF2CE694E694E694AE0DB11D5A
:1031D000A05FB24F3C903F2D37702C0102C0440CD1
:1031E000551C3A95E2F77201E328EC925523D9F089
:1031F000F18CA08DB0E0AA0FBB1FAA0FBB1FEF2C54
:10320000E694E694E694AE0DB11DA05FB24F3C90FB
:103210003F2D37702C0102C0440C551C3A95E2F743
:103220007201E328EC924423D9F0F38CA28DB0E034
:10323000AA0FBB1FAA0FBB1FEF2CE694E694E694DF
:10324000AE0DB11DA05FB24F3C903F2D37702C01E9
:1032500002C0440C551C3A95E2F77201E328EC9247
:1032600021507C96211167CE88956394A8E05A2E50
:10327000651429F02091480627FD26CE20CE612C2A
:10328000F9CF8091000D86688093000D81E48983D9
:1032900041E0BE016F5F7F4F8FE00E94250ACE01A3
:1032A00001960E94900A48E050E06AE070E0CE018A
:1032B00001960E940A1A61E082E190E00E94821A5F
:1032C00080914A068F7780934A0687E0809357065D
:1032D00016E0812F0E9466091F5F1C30D1F780E045
:1032E0000E94660981E00E94660982E00E946609E8
:1032F00083E00E94660984E00E94660985E00E94DE
:103300006609809165068160809365068FE097E28B
:103310000197F1F700C000008091660681608093FC
:10332000660680916506826080936506EFE0F7E2AD
:103330003197F1F700C000008091660682608093AB
:103340006606809165068160809365068FE097E24E
:103350000197F1F700C000008091660681608093BC
:10336000660680916506826080936506EFE0F7E26D
:103370003197F1F700C0000080916606826080936B
:1033800066068EE134E6909165069160909365063D
:10339000982FE9EFF0E03197F1F700C0000091506D
:1033A000C1F790916606916090936606932F981BE3
:1033B000292F07C0E9EFF0E03197F1F700C00000D6
:1033C00021502111F7CF20916506226020936506D8
:1033D000282FE9EFF0E03197F1F700C0000021500D
:1033E000C1F72091660622602093660607C0E9EFC8
:1033F000F0E03197F1F700C0000091509111F7CF44
:103400008A5009F0C0CF6FC985E00E94D30888E0D8
:103410000E94D308CF92DF92EF92FF920F931F93F7
:10342000CF93DF932091CC0128602093CC01C0E2A0
:103430000FEF17E0D5E3FF24F39441155105C1F1D7
:10344000262F2F713C2F321B232F30E042175307BA
:1034500008F49A01D22EF801E21BF30BE617F707E6
:1034600010F40E94A51AE091CF01E7FDFCCFC82E11
:10347000DB01B05FFC01E090CF01E7FCFCCFE19005
:10348000ED92EE2EEC18ED14B0F31092C201709391
:10349000C1016093C001D093CA01E8EDE4BFF0928E
:1034A000CB01820F931F620F731F421B530BC5CFBB
:1034B0008091CC01877F8093CC01DF91CF911F91C8
:1034C0000F91FF90EF90DF90CF900895E0ECF1E046
:1034D000A785A7FDFDCFA485A860A4876050704F85
:1034E0000C94AA1A03D0808199270895E0ECF1E0AA
:1034F000378537FDFDCF348538603487FC01E050D7
:10350000F04F0895262FE0ECF1E0378537FDFDCF31
:103510003485377F3487378531FF09C036E33287FA
:1035200038ED34BF31E03387378537FDFDCF33E3E6
:103530003287808391831282248325E3228728EDBA
:1035400031E024BF33870196089581E090E0F8943C
:103550000C94F11AFB01DC0102C001900D92415064
:103560005040D8F70895991B79E004C0991F961729
:1035700008F0961B881F7A95C9F78095089559E140
:10358000AA27991B0AC0111CAA1F991F1216A3076C
:10359000940718F0121AA30B940B661F771F881F4D
:1035A0005A9589F7609570958095212D3A2F492F6E
:1035B00011240895EE0FFF1F881F8BBF0790F6910F
:1035C000E02D1994A29FB001B39FC001A39F700D7D
:1035D000811D1124911DB29F700D811D1124911D1B
:0635E0000895F894FFCFEE
:1035E600424F63010240100804402054734C3300DC
:1035F6001601160216031702170017011700140109
:103606001402140315021500150115001201120209
:10361600120313021300130113001001100210030A
:1036260011021100110111000E010E020E030F020C
:103636000F000F010F000C010C020C030D020D0010
:103646000D010D000A010A020A030B020B000B0111
:103656000B00080108020803090209000901090014
:103666000601060206030702070007010700040118
:103676000402040305020500050105000201020219
:10368600020303020300030103000001000200031A
:10369600010201000101013F305B79746D6F387FD3
:0236A6007D00A5
:00000001FF
