:100000000C947E000C9497000C94E8070C949700D5
:100010000C9497000C9497000C9497000C94970004
:100020000C9497000C9497000C9497000C949700F4
:100030000C9497000C9497000C9497000C949700E4
:100040000C9497000C9497000C9497000C949700D4
:100050000C9497000C9497000C9497000C949700C4
:100060000C9497000C9497000C9497000C949700B4
:100070000C9497000C9497000C9497000C949700A4
:100080000C9497000C9497000C9497000C94970094
:100090000C9497000C9497000C9497000C94E9072B
:1000A0000C9497000C9497000C9497000C94970074
:1000B0000C9497000C9497000C9497000C94970064
:1000C0000C9497000C9497000C9497000C94970054
:1000D0000C9497000C9497007B0773077B074707E6
:1000E0007B0747077B077B0747077B0747077B079C
:1000F0000C9447070C947B070C94730711241FBEC4
:10010000CFEFCDBFDFE3DEBF00E00CBF10E2A0E029
:10011000B0E2EEE3F0E300E00BBF02C007900D9207
:10012000AE3BB107D9F70E947A0C0C941D180C94C1
:10013000D3088091000D82608093000D8895809196
:10014000000D8D7F8093000D8895F3CFE0E0FDE0FA
:10015000808186688083E3E1FDE080818160808327
:10016000EFE1FDE08081816080830E949900DC01E5
:100170003C91832F82958F7026E0829F3019112445
:1001800011962C911197822F82958F7046E0849F53
:100190002019112412969C911297892F82958F70A5
:1001A00056E0859F9019112414965C911497852F21
:1001B00082958F7066E0869F5019112415964C9198
:1001C0001597842F82958F7076E0879F40191124B0
:1001D00016968C91682F62956F7076E0679F8019F4
:1001E00011246DEC869F612D1124669566956695A8
:1001F000E82F7AE0679FE0191124F0E0EC54FF4DFE
:100200006081E62F60FDE8C26091110D6B7F609305
:10021000110D6091150DE1FDE8C26B7F6093150D26
:100220006091190DE2FDE8C26B7F6093190D60913A
:100230001D0DE3FDE8C2677F60931D0D6091190DF0
:10024000E4FDE8C2677F6093190D6091110DE5FD33
:10025000E8C2677F6093110D6091150DE6FFE8C25B
:1002600068606093150DEDEC8E9FE12D1124E695ED
:10027000E695E695F0E0EC54FF4D8081682F80FD17
:100280001FC48091110D8E7F8093110D8091150DEB
:1002900061FD12C48E7F8093150D8091190D62FD52
:1002A00007C48E7F8093190D80911D0D63FDFCC3E3
:1002B0008D7F80931D0D8091190D64FDF1C38D7F9D
:1002C0008093190D8091110D65FDE6C38D7F80939C
:1002D000110D8091150D66FFDBC382608093150DB3
:1002E0008DEC589F812D1124869586958695E52F56
:1002F0006AE0869FE0191124F0E0EC54FF4D808104
:10030000682F80FDBFC38091100D8F7B8093100DEF
:100310008091140D61FDB2C38F7B8093140D809189
:10032000180D62FDA7C38F7B8093180D80911C0D63
:1003300063FD9CC38F7780931C0D8091180D64FD25
:1003400091C38F778093180D8091100D65FD86C342
:100350008F778093100D8091140D66FF7BC38068AA
:100360008093140DEDEC5E9FE12D1124E695E6954A
:10037000E695F0E0EC54FF4D8081682F80FD64C36A
:100380008091100D8F7E8093100D8091140D61FD72
:1003900057C38F7E8093140D8091180D62FD4CC35E
:1003A0008F7E8093180D80911C0D63FD41C38F7D5E
:1003B00080931C0D8091180D64FD36C38F7D809352
:1003C000180D8091100D65FD2BC38F7D8093100D4E
:1003D0008091140D66FF20C380628093140D8DEC14
:1003E000489F812D1124869586958695E42F7AE085
:1003F000879FE0191124F0E0EC54FF4D8081682FB5
:1004000080FD04C38091100D8B7F8093100D80912F
:10041000140D61FDF7C28B7F8093140D8091180D30
:1004200062FDECC28B7F8093180D80911C0D63FDE3
:10043000E1C2877F80931C0D8091180D64FDD6C2A8
:10044000877F8093180D8091100D65FDCBC2877F4B
:100450008093100D8091140D66FFC0C28860809358
:10046000140DEDEC4E9FE12D1124E695E695E695F1
:10047000F0E0EC54FF4D8081482F80FDA9C28091AF
:10048000100D8E7F8093100D8091140D41FD9CC244
:100490008E7F8093140D8091180D42FD91C28E7F46
:1004A0008093180D80911C0D43FD86C28D7F809333
:1004B0001C0D8091180D44FD7BC28D7F8093180D1B
:1004C0008091100D45FD70C28D7F8093100D80913D
:1004D000140D46FF65C282608093140D8DEC389F29
:1004E000812D1124869586958695E32F4AE0849F79
:1004F000E0191124F0E0EC54FF4D8081482F80FD7D
:1005000049C28091120D8F7B8093120D8091160D40
:1005100041FD3CC28F7B8093160D80911A0D42FDE8
:1005200031C28F7B80931A0D80911E0D43FD26C230
:100530008F7780931E0D80911A0D44FD1BC28F771B
:1005400080931A0D8091120D45FD10C28F77809314
:10055000120D8091160D46FF05C280688093160D1E
:10056000EDEC3E9FE12D1124E695E695E695F0E051
:10057000EC54FF4D8081482F80FDEEC18091120D1B
:100580008F7E8093120D8091160D41FDE1C18F7E0B
:100590008093160D80911A0D42FDD6C18F7E8093F7
:1005A0001A0D80911E0D43FDCBC18F7D80931E0DD2
:1005B00080911A0D44FDC0C18F7D80931A0D8091EA
:1005C000120D45FDB5C18F7D8093120D8091160DE2
:1005D00046FFAAC180628093160D8DEC289F812D65
:1005E0001124869586958695E22F5AE0859FE0191D
:1005F0001124F0E0EC54FF4D8081482F80FD8EC126
:100600008091120D8B7F8093120D8091160D41FD0C
:1006100081C18B7F8093160D80911A0D42FD76C1AA
:100620008B7F80931A0D80911E0D43FD6BC1877FD8
:1006300080931E0D80911A0D44FD60C1877F8093C9
:100640001A0D8091120D45FD55C1877F8093120DC3
:100650008091160D46FF4AC188608093160DEDEC1F
:100660002E9FE12D1124E695E695E695F0E0EC54F9
:10067000FF4D8081282F80FD33C18091120D8E7F28
:100680008093120D8091160D21FD26C18E7F8093DF
:10069000160D80911A0D22FD1BC18E7F80931A0DBD
:1006A00080911E0D23FD10C18D7F80931E0D8091C2
:1006B0001A0D24FD05C18D7F80931A0D8091120DB6
:1006C00025FDFAC08D7F8093120D8091160D26FFB7
:1006D000EFC082608093160D8DEC989F812D1124C0
:1006E000869586958695E92F6AE0869FE019112404
:1006F000F0E0EC54FF4D8081282F80FDD3C0809125
:10070000110D8F7B8093110D8091150D21FDC6C0B9
:100710008F7B8093150D8091190D22FDBBC08F7BBF
:100720008093190D80911D0D23FDB0C08F778093AC
:100730001D0D8091190D24FDA5C08F778093190D93
:100740008091110D25FD9AC08F778093110D8091B6
:10075000150D26FF8FC080688093150DEDEC9E9FD0
:10076000E12D1124E695E695E695F0E0EC54FF4D79
:100770008081282F80FD78C08091110D8F7E80931D
:10078000110D8091150D21FD6BC08F7E8093150D8D
:100790008091190D22FD60C08F7E8093190D80918C
:1007A0001D0D23FD55C08F7D80931D0D8091190D6A
:1007B00024FD4AC08F7D8093190D8091110D25FD78
:1007C0003FC08F7D8093110D8091150D26FF34C0A1
:1007D00080628093150D08956091110D646060939F
:1007E000110D6091150DE1FF18CD64606093150D3A
:1007F0006091190DE2FF18CD64606093190D60914E
:100800001D0DE3FF18CD686060931D0D6091190DFB
:10081000E4FF18CD68606093190D6091110DE5FF3C
:1008200018CD68606093110D6091150DE6FD18CD2F
:10083000677F6093150D17CD8F7D8093150D0895FB
:1008400080628093110DC0CF80628093190DB5CF67
:10085000806280931D0DAACF80618093190D9FCF78
:1008600080618093150D94CF8091110D80618093EC
:10087000110D87CF8F778093150D70CF806880938F
:10088000110D65CF80688093190D5ACF80688093D1
:100890001D0D4FCF80648093190D44CF80648093E9
:1008A000150D39CF8091110D80648093110D2CCFDF
:1008B0008D7F8093160D10CF82608093120D05CF2F
:1008C000826080931A0DFACE826080931E0DEFCE67
:1008D000816080931A0DE4CE81608093160DD9CE8D
:1008E0008091120D81608093120DCCCE877F809312
:1008F000160DB5CE88608093120DAACE88608093C5
:100900001A0D9FCE886080931E0D94CE84608093D4
:100910001A0D89CE84608093160D7ECE8091120DC3
:1009200084608093120D71CE8F7D8093160D55CE0D
:1009300080628093120D4ACE806280931A0D3FCE62
:10094000806280931E0D34CE806180931A0D29CE73
:1009500080618093160D1ECE8091120D8061809370
:10096000120D11CE8F778093160DFACD806880938B
:10097000120DEFCD806880931A0DE4CD80688093CE
:100980001E0DD9CD806480931A0DCECD80648093E6
:10099000160DC3CD8091120D80648093120DB6CDDB
:1009A0008D7F8093140D9ACD82608093100D8FCD32
:1009B00082608093180D84CD826080931C0D79CD68
:1009C00081608093180D6ECD81608093140D63CD8E
:1009D0008091100D81608093100D56CD877F80939C
:1009E000140D3FCD88608093100D34CD88608093C6
:1009F000180D29CD886080931C0D1ECD84608093D6
:100A0000180D13CD84608093140D08CD8091100DC6
:100A100084608093100DFBCC8F7D8093140DDFCC10
:100A200080628093100DD4CC80628093180DC9CC65
:100A3000806280931C0DBECC80618093180DB3CC76
:100A400080618093140DA8CC8091100D80618093FB
:100A5000100D9BCC8F778093140D84CC806880938D
:100A6000100D79CC80688093180D6ECC80688093CF
:100A70001C0D63CC80648093180D58CC80648093E7
:100A8000140D4DCC8091100D80648093100D40CCDE
:100A90008D7F8093150D24CC82608093110D19CC2D
:100AA00082608093190D0ECC826080931D0D03CC63
:100AB00081608093190DF8CB81608093150DEDCB8B
:100AC0008091110D81608093110DE0CBE62FF0E055
:100AD000EC54FF4D4081242F90E0880F991FFC01BA
:100AE000EE0FFF1FEE0FFF1FEE0FFF1FE81BF90BAE
:100AF000E45FFF4D518140FD09C14081E52FE6953E
:100B0000E695E695F0E064E0469FE00DF11D1124C6
:100B1000E05FF24F7081652F677041E050E001C0E7
:100B2000440F6A95EAF7409547234083FC01EE0F96
:100B3000FF1FEE0FFF1FEE0FFF1FE81BF90BE45F17
:100B4000FF4D5381E281F0E0EE0FFF1FEE0FFF1F1C
:100B5000452F469546954695E40FF11DE05FF24F0F
:100B60007081652F677041E050E001C0440F6A95C5
:100B7000EAF721FDFDC0409547234083FC01EE0FBD
:100B8000FF1FEE0FFF1FEE0FFF1FE81BF90BE45FC7
:100B9000FF4D5581E481F0E0EE0FFF1FEE0FFF1FC8
:100BA000452F469546954695E40FF11DE05FF24FBF
:100BB0007081652F677041E050E001C0440F6A9575
:100BC000EAF722FDD2C0409547234083FC01EE0F97
:100BD000FF1FEE0FFF1FEE0FFF1FE81BF90BE45F77
:100BE000FF4D5781E681F0E0EE0FFF1FEE0FFF1F74
:100BF000452F469546954695E40FF11DE05FF24F6F
:100C00007081652F677041E050E001C0440F6A9524
:100C1000EAF723FDA7C0409547234083FC01EE0F70
:100C2000FF1FEE0FFF1FEE0FFF1FE81BF90BE45F26
:100C3000FF4D5185E085F0E0EE0FFF1FEE0FFF1F27
:100C4000452F469546954695E40FF11DE05FF24F1E
:100C50007081652F677041E050E001C0440F6A95D4
:100C6000EAF724FD7CC0409547234083FC01EE0F4A
:100C7000FF1FEE0FFF1FEE0FFF1FE81BF90BE45FD6
:100C8000FF4D5385E285F0E0EE0FFF1FEE0FFF1FD3
:100C9000452F469546954695E40FF11DE05FF24FCE
:100CA0007081652F677041E050E001C0440F6A9584
:100CB000EAF725FD51C0409547234083FC01EE0F24
:100CC000FF1FEE0FFF1FEE0FFF1FE81BF90BE45F86
:100CD000FF4D9585E485F0E0EE0FFF1FEE0FFF1F3F
:100CE000892F869586958695E80FF11DE05FF24F76
:100CF000308126FF25C0292F277081E090E001C0B8
:100D0000880F2A95EAF7832B80830895E081F0E02D
:100D1000EE0FFF1FEE0FFF1F452F46954695469598
:100D2000E40FF11DE05FF24F7081652F677041E0C5
:100D300050E001C0440F6A95EAF7472B4083F6CE96
:100D4000292F277081E090E001C0880F2A95EAF7EB
:100D50008095832380830895472B4083AFCF472B13
:100D6000408384CF472B408359CF472B40832ECFDE
:100D7000472B408303CFBF92CF92DF92EF92FF9237
:100D80000F931F93CF93DF938C01EB018881982FF2
:100D900092959F7026E0929F80191124F80180831C
:100DA0008981982F92959F70F6E09F9F801911245A
:100DB000F80181838A81982F92959F70F6E09F9F1A
:100DC00080191124F8018283BD80EE812F818B2D43
:100DD00082958F70F6E08F9FB01811248E2F829528
:100DE0008F7096E0899FE0191124822F82958F7071
:100DF000F6E08F9F20191124269530E0ADEABEE879
:100E00000E940E18AB01BC01EE2339F180E00BC04B
:100E1000FC2D3D2D2E2D9F2D4F2F532F622F792FDF
:100E20008F5FE817D1F06A017B012EE6C20E21E048
:100E3000D21EE11CF11C43595E4F6F4F7F4F982F1C
:100E4000937031F3F42F352F262F972F4F2F532FD9
:100E5000622F792F8F5FE813E6CF81E08B1510F5B5
:100E6000E37069F48DE1C82ED12CE12CF12C21E046
:100E7000822F90E0FC013197EC30F10510F08CE10D
:100E8000F2CF8827E459FF4F8F4F0C9406188EE15C
:100E900090E0A0E0B0E0480F591F6A1F7B1F2F5F52
:100EA0002B1530F38C81982F92959F70E6E09E9FD2
:100EB0008019112490E0A0E0B0E00197A109B109E8
:100EC000480F591F6A1F7B1FF801438354836583B2
:100ED0007683DF91CF911F910F91FF90EF90DF907C
:100EE000CF90BF9008954C0D5D1D6E1D7F1DF3E0EA
:100EF000FB15C0F623E08FE190E0A0E0B0E0CBCF9F
:100F0000FC019681892F82958F7026E0829F90192F
:100F10001124943608F054C02581822F82958F7059
:100F200036E0839F201911248FEF820F8C3008F058
:100F300047C03481832F82958F7046E0849F30199B
:100F40001124832F332309F43CC0263009F43CC01C
:100F500030F42230B9F59370C9F59DE105C0293010
:100F600099F12B3089F19FE1981750F18781982FE3
:100F700092959F7026E0929F80191124853100F58B
:100F80008081982F92959F7036E0939F801911244D
:100F90008C33B0F48181982F92959F7046E0949F96
:100FA000801911248C3360F48281982F92959F7060
:100FB00026E0929F80191124982F81E0983108F043
:100FC00080E00895243079F69EE1CECF9CE1CCCF2D
:100FD00018951895282F80FF1FC04EE0649FF001E0
:100FE0001124E45FFF4D91818081E92FE695E6951C
:100FF000E695F0E044E0849FE00DF11D1124E05FF0
:10100000F24F5081492F477081E090E001C0880F76
:101010004A95EAF7852B808321FF1FC08EE0689FE9
:10102000F0011124E45FFF4D93818281E92FE69561
:10103000E695E695F0E044E0849FE00DF11D112473
:10104000E05FF24F5081492F477081E090E001C08E
:10105000880F4A95EAF7852B808322FF1FC08EE018
:10106000689FF0011124E45FFF4D95818481E92F91
:10107000E695E695E695F0E044E0849FE00DF11DED
:101080001124E05FF24F5081492F477081E090E0DA
:1010900001C0880F4A95EAF7852B808323FF1FC084
:1010A0008EE0689FF0011124E45FFF4D97818681F7
:1010B000E92FE695E695E695F0E044E0849FE00DA3
:1010C000F11D1124E05FF24F5081492F477081E0FC
:1010D00090E001C0880F4A95EAF7852B808324FFB2
:1010E0001FC08EE0689FF0011124E45FFF4D9185E1
:1010F0008085E92FE695E695E695F0E044E0849F4B
:10110000E00DF11D1124E05FF24F5081492F47702F
:1011100081E090E001C0880F4A95EAF7852B808333
:1011200025FF1FC08EE0689FF0011124E45FFF4D92
:1011300093858285E92FE695E695E695F0E044E013
:10114000849FE00DF11D1124E05FF24F5081492F83
:10115000477081E090E001C0880F4A95EAF7852B3F
:10116000808326FF1FC08EE0689FF0011124E45F9A
:10117000FF4D95858485E92FE695E695E695F0E0A7
:1011800024E0829FE00DF11D1124E05FF24F3081D9
:10119000292F277081E090E001C0880F2A95EAF797
:1011A000832B808308951F920F920FB60F92112404
:1011B000E0E0FDE08081866880836BE087E60E9446
:1011C000EA076AE08EE70E94EA0769E083E70E9487
:1011D000EA0765E082E00E94EA0764E082E60E9496
:1011E000EA0763E087E40E94EA070E949900C82F9B
:1011F0006BE08FE40E94EA076AE08FE40E94EA074E
:1012000069E08EE50E94EA0768E082E40E94EA074E
:1012100067E083E60E94EA0765E08FE40E94EA0740
:1012200064E082E40E94EA0763E082E40E94EA0745
:1012300062E083E60E94EA0761E082E40E94EA0736
:10124000EC2FF0E0EC54FF4D2081822F20FF05C0F1
:101250002091120D20642093120D81FF05C0209172
:10126000160D20642093160D82FF05C020911A0DE3
:10127000206420931A0D83FF05C020911E0D206865
:1012800020931E0D84FF05C020911A0D2068209325
:101290001A0D85FF05C02091120D20682093120DB4
:1012A00086FF05C08091160D80688093160D0E9400
:1012B000990028E030E090E861E042E011C06093DE
:1012C000420600C000C0000052E04093420600C049
:1012D00000C000004093410696952150310931F03D
:1012E000582F592361F760934106EBCF81E080933B
:1012F000420600C000C000005093420600C000C07B
:101300000000809148065093410600C000C00000D4
:10131000817008952EE0829FC0011124FC01E45FDA
:10132000FF4D8181A081B0E0AA0FBB1FAA0FBB1F98
:10133000982F969596959695A90FB11DA05FB24FDF
:101340004C91282F277081E090E0BC0102C0660F0D
:10135000771F2A95E2F79B01242B2C932381A281EE
:10136000B0E0AA0FBB1FAA0FBB1F322F36953695D0
:101370003695A30FB11DA05FB24F4C912770BC01F1
:1013800002C0660F771F2A95E2F79B01242B2C934E
:101390002581A481B0E0AA0FBB1FAA0FBB1F322F6B
:1013A000369536953695A30FB11DA05FB24F4C917F
:1013B0002770BC0102C0660F771F2A95E2F79B01D8
:1013C000242B2C932781A681B0E0AA0FBB1FAA0F64
:1013D000BB1F322F369536953695A30FB11DA05FF2
:1013E000B24F4C912770BC0102C0660F771F2A953F
:1013F000E2F79B01242B2C932185A085B0E0AA0F56
:10140000BB1FAA0FBB1F322F369536953695A30FFB
:10141000B11DA05FB24F4C912770BC0102C0660F96
:10142000771F2A95E2F79B01242B2C932385A28515
:10143000B0E0AA0FBB1FAA0FBB1F322F36953695FF
:101440003695A30FB11DA05FB24F4C912770BC0120
:1014500002C0660F771F2A95E2F79B01242B2C937D
:101460002585E485F0E0EE0FFF1FEE0FFF1F322F02
:10147000369536953695E30FF11DE05FF24F3081DA
:10148000277001C0880F2A95EAF78095832380830F
:1014900008950F931F93CF93DF93D82F8B01C42F01
:1014A00000C000C0000081E08093410600C000C081
:1014B000000082E08093410684E60E9459098D2F46
:1014C0000E945909AFEFAC0FCC23B9F1F801B0E09D
:1014D0001196A00FB11F61E071E092E0519128E0F8
:1014E00030E080E810C06093420600C000C00000F9
:1014F0009093420600C000C000009093410686957C
:101500002150310931F0482F452369F76093410696
:10151000ECCF7093420600C000C0000090934206DA
:1015200000C000C00000809148069093410600C0B2
:1015300000C00000EA17FB0789F681E080934106AE
:1015400000C000C0000092E09093420600C000C0BE
:1015500000008093420600C000C0000080E0DF91E0
:10156000CF911F910F91089500C000C0000021E0AD
:101570002093410600C000C0000022E020934106F5
:1015800048E050E020E871E032E011C0709342067C
:1015900000C000C0000062E03093420600C000C0FE
:1015A00000003093410626954150510931F0622FD9
:1015B000647661F770934106EBCF21E020934206F9
:1015C00000C000C000006093420600C000C00000E0
:1015D000209148066093410600C000C0000028E04A
:1015E00030E071E042E061E07093410600C000C06D
:1015F000000052E04093420600C000C0000040934B
:1016000041062150310979F76093420600C000C0BD
:1016100000005093420600C000C000002091480620
:101620005093410600C000C000005093420600C025
:1016300000C0000000C000C000006093410600C070
:1016400000C000005093410648E050E020E871E0FF
:1016500032E011C07093420600C000C0000062E09A
:101660003093420600C000C000003093410626952A
:101670004150510931F0622F657661F77093410650
:10168000EBCF21E02093420600C000C00000609331
:10169000420600C000C00000209148066093410649
:1016A00000C000C00000FC01BC01685F7F4F32E059
:1016B000A1E088E090E020E850E03093420600C0CE
:1016C00000C000004091480640FD522B42E030939C
:1016D000410600C000C000002695019771F75193A4
:1016E0006E177F07C9F44093420600C000C0000097
:1016F0004093410681E08093410600C000C0000095
:101700004093420600C000C000008093420600C023
:1017100000C0000080E00895A093410600C000C012
:1017200000003093420600C000C000003093410624
:1017300000C000C00000A093420600C000C000002E
:10174000B8CFFC0100C000C0000081E080934106DA
:1017500000C000C0000082E08093410628E030E035
:1017600090E851E011C05093420600C000C0000054
:1017700042E08093420600C000C000008093410612
:1017800096952150310931F0492F447661F75093F5
:101790004106EBCF81E08093420600C000C000000C
:1017A0004093420600C000C000008091480640936C
:1017B000410600C000C0000028E030E090E851E0A1
:1017C00011C05093420600C000C0000082E0409368
:1017D000420600C000C0000040934106969521508B
:1017E000310931F0892F8E7061F750934106EBCFAC
:1017F00091E09093420600C000C000008093420632
:1018000000C000C00000209148068093410600C03F
:1018100000C000008093420600C000C0000000C06D
:1018200000C000009093410600C000C000008093FB
:10183000410628E030E090E851E042E011C05093CA
:10184000420600C000C0000082E04093420600C093
:1018500000C000004093410696952150310931F0B7
:10186000892F857661F750934106EBCF91E09093F5
:10187000420600C000C000008093420600C000C0C5
:101880000000909148068093410600C000C000000F
:1018900028E030E090E860E042E04093420600C07B
:1018A00000C000005091480650FD692B82E0409333
:1018B000410600C000C0000096952150310969F72B
:1018C00060838093420600C000C000008093410600
:1018D00091E09093410600C000C000008093420652
:1018E00000C000C000009093420600C000C000008D
:1018F00080E00895CF93DF93CDB7DEB7A297CDBF39
:10190000DEBF21E02093430087E080933006809380
:101910003106809333068093340680933506809396
:10192000360680935406809355068093560680931E
:10193000D0068093D1068093D2068093D3068093FD
:10194000D4068093D5068093D6068093D7068093DD
:101950007007809371078093720780937307809359
:101960007407809375078093770790914A069F7755
:1019700090934A068093570698E19093500690936F
:10198000510682E08093B2009093520690935306E2
:101990008093CA01E0E2F0E0E4911092CA01E09382
:1019A0004C028093CA01E1E2F0E0E4911092CA0196
:1019B000E0934D0294E19093410280934202109291
:1019C000600290E19093610293E09093720097E53A
:1019D000909370009FE5909373009093750038ED9D
:1019E00034BF2093960094E09093000D98EF90936D
:1019F000010D9FE39093020D9091000D96689093D6
:101A0000000D1092070D34BF9091A2009160909349
:101A1000A20090914800917F966090934800909129
:101A20004800916090934800909160069160909377
:101A300060069091600692609093600690E89093A3
:101A400021069093250680933206209329068091E3
:101A50002A06846080932A0678948091160D806807
:101A60008093160D8091160D80628093160D8091E3
:101A7000160D88608093160D8091160D82608093FC
:101A8000160D8091150D80688093150D8091150DB0
:101A900080628093150D8091150D88608093150DDF
:101AA0008091150D82608093150D8091140D8068D2
:101AB0008093140D8091140D80628093140D809199
:101AC000140D88608093140D8091140D82608093B2
:101AD000140D0FEB17E229E0015010402040E1F710
:101AE00000C00000198241E0BE016F5F7F4F88E1B6
:101AF0000E94490A88E0898341E0BE016F5F7F4F01
:101B00008DE00E94490A8091000D86688093000D47
:101B1000929908C211E045E0D42E53E0F52E0DEC69
:101B200080911D0D816080931D0D48E050E060E0C4
:101B300070E0CE0101960E949217CE0101960E949C
:101B4000B70088958091000D86688093000DCE01C6
:101B500001960E94A10B898181FD04C284E190E07D
:101B60000E949E17882329F080911E0D816080932A
:101B70001E0D80911E0D806180931E0DCE01019679
:101B80000E94B40ACE0101960E94B7008895809108
:101B9000000D86688093000D8091100D8061809308
:101BA000100D8091140D80618093140D8091180D9B
:101BB00080618093180D8091180D80628093180DBC
:101BC0008091100D80628093100D8091100D8064C3
:101BD0008093100D8091140D80648093140D80917A
:101BE000100D80688093100D8091140D8068809393
:101BF000140D8091150D81608093150D8091190D44
:101C000081608093190D8091110D84608093110D76
:101C10008091150D84608093150D8091190D84605D
:101C20008093190D8091150D88608093150D80911A
:101C3000110D80618093110D8091150D806180934D
:101C4000150D8091190D80618093190D8091190DEA
:101C500080628093190D8091110D80628093110D27
:101C60008091110D80648093110D8091150D806419
:101C70008093150D8091190D80648093190D8091CA
:101C80001D0D806880931D0D8091150D80688093D7
:101C9000150D8091160D81608093160D8091160DA3
:101CA00082608093160D109372001093400230E80A
:101CB0003A95F1F700C047E04A95F1F7000010931C
:101CC0004602D09240028091460280FFFCCF809174
:101CD000500210924002F092720064E68602C00147
:101CE000112497FD45C1880F892F881F990B809F6C
:101CF000E12D1124E695E695E695F0E0EC54FF4DD4
:101D0000208120FF05C03091100D31603093100DFF
:101D100021FF05C03091140D31603093140D22FF66
:101D200005C03091180D31603093180D23FF05C0A8
:101D300030911C0D326030931C0D24FF05C0309192
:101D4000180D32603093180D25FF05C03091100D2D
:101D500032603093100D26FF05C02091140D2260D3
:101D60002093140D809F912D11249695969596950C
:101D70007AE0979F80191124E82FF0E0EC54FF4D92
:101D8000808180FF05C09091100D94609093100D9C
:101D900081FF05C09091140D94609093140D82FF03
:101DA00005C09091180D94609093180D83FF05C0A5
:101DB00090911C0D986090931C0D84FF05C090912C
:101DC000180D98609093180D85FF05C09091100D27
:101DD00098609093100D86FF05C08091140D886067
:101DE0008093140D80911A0D886080931A0D809154
:101DF000120D88608093120D8091120D8061809386
:101E0000120D8091160D80618093160D80911A0D30
:101E1000806180931A0D80911E0D806280931E0D4B
:101E200080911A0D806280931A0D8091120D80624C
:101E30008093120D80911A0D806880931A0D809105
:101E4000120D80688093120D88958091000D866830
:101E50008093000D929B64CE65C08091140D8160CB
:101E60008093140D8091100D82608093100D8091ED
:101E7000140D82608093140D8091100D8460809306
:101E8000100D8091140D84608093140D8091100DBD
:101E900088608093100D8091140D88608093140DDC
:101EA0008091110D80618093110D8091150D8061DD
:101EB0008093150D8091190D80618093190D80918B
:101EC000150D80628093150D8091150D80648093AF
:101ED000150D8091150D80688093150D8091160D5C
:101EE00081608093160D8091120D84608093120D95
:101EF0008091160D84608093160D80911A0D846078
:101F000080931A0D80911E0D886080931E0D809124
:101F1000120D88608093120D88958091000D86685F
:101F20008093000D939927C082E190E00E949E1754
:101F3000882309F492CF48E050E06AE070E0CE01D7
:101F400001960E94921780911D0D816080931D0D56
:101F500080911E0D806180931E0DCE0101960E941E
:101F6000B700DACF80911C0D806180931C0DF6CDF7
:101F700081589F4FB8CE81E08093720080934002D9
:101F800090E89A95F1F700C0E7E0EA95F1F70000D4
:101F90008093460285E0809340028091460280FF54
:101FA000FCCF809150021092400293E09093720017
:101FB000F4E68F02C001112497FD4EC0880F892FCF
:101FC000881F990B883108F445C084E190E00E9495
:101FD0009E17823018F081E00E94F70888E090E0B8
:101FE0000E949E17182F8230D0F582E190E00E9467
:101FF0009E178230B8F183E00E94F70881E0809359
:1020000072008093400270E87A95F1F700C097E083
:102010009A95F1F700008093460285E08093400294
:102020008091460280FFFCCF8091500210924002C6
:1020300093E090937200E4E68E02C001112497FFB2
:1020400002C081589F4F880F892F881F990B8831B4
:1020500008F0C1C10E94A60081589F4FAFCF82E017
:102060000E94F708111151C0811171C06BE08DE61B
:102070000E94EA076AE08FE40E94EA0769E087E4C9
:102080000E94EA0765E083E40E94EA0764E087E0D3
:102090000E94EA0763E083E60E94EA0762E083E4C5
:1020A0000E94EA0788E0898341E0BE016F5F7F4FAD
:1020B00088E10E94490A0FEB17E229E00150104025
:1020C0002040E1F700C00000198241E0BE016F5FCF
:1020D0007F4F88E10E94490A198241E0BE016F5F8B
:1020E0007F4F8EE00E94490A48E050E060E070E0D7
:1020F000CE0101960E949217CE0101960E948007A0
:1021000081118AC687E00E94F708CE0101960E94DD
:10211000A10B898181FD78C584E190E00E949E1722
:102120008823C1F082E190E00E949E17882309F481
:102130004DC648E050E06AE070E0CE0101960E9492
:102140009217CE0101960E94B7000E94990084E088
:102150000E94F70882E190E00E949E17882309F40C
:1021600031C348E050E06AE070E0CE0101960E9481
:102170009217CE0101960E948007882309F414C1AA
:1021800088958E01075F1F4F8895C8010E94B40A89
:102190009F85292F22952F708889382F32953F707F
:1021A000F6E03F9F8019112436E0239F90191124F7
:1021B000923308F4F6C080FD11C021E0280F822F71
:1021C0006AE00E94DF17982F990F890F880F820FFE
:1021D000888B48E0B80180E00E94490AB801CE012E
:1021E00041960E94BB06BE016F5F7F4FCE014896AD
:1021F0000E94BB06988D8989891708F035C6845CD2
:10220000898B21E0182F191B398D8A89422F50E0C4
:10221000430F511D682F70E0641775070CF020C63E
:10222000845C8A8B91E0831BF82EF21A4A8D8B898D
:10223000292F30E0240F311D682F70E062177307DB
:102240000CF010C6885E8B8B21E0841B582E591A27
:102250004B8D5C8D6D8D7E8D420F511D611D711DED
:102260008C899D89AE89BF8984179507A607B70712
:1022700008F4A5C2841B950BA60BB70B6C01EA2EC4
:10228000812F6AE00E94DF17082F4AE0849F10190F
:1022900011245AE0652E712C812CAA24A394B12C10
:1022A0007FE3272E312C20E4C21622E4D2062FE051
:1022B000E20608F09AC0EC2D7D2D8E2D46E0942E7E
:1022C000AF8EB8A2B52C502E29A23AA23F2CF12EE7
:1022D0006E2F482D93010E94EB17462E072F182FC3
:1022E0006E2F7AE0479E60191124892D0E946605A1
:1022F0009394E42D702F812F9CE09912E9CF1F2D2C
:10230000052D5B2CF32CAF8CB8A029A03AA03DEC96
:10231000432E47E1451508F451C0852D6AE00E941F
:10232000DF17982E652DE6EF8E9F600D112484E057
:102330000E946605692D85E00E946605FBE3FF1596
:10234000D0F1F49C912C11249694969496946F2D30
:102350002AE0929E6019112482E00E946605692D90
:1023600083E00E946605063090F4602F81E00E94B1
:1023700066051A3040F4612F80E00E94660588955A
:102380001F5F1A30C1F70F5F10E0063071F7F3944A
:10239000929B02C093990BC088ED84BF81E080932B
:1023A000790080FD0ACF1ACF88E00E94F70800E08C
:1023B0003CE3F312C6CF5394F12CABCF6FEFC61AA8
:1023C000D60AE60AAE2DC60187709927AA2701977B
:1023D000A10509F413CEAE2DC6018F779927AA2740
:1023E000892B8A2BA1F1512C5ECF69E086E00E94F7
:1023F000660569E087E00E94660569E088E00E9462
:10240000660569E089E00E94660569E08AE00E944D
:10241000660569E08BE00E94660569E080E00E9445
:10242000660565E081E00E94660569E082E00E9441
:10243000660565E083E00E94660563E084E00E9433
:10244000660562E085E00E9466050E949900809121
:10245000000D86688093000DA6EAB0E220E030E02F
:1024600083E490E0022E02C0959587950A94E2F7E6
:1024700080FF1BC011968C9111979C91E82FE695D7
:10248000E695E695F0E044E0949FE00DF11D1124FF
:10249000E05FF24F40818770B50102C0660F771F81
:1024A0008A95E2F7CB01842B80832F5F3F4F1296F2
:1024B00027303105A9F6A8E9B0E220E030E08BE54D
:1024C00090E0022E02C0959587950A94E2F780FF6E
:1024D0001BC011968C9111979C91E82FE695E6957B
:1024E000E695F0E074E0979FE00DF11D1124E05FA8
:1024F000F24F40818770250102C0440C551C8A951B
:10250000E2F7C201842B80832F5F3F4F1296273062
:102510003105A9F6AAE8B0E220E030E0C101022EC0
:1025200002C0959587950A94E2F780FF1BC011962B
:102530008C9111979C91E82FE695E695E695F0E051
:1025400044E0949FE00DF11D1124E05FF24F4081C3
:102550008770B50102C0660F771F8A95E2F7CB013D
:10256000842B80832F5F3F4F129627303105B1F6C1
:10257000AEE7B0E221E030E080E390E0022E02C05E
:10258000959587950A94E2F780FF1BC011968C9170
:1025900011979C91E82FE695E695E695F0E074E0BA
:1025A000979FE00DF11D1124E05FF24F408187708D
:1025B000250102C0440C551C8A95E2F7C201842B08
:1025C00080832F5F3F4F129627303105A9F6AEE684
:1025D000B0E220E030E08FE790E0022E02C0959557
:1025E00087950A94E2F780FF1BC011968C91119792
:1025F0009C91E82FE695E695E695F0E044E0949FFF
:10260000E00DF11D1124E05FF24F40818770B501AC
:1026100002C0660F771F8A95E2F7CB01842B808377
:102620002F5F3F4F129627303105A9F6A2E5B0E2A1
:1026300020E030E043E350E0CA01022E02C095954D
:1026400087950A94E2F780FF1BC011968C91119731
:102650009C91E82FE695E695E695F0E074E0979F6B
:10266000E00DF11D1124E05FF24F608187702501BC
:1026700002C0440C551C8A95E2F7C201862B808368
:102680002F5F3F4F129627303105B1F6ACE0B0E234
:102690009D0140E050E0C101042E02C09595879550
:1026A0000A94E2F780FF1AC0F90181AD90ADE82FDE
:1026B000E695E695E695F0E064E0969FE00DF11D65
:1026C0001124E05FF24F60818770250102C0440C45
:1026D000551C8A95E2F7C201862B80834F5F5F4FBE
:1026E0002E5F3F4F47305105B1F62CE030E240E01D
:1026F00050E06DE670E01F8FCB01042E02C095956F
:1027000087950A94E2F780FF1AC0F90183A592A584
:10271000E82FE695E695E695F0E014E0919FE00D50
:10272000F11D1124E05FF24F90808770250102C0F7
:10273000440C551C8A95E2F7C201892980834F5FBA
:102740005F4F2E5F3F4F47305105B1F61F8D21E09F
:1027500030E046E750E0CA01022E02C09595879509
:102760000A94E2F780FF1DC05F968C915F975E969A
:102770009C915E97E82FE695E695E695F0E064E09B
:10278000969FE00DF11D1124E05FF24F608187708C
:10279000250102C0440C551C8A95E2F7C201862B24
:1027A00080832F5F3F4F129627303105A1F6889521
:1027B0008091000D86688093000D1F5F14CE85E028
:1027C0000E94F70888E18093570683EF91E0019714
:1027D000F1F700C0000081E08093490680914A062D
:1027E000806880934A068E01075F1F4FFF24F39491
:1027F00017C0DE2CDF24EE2009F410C2C8010E94AD
:10280000B40AC8010E94B700889580911D0D8E7F83
:1028100080931D0D80911E0D8F7E80931E0DED2CDB
:102820008091480687FFE5CFEFE4F3EC3197F1F7AD
:1028300000C0000081E090E00F8F18A320914806AF
:1028400027FFF7C130E02091000D26682093000D8E
:10285000432F50E0FA013696E770FF27E050F04E24
:10286000E081DA01A050B04E2C91FE2FF170EF2ED6
:102870000E2F0270F02E7E2F74706E2F68705E2FF8
:1028800050714E2F4072E074BE2E122F1270A12E86
:10289000E22FE4709E2EF22FF8708F2E022F00711F
:1028A000702E122F1072612EE22FE0745E2E122F06
:1028B0001170ECE0F0E226E01123D9F0D180A08184
:1028C000B0E0AA0FBB1FAA0FBB1FCD2CC694C694A5
:1028D000C694AC0DB11DA05FB24F4C900D2D07708A
:1028E0001C0102C0220C331C0A95E2F76101C428C6
:1028F000CC92AA20D9F0D380A281B0E0AA0FBB1F4E
:10290000AA0FBB1FCD2CC694C694C694AC0DB11DA6
:10291000A05FB24F4C900D2D07701C0102C0220C1D
:10292000331C0A95E2F76101C428CC929920D9F0B2
:10293000D580A481B0E0AA0FBB1FAA0FBB1FCD2C6E
:10294000C694C694C694AC0DB11DA05FB24F4C9016
:102950000D2D07701C0102C0220C331C0A95E2F7F2
:102960006101C428CC928820D9F0D780A681B0E03C
:10297000AA0FBB1FAA0FBB1FCD2CC694C694C6942A
:10298000AC0DB11DA05FB24F4C900D2D07701C0116
:1029900002C0220C331C0A95E2F76101C428CC92D4
:1029A0007720D9F0D184A085B0E0AA0FBB1FAA0F71
:1029B000BB1FCD2CC694C694C694AC0DB11DA05FB0
:1029C000B24F4C900D2D07701C0102C0220C331C1D
:1029D0000A95E2F76101C428CC926620D9F0D3842D
:1029E000A285B0E0AA0FBB1FAA0FBB1FCD2CC694B7
:1029F000C694C694AC0DB11DA05FB24F4C900D2D86
:102A000007701C0102C0220C331C0A95E2F7610119
:102A1000C428CC925520D9F0D584A485B0E0AA0F63
:102A2000BB1FAA0FBB1FCD2CC694C694C694AC0D79
:102A3000B11DA05FB24F4C900D2D07701C0102C05C
:102A4000220C331C0A95E2F76101C428CC92EE20D7
:102A5000D1F0D784C684AD2DA695A695A695B0E0F5
:102A600004E0C09EA00DB11D1124A05FB24F4C9098
:102A70000D2D07701C0102C0220C331C0A95E2F7D1
:102A80006101C428CC92FF20D9F0D188A089B0E0A0
:102A9000AA0FBB1FAA0FBB1FCD2CC694C694C69409
:102AA000AC0DB11DA05FB24F4C900D2D07701C01F5
:102AB00002C0220C331C0A95E2F76101C428CC92B3
:102AC0007723D9F0D388A289B0E0AA0FBB1FAA0F41
:102AD000BB1FCD2CC694C694C694AC0DB11DA05F8F
:102AE000B24F4C900D2D07701C0102C0220C331CFC
:102AF0000A95E2F76101C428CC926623D9F0D58803
:102B0000A489B0E0AA0FBB1FAA0FBB1FCD2CC6948F
:102B1000C694C694AC0DB11DA05FB24F4C900D2D64
:102B200007701C0102C0220C331C0A95E2F76101F8
:102B3000C428CC925523D9F0D788A689B0E0AA0F33
:102B4000BB1FAA0FBB1FCD2CC694C694C694AC0D58
:102B5000B11DA05FB24F4C900D2D07701C0102C03B
:102B6000220C331C0A95E2F76101C428CC9244235D
:102B7000D9F0D18CA08DB0E0AA0FBB1FAA0FBB1F4C
:102B8000CD2CC694C694C694AC0DB11DA05FB24FB7
:102B90004C900D2D07701C0102C0220C331C0A95AD
:102BA000E2F76101C428CC92BB20D9F0D38CA28D6E
:102BB000B0E0AA0FBB1FAA0FBB1FCD2CC694C694B2
:102BC000C694AC0DB11DA05FB24F4C900D2D077097
:102BD0001C0102C0220C331C0A95E2F76101C428D3
:102BE000CC9221507C96211167CE000088952091CF
:102BF000280622FDFBCF3F5F383009F430E02091FA
:102C0000480627FD20CE1ACE61E084E190E00E94C4
:102C1000AE178091CF0187FDFCCF7ECA80911D0D3C
:102C2000816080931D0D80911E0D806180931E0D2B
:102C3000E5CD0F8D18A18091000D86688093000D61
:102C400081E4898341E0BE016F5F7F4F8FE00E9486
:102C5000490ACE0101960E94B40A48E050E06AE0B9
:102C600070E0CE0101960E94361761E082E190E0AB
:102C70000E94AE178091CF0187FDFCCF80914A065C
:102C80008F7780934A0687E080935706E6E0FE2E12
:102C900068011F2D812F0E948A091F5F1C30D1F708
:102CA000860180E00E948A0981E00E948A0982E010
:102CB0000E948A0983E00E948A0984E00E948A09AE
:102CC00085E00E948A09809165068160809365068F
:102CD0008FE097E20197F1F700C00000809166064F
:102CE00081608093660680916506826080936506A8
:102CF000EFE0F7E23197F1F700C00000809166063F
:102D00008260809366068091650681608093650687
:102D10008FE097E20197F1F700C00000809166060E
:102D20008160809366068091650682608093650667
:102D3000EFE0F7E23197F1F700C0000080916606FE
:102D40008260809366068EE134E69091650691601C
:102D500090936506982FE9EFF0E03197F1F700C006
:102D600000009150C1F790916606916090936606BD
:102D7000932F981B292F07C0E9EFF0E03197F1F767
:102D800000C0000021502111F7CF2091650622607C
:102D900020936506282FE9EFF0E03197F1F700C0A6
:102DA00000002150C1F7209166062260209366063C
:102DB00007C0E9EFF0E03197F1F700C00000915053
:102DC0009111F7CF8A5009F0C0CFDEC96BE083E4E0
:102DD0000E94EA076AE087E00E94EA0769E083E66A
:102DE0000E94EA0768E083E40E94EA0765E08FE456
:102DF0000E94EA0764E082E40E94EA0763E082E45A
:102E00000E94EA0762E083E60E94EA0761E082E44A
:102E10000E94EA070E94990081E4898741E0BE018F
:102E2000675F7F4F8FE00E94490A48E0BE016F5FF5
:102E30007F4F80E00E94490A44E068E070E288E049
:102E40000E94490A61E088E090E00E94AE178091FC
:102E5000CF0187FDFCCF88ED84BF81E080937900AE
:102E600090E0E1C920E0F1C920E0CCC9CF92DF9227
:102E7000EF92FF920F931F93CF93DF932091CC019A
:102E800028602093CC01C0E20FEF17E0D5E3FF24C8
:102E9000F39441155105C1F1262F2F713C2F321BA0
:102EA000232F30E04217530708F49A01D22EF8017D
:102EB000E21BF30BE617F70710F40E94D117E0911D
:102EC000CF01E7FDFCCFC82EDB01B05FFC01E09035
:102ED000CF01E7FCFCCFE190ED92EE2EEC18ED1463
:102EE000B0F31092C2017093C1016093C001D093FE
:102EF000CA01E8EDE4BFF092CB01820F931F620F8D
:102F0000731F421B530BC5CF8091CC01877F8093E9
:102F1000CC01DF91CF911F910F91FF90EF90DF9047
:102F2000CF900895E0ECF1E0A785A7FDFDCFA48543
:102F3000A860A4876050704F0C94D61703D080818E
:102F400099270895E0ECF1E0378537FDFDCF348512
:102F500038603487FC01E050F04F0895262FE0ECF4
:102F6000F1E0378537FDFDCF3485377F34873785EE
:102F700031FF09C036E3328738ED34BF31E03387A3
:102F8000378537FDFDCF33E332878083918312820B
:102F9000248325E3228728ED31E024BF338701967F
:102FA000089581E090E0F8940C941D18FB01DC0179
:102FB00002C001900D9241505040D8F70895991BDE
:102FC00079E004C0991F961708F0961B881F7A9520
:102FD000C9F78095089559E1AA27991B0AC0111CC9
:102FE000AA1F991F1216A307940718F0121AA30B11
:102FF000940B661F771F881F5A9589F76095709507
:103000008095212D3A2F492F11240895EE0FFF1F8F
:10301000881F8BBF0790F691E02D1994A29FB001F5
:10302000B39FC001A39F700D811D1124911DB29FFC
:0E303000700D811D1124911D0895F894FFCF9D
:10303E00010240100804402054734C330016011650
:10304E0002160317021700170117001401140214B9
:10305E0003150215001501150012011202120313B9
:10306E0002130013011300100110021003110211BC
:10307E0000110111000E010E020E030F020F000FC0
:10308E00010F000C010C020C030D020D000D010DC1
:10309E00000A010A020A030B020B000B010B0008C7
:1030AE0001080208030902090009010900060106C8
:1030BE0002060307020700070107000401040204C9
:1030CE0003050205000501050002010202020303C9
:1030DE0002030003010300000100020003010201CC
:0E30EE00000101013F305B79746D6F387F7D0A
:00000001FF
