:100000000C946C000C9485000C94D0010C94850029
:100010000C9485000C9485000C9485000C9485004C
:100020000C9485000C9485000C9485000C9485003C
:100030000C9485000C9485000C9485000C9485002C
:100040000C9485000C9485000C9485000C9485001C
:100050000C9485000C9485000C9485000C9485000C
:100060000C9485000C9485000C9485000C948500FC
:100070000C9485000C9485000C9485000C948500EC
:100080000C9485000C9485000C9485000C948500DC
:100090000C9485000C9485000C9485000C94D1017F
:1000A0000C9485000C9485000C9485000C948500BC
:1000B0000C9485000C9485000C9485000C948500AC
:1000C0000C9485000C9485000C9485000C9485009C
:1000D0000C9485000C94850011241FBECFEFCDBF7A
:1000E000DFE3DEBF00E00CBF10E2A0E0B0E2E6EE2E
:1000F000F9E000E00BBF02C007900D92A23BB107F0
:10010000D9F70E94D2010C94F1040C94A101282F7C
:1001100080FF1FC04EE0649FF0011124E050F04EBC
:1001200091818081E92FE695E695E695F0E044E03F
:10013000849FE00DF11D1124E05FF24F5081492FA3
:10014000477081E090E001C0880F4A95EAF7852B5F
:10015000808321FF1FC08EE0689FF0011124E050D2
:10016000F04E93818281E92FE695E695E695F0E0E1
:1001700044E0849FE00DF11D1124E05FF24F5081B7
:10018000492F477081E090E001C0880F4A95EAF757
:10019000852B808322FF1FC08EE0689FF001112411
:1001A000E050F04E95818481E92FE695E695E6953D
:1001B000F0E044E0849FE00DF11D1124E05FF24F78
:1001C0005081492F477081E090E001C0880F4A9527
:1001D000EAF7852B808323FF1FC08EE0689FF00124
:1001E0001124E050F04E97818681E92FE695E6953F
:1001F000E695F0E044E0849FE00DF11D1124E05FFE
:10020000F24F5081492F477081E090E001C0880F84
:100210004A95EAF7852B808324FF1FC08EE0689FF4
:10022000F0011124E050F04E91858085E92FE6958C
:10023000E695E695F0E044E0849FE00DF11D112481
:10024000E05FF24F5081492F477081E090E001C09C
:10025000880F4A95EAF7852B808325FF1FC08EE023
:10026000689FF0011124E050F04E93858285E92FBC
:10027000E695E695E695F0E044E0849FE00DF11DFB
:100280001124E05FF24F5081492F477081E090E0E8
:1002900001C0880F4A95EAF7852B808326FF1FC08F
:1002A0008EE0689FF0011124E050F04E9585848522
:1002B000E92FE695E695E695F0E024E0829FE00DD3
:1002C000F11D1124E05FF24F3081292F277081E06A
:1002D00090E001C0880F2A95EAF7832B8083089568
:1002E00028E030E090E861E042E011C0609342060F
:1002F00000C000C0000052E04093420600C000C0B1
:1003000000004093410696952150310931F0582F55
:10031000592361F760934106EBCF81E08093420659
:1003200000C000C000005093420600C000C00000A2
:10033000809148065093410600C000C000008170C3
:1003400008951F920F920FB60F9211248091000D05
:1003500086688093000D6BE087E60E9487006AE064
:100360008EE70E94870069E083E70E94870065E0CE
:1003700082E00E94870064E082E60E94870063E0DA
:1003800087E40E9487008091000D82608093000DB9
:1003900088958091000D8D7F8093000D8895F3CF17
:1003A00018951895CF93DF9300D01F92CDB7DEB785
:1003B00085E08093430084E08093000D88EF809374
:1003C000010D8FE38093020D8091000D866880936C
:1003D000000D1092070D88ED84BF8091A20081600E
:1003E0008093A20080914800817F866080934800BE
:1003F0008091480081608093480080E880932106C6
:100400008093250682E08093320681E0809329065E
:1004100080912A06846080932A0688E180935006A2
:100420008093510678942091780029838FE78093F8
:1004300078008091000D86688093000D6BE082E467
:100440000E9487006AE08FE40E94870069E08DE6E1
:100450000E94870068E08FE40E94870067E087E4DD
:100460000E948700498160E040FF0DC28EE50E9436
:100470008700598161E051FF95C28FE40E94870097
:10048000698162FF8AC262E087E60E948700798103
:1004900063E074FF7EC283E70E948700898164E085
:1004A00085FF73C28DE60E9487009981907C65E08C
:1004B00009F067C280E40E948700AFEFB4E32CE04C
:1004C000A150B0402040E1F700C0000000C000C0D3
:1004D000000081E08093410600C000C0000082E07F
:1004E0008093410684E60E9470018DE00E947001B5
:1004F00028E030E080E851E042E083FF3FC25093C3
:10050000420600C000C0000092E04093420600C0D6
:1005100000C000004093410686952150310969F7DB
:1005200081E08093420600C000C000009093420624
:1005300000C000C00000209148069093410600C012
:1005400000C000008093410600C000C000009093EE
:10055000420600C000C000008093420600C000C0F8
:10056000000088958091000D86688093000DEFE370
:1005700019821A821B821C82FAE06F2E712C812C48
:10058000A4E62A2E312C412CD9809A80FB8104E5E7
:1005900010E276E0E72EF12C4AC13C91822F86953D
:1005A0008695869590E0B4E03B9F800D911D1124C7
:1005B000805F924FDC013C91277041E050E001C028
:1005C000440F2A95EAF7242F209523232C93C70163
:1005D000880F991F9C01220F331F220F331F220FF8
:1005E000331F281B390B2050304ED90113964C91E4
:1005F000139712962C9130E0220F331F220F331FD6
:10060000542F569556955695250F311D205F324F24
:10061000D901E1FDA5C15C91477061E070E001C0C6
:10062000660F4A95EAF7462F409545234C939C0167
:10063000220F331F220F331F220F331F281B390BAA
:100640002050304ED90115964C91159714962C9147
:1006500030E0220F331F220F331F542F569556952B
:100660005695250F311D205F324FD901E2FD6AC139
:100670005C91477061E070E001C0660F4A95EAF74F
:10068000462F409545234C939C01220F331F220F88
:10069000331F220F331F281B390B2050304ED90136
:1006A00017964C91179716962C9130E0220F331F16
:1006B000220F331F542F569556955695250F311DF1
:1006C000205F324FD901E3FD2FC15C91477061E09B
:1006D00070E001C0660F4A95EAF7462F4095452322
:1006E0004C939C01220F331F220F331F220F331F05
:1006F000281B390B2050304ED90119964C9119976F
:1007000018962C9130E0220F331F220F331F542FE5
:10071000569556955695250F311D205F324FD901BC
:10072000E4FDF4C05C91477061E070E001C0660FC9
:100730004A95EAF7462F409545234C939C01220F9A
:10074000331F220F331F220F331F281B390B20505A
:10075000304ED9011B964C911B971A962C9130E084
:10076000220F331F220F331F542F5695569556953F
:10077000250F311D205F324FD901E5FDB9C05C91D5
:10078000477061E070E001C0660F4A95EAF7462FB6
:10079000409545234C939C01220F331F220F331F9A
:1007A000220F331FA901481B590BCA018050904EDC
:1007B000DC011D962C911D971C968C9190E0880F62
:1007C000991F880F991F322F369536953695830FCE
:1007D000911D805F924FDC01E6FD59C03C9127706E
:1007E00041E050E001C0440F2A95EAF7242F2095FC
:1007F00023232C93025F1F4F7BE0E716F10409F4DB
:1008000059C06D2D792D8F2F442D91010E94D60452
:10081000EC2D8AE0689FE0191124F0E0E855FF4DC7
:10082000E0819FEFE91AF90ADC2C9A2CFB2D6D2D43
:10083000792D8F2F482D93010E94D604C62EA72E06
:10084000B82ED80111962C911197E0FFA6CE8C916D
:1008500090E0880F991F880F991F322F3695369593
:100860003695830F911D805F924FDC014C9127706C
:1008700061E070E002C0660F771F2A95E2F79B01E6
:10088000242B2C93A4CE80E40E948700F2CD4C91BF
:10089000277061E070E002C0660F771F2A95E2F7CB
:1008A0009B01242B2C93025F1F4F7BE0E716F10482
:1008B00009F0A7CF49815A816B817C814F5F5F4FDF
:1008C0006F4F7F4F49835A836B837C8388956981FF
:1008D0007A818B81482D93010E94D604E9815AE0E8
:1008E000659FE0191124F0E0E855FF4DE0814CCE02
:1008F0006C914770A1E0B0E002C0AA0FBB1F4A95FF
:10090000E2F7AD01462BD9014C9345CF6C9147706E
:10091000A1E0B0E002C0AA0FBB1F4A95E2F7AD010B
:10092000462BD9014C930ACF6C914770A1E0B0E0FF
:1009300002C0AA0FBB1F4A95E2F7AD01462BD901B1
:100940004C93CFCE6C914770A1E0B0E002C0AA0FEB
:10095000BB1F4A95E2F7AD01462BD9014C9394CECB
:100960006C914770A1E0B0E002C0AA0FBB1F4A958E
:10097000E2F7AD01462BD9014C9359CE5093410675
:10098000C0CD87E30E94870098CD80E40E94870055
:100990008CCD80E40E94870081CD62E080E40E94DB
:1009A000870075CD80E40E9487006ACD59E1AA27AF
:1009B000991B0AC0111CAA1F991F1216A30794079E
:1009C00018F0121AA30B940B661F771F881F5A95F5
:1009D00089F7609570958095212D3A2F492F112424
:0609E0000895F894FFCF1A
:1009E6000016011602160317021700170117001446
:1009F6000114021403150215001501150012011247
:100A06000212031302130013011300100110021047
:100A16000311021100110111000E010E020E030F47
:100A2600020F000F010F000C010C020C030D020D4A
:100A3600000D010D000A010A020A030B020B000B4E
:100A4600010B00080108020803090209000901094F
:100A56000006010602060307020700070107000455
:100A66000104020403050205000501050002010256
:100A76000202030302030003010300000100020057
:100A860003010201000101013F305B79746D6F388B
:020A96007F7D62
:00000001FF
