:100000000C947E000C9497000C94E8070C949700D5
:100010000C9497000C9497000C9497000C94970004
:100020000C9497000C9497000C9497000C949700F4
:100030000C9497000C9497000C9497000C949700E4
:100040000C9497000C9497000C9497000C949700D4
:100050000C9497000C9497000C9497000C949700C4
:100060000C9497000C9497000C9497000C949700B4
:100070000C9497000C9497000C9497000C949700A4
:100080000C9497000C9497000C9497000C94970094
:100090000C9497000C9497000C9497000C94E9072B
:1000A0000C9497000C9497000C9497000C94970074
:1000B0000C9497000C9497000C9497000C94970064
:1000C0000C9497000C9497000C9497000C94970054
:1000D0000C9497000C9497007B0773077B074707E6
:1000E0007B0747077B077B0747077B0747077B079C
:1000F0000C9447070C947B070C94730711241FBEC4
:10010000CFEFCDBFDFE3DEBF00E00CBF10E2A0E029
:10011000B0E2E0EEFBE200E00BBF02C007900D9200
:10012000AE3BB107D9F70E94840C0C94EE150C94E9
:10013000DA088091000D82608093000D889580918F
:10014000000D8D7F8093000D8895F3CFE0E0FDE0FA
:10015000808186688083E3E1FDE080818160808327
:10016000EFE1FDE08081816080830E949900DC01E5
:100170003C91832F82958F7026E0829F3019112445
:1001800011962C911197822F82958F7046E0849F53
:100190002019112412969C911297892F82958F70A5
:1001A00056E0859F9019112414965C911497852F21
:1001B00082958F7066E0869F5019112415964C9198
:1001C0001597842F82958F7076E0879F40191124B0
:1001D00016968C91682F62956F7076E0679F8019F4
:1001E00011246DEC869F612D1124669566956695A8
:1001F000E82F7AE0679FE0191124F0E0E855FF4D01
:100200006081E62F60FDE8C26091110D6B7F609305
:10021000110D6091150DE1FDE8C26B7F6093150D26
:100220006091190DE2FDE8C26B7F6093190D60913A
:100230001D0DE3FDE8C2677F60931D0D6091190DF0
:10024000E4FDE8C2677F6093190D6091110DE5FD33
:10025000E8C2677F6093110D6091150DE6FFE8C25B
:1002600068606093150DEDEC8E9FE12D1124E695ED
:10027000E695E695F0E0E855FF4D8081682F80FD1A
:100280001FC48091110D8E7F8093110D8091150DEB
:1002900061FD12C48E7F8093150D8091190D62FD52
:1002A00007C48E7F8093190D80911D0D63FDFCC3E3
:1002B0008D7F80931D0D8091190D64FDF1C38D7F9D
:1002C0008093190D8091110D65FDE6C38D7F80939C
:1002D000110D8091150D66FFDBC382608093150DB3
:1002E0008DEC589F812D1124869586958695E52F56
:1002F0006AE0869FE0191124F0E0E855FF4D808107
:10030000682F80FDBFC38091100D8F7B8093100DEF
:100310008091140D61FDB2C38F7B8093140D809189
:10032000180D62FDA7C38F7B8093180D80911C0D63
:1003300063FD9CC38F7780931C0D8091180D64FD25
:1003400091C38F778093180D8091100D65FD86C342
:100350008F778093100D8091140D66FF7BC38068AA
:100360008093140DEDEC5E9FE12D1124E695E6954A
:10037000E695F0E0E855FF4D8081682F80FD64C36D
:100380008091100D8F7E8093100D8091140D61FD72
:1003900057C38F7E8093140D8091180D62FD4CC35E
:1003A0008F7E8093180D80911C0D63FD41C38F7D5E
:1003B00080931C0D8091180D64FD36C38F7D809352
:1003C000180D8091100D65FD2BC38F7D8093100D4E
:1003D0008091140D66FF20C380628093140D8DEC14
:1003E000489F812D1124869586958695E42F7AE085
:1003F000879FE0191124F0E0E855FF4D8081682FB8
:1004000080FD04C38091100D8B7F8093100D80912F
:10041000140D61FDF7C28B7F8093140D8091180D30
:1004200062FDECC28B7F8093180D80911C0D63FDE3
:10043000E1C2877F80931C0D8091180D64FDD6C2A8
:10044000877F8093180D8091100D65FDCBC2877F4B
:100450008093100D8091140D66FFC0C28860809358
:10046000140DEDEC4E9FE12D1124E695E695E695F1
:10047000F0E0E855FF4D8081482F80FDA9C28091B2
:10048000100D8E7F8093100D8091140D41FD9CC244
:100490008E7F8093140D8091180D42FD91C28E7F46
:1004A0008093180D80911C0D43FD86C28D7F809333
:1004B0001C0D8091180D44FD7BC28D7F8093180D1B
:1004C0008091100D45FD70C28D7F8093100D80913D
:1004D000140D46FF65C282608093140D8DEC389F29
:1004E000812D1124869586958695E32F4AE0849F79
:1004F000E0191124F0E0E855FF4D8081482F80FD80
:1005000049C28091120D8F7B8093120D8091160D40
:1005100041FD3CC28F7B8093160D80911A0D42FDE8
:1005200031C28F7B80931A0D80911E0D43FD26C230
:100530008F7780931E0D80911A0D44FD1BC28F771B
:1005400080931A0D8091120D45FD10C28F77809314
:10055000120D8091160D46FF05C280688093160D1E
:10056000EDEC3E9FE12D1124E695E695E695F0E051
:10057000E855FF4D8081482F80FDEEC18091120D1E
:100580008F7E8093120D8091160D41FDE1C18F7E0B
:100590008093160D80911A0D42FDD6C18F7E8093F7
:1005A0001A0D80911E0D43FDCBC18F7D80931E0DD2
:1005B00080911A0D44FDC0C18F7D80931A0D8091EA
:1005C000120D45FDB5C18F7D8093120D8091160DE2
:1005D00046FFAAC180628093160D8DEC289F812D65
:1005E0001124869586958695E22F5AE0859FE0191D
:1005F0001124F0E0E855FF4D8081482F80FD8EC129
:100600008091120D8B7F8093120D8091160D41FD0C
:1006100081C18B7F8093160D80911A0D42FD76C1AA
:100620008B7F80931A0D80911E0D43FD6BC1877FD8
:1006300080931E0D80911A0D44FD60C1877F8093C9
:100640001A0D8091120D45FD55C1877F8093120DC3
:100650008091160D46FF4AC188608093160DEDEC1F
:100660002E9FE12D1124E695E695E695F0E0E855FC
:10067000FF4D8081282F80FD33C18091120D8E7F28
:100680008093120D8091160D21FD26C18E7F8093DF
:10069000160D80911A0D22FD1BC18E7F80931A0DBD
:1006A00080911E0D23FD10C18D7F80931E0D8091C2
:1006B0001A0D24FD05C18D7F80931A0D8091120DB6
:1006C00025FDFAC08D7F8093120D8091160D26FFB7
:1006D000EFC082608093160D8DEC989F812D1124C0
:1006E000869586958695E92F6AE0869FE019112404
:1006F000F0E0E855FF4D8081282F80FDD3C0809128
:10070000110D8F7B8093110D8091150D21FDC6C0B9
:100710008F7B8093150D8091190D22FDBBC08F7BBF
:100720008093190D80911D0D23FDB0C08F778093AC
:100730001D0D8091190D24FDA5C08F778093190D93
:100740008091110D25FD9AC08F778093110D8091B6
:10075000150D26FF8FC080688093150DEDEC9E9FD0
:10076000E12D1124E695E695E695F0E0E855FF4D7C
:100770008081282F80FD78C08091110D8F7E80931D
:10078000110D8091150D21FD6BC08F7E8093150D8D
:100790008091190D22FD60C08F7E8093190D80918C
:1007A0001D0D23FD55C08F7D80931D0D8091190D6A
:1007B00024FD4AC08F7D8093190D8091110D25FD78
:1007C0003FC08F7D8093110D8091150D26FF34C0A1
:1007D00080628093150D08956091110D646060939F
:1007E000110D6091150DE1FF18CD64606093150D3A
:1007F0006091190DE2FF18CD64606093190D60914E
:100800001D0DE3FF18CD686060931D0D6091190DFB
:10081000E4FF18CD68606093190D6091110DE5FF3C
:1008200018CD68606093110D6091150DE6FD18CD2F
:10083000677F6093150D17CD8F7D8093150D0895FB
:1008400080628093110DC0CF80628093190DB5CF67
:10085000806280931D0DAACF80618093190D9FCF78
:1008600080618093150D94CF8091110D80618093EC
:10087000110D87CF8F778093150D70CF806880938F
:10088000110D65CF80688093190D5ACF80688093D1
:100890001D0D4FCF80648093190D44CF80648093E9
:1008A000150D39CF8091110D80648093110D2CCFDF
:1008B0008D7F8093160D10CF82608093120D05CF2F
:1008C000826080931A0DFACE826080931E0DEFCE67
:1008D000816080931A0DE4CE81608093160DD9CE8D
:1008E0008091120D81608093120DCCCE877F809312
:1008F000160DB5CE88608093120DAACE88608093C5
:100900001A0D9FCE886080931E0D94CE84608093D4
:100910001A0D89CE84608093160D7ECE8091120DC3
:1009200084608093120D71CE8F7D8093160D55CE0D
:1009300080628093120D4ACE806280931A0D3FCE62
:10094000806280931E0D34CE806180931A0D29CE73
:1009500080618093160D1ECE8091120D8061809370
:10096000120D11CE8F778093160DFACD806880938B
:10097000120DEFCD806880931A0DE4CD80688093CE
:100980001E0DD9CD806480931A0DCECD80648093E6
:10099000160DC3CD8091120D80648093120DB6CDDB
:1009A0008D7F8093140D9ACD82608093100D8FCD32
:1009B00082608093180D84CD826080931C0D79CD68
:1009C00081608093180D6ECD81608093140D63CD8E
:1009D0008091100D81608093100D56CD877F80939C
:1009E000140D3FCD88608093100D34CD88608093C6
:1009F000180D29CD886080931C0D1ECD84608093D6
:100A0000180D13CD84608093140D08CD8091100DC6
:100A100084608093100DFBCC8F7D8093140DDFCC10
:100A200080628093100DD4CC80628093180DC9CC65
:100A3000806280931C0DBECC80618093180DB3CC76
:100A400080618093140DA8CC8091100D80618093FB
:100A5000100D9BCC8F778093140D84CC806880938D
:100A6000100D79CC80688093180D6ECC80688093CF
:100A70001C0D63CC80648093180D58CC80648093E7
:100A8000140D4DCC8091100D80648093100D40CCDE
:100A90008D7F8093150D24CC82608093110D19CC2D
:100AA00082608093190D0ECC826080931D0D03CC63
:100AB00081608093190DF8CB81608093150DEDCB8B
:100AC0008091110D81608093110DE0CBE62FF0E055
:100AD000E855FF4D4081242F90E0880F991FFC01BD
:100AE000EE0FFF1FEE0FFF1FEE0FFF1FE81BF90BAE
:100AF000E050F04E518140FD09C14081E52FE6955F
:100B0000E695E695F0E064E0469FE00DF11D1124C6
:100B1000E05FF24F7081652F677041E050E001C0E7
:100B2000440F6A95EAF7409547234083FC01EE0F96
:100B3000FF1FEE0FFF1FEE0FFF1FE81BF90BE0502A
:100B4000F04E5381E281F0E0EE0FFF1FEE0FFF1F2A
:100B5000452F469546954695E40FF11DE05FF24F0F
:100B60007081652F677041E050E001C0440F6A95C5
:100B7000EAF721FDFDC0409547234083FC01EE0FBD
:100B8000FF1FEE0FFF1FEE0FFF1FE81BF90BE050DA
:100B9000F04E5581E481F0E0EE0FFF1FEE0FFF1FD6
:100BA000452F469546954695E40FF11DE05FF24FBF
:100BB0007081652F677041E050E001C0440F6A9575
:100BC000EAF722FDD2C0409547234083FC01EE0F97
:100BD000FF1FEE0FFF1FEE0FFF1FE81BF90BE0508A
:100BE000F04E5781E681F0E0EE0FFF1FEE0FFF1F82
:100BF000452F469546954695E40FF11DE05FF24F6F
:100C00007081652F677041E050E001C0440F6A9524
:100C1000EAF723FDA7C0409547234083FC01EE0F70
:100C2000FF1FEE0FFF1FEE0FFF1FE81BF90BE05039
:100C3000F04E5185E085F0E0EE0FFF1FEE0FFF1F35
:100C4000452F469546954695E40FF11DE05FF24F1E
:100C50007081652F677041E050E001C0440F6A95D4
:100C6000EAF724FD7CC0409547234083FC01EE0F4A
:100C7000FF1FEE0FFF1FEE0FFF1FE81BF90BE050E9
:100C8000F04E5385E285F0E0EE0FFF1FEE0FFF1FE1
:100C9000452F469546954695E40FF11DE05FF24FCE
:100CA0007081652F677041E050E001C0440F6A9584
:100CB000EAF725FD51C0409547234083FC01EE0F24
:100CC000FF1FEE0FFF1FEE0FFF1FE81BF90BE05099
:100CD000F04E9585E485F0E0EE0FFF1FEE0FFF1F4D
:100CE000892F869586958695E80FF11DE05FF24F76
:100CF000308126FF25C0292F277081E090E001C0B8
:100D0000880F2A95EAF7832B80830895E081F0E02D
:100D1000EE0FFF1FEE0FFF1F452F46954695469598
:100D2000E40FF11DE05FF24F7081652F677041E0C5
:100D300050E001C0440F6A95EAF7472B4083F6CE96
:100D4000292F277081E090E001C0880F2A95EAF7EB
:100D50008095832380830895472B4083AFCF472B13
:100D6000408384CF472B408359CF472B40832ECFDE
:100D7000472B408303CFBF92CF92DF92EF92FF9237
:100D80000F931F93CF93DF938C01EB018881982FF2
:100D900092959F7026E0929F80191124F80180831C
:100DA0008981982F92959F70F6E09F9F801911245A
:100DB000F80181838A81982F92959F70F6E09F9F1A
:100DC00080191124F8018283BD80EE812F818B2D43
:100DD00082958F70F6E08F9FB01811248E2F829528
:100DE0008F7096E0899FE0191124822F82958F7071
:100DF000F6E08F9F20191124269530E0ADEABEE879
:100E00000E94DF15AB01BC01EE2339F180E00BC07D
:100E1000FC2D3D2D2E2D9F2D4F2F532F622F792FDF
:100E20008F5FE817D1F06A017B012EE6C20E21E048
:100E3000D21EE11CF11C43595E4F6F4F7F4F982F1C
:100E4000937031F3F42F352F262F972F4F2F532FD9
:100E5000622F792F8F5FE813E6CF81E08B1510F5B5
:100E6000E37069F48DE1C82ED12CE12CF12C21E046
:100E7000822F90E0FC013197EC30F10510F08CE10D
:100E8000F2CF8827E459FF4F8F4F0C94D7158EE18E
:100E900090E0A0E0B0E0480F591F6A1F7B1F2F5F52
:100EA0002B1530F38C81982F92959F70E6E09E9FD2
:100EB0008019112490E0A0E0B0E00197A109B109E8
:100EC000480F591F6A1F7B1FF801438354836583B2
:100ED0007683DF91CF911F910F91FF90EF90DF907C
:100EE000CF90BF9008954C0D5D1D6E1D7F1DF3E0EA
:100EF000FB15C0F623E08FE190E0A0E0B0E0CBCF9F
:100F0000FC019681892F82958F7026E0829F90192F
:100F10001124943608F054C02581822F82958F7059
:100F200036E0839F201911248FEF820F8C3008F058
:100F300047C03481832F82958F7046E0849F30199B
:100F40001124832F332309F43CC0263009F43CC01C
:100F500030F42230B9F59370C9F59DE105C0293010
:100F600099F12B3089F19FE1981750F18781982FE3
:100F700092959F7026E0929F80191124853100F58B
:100F80008081982F92959F7036E0939F801911244D
:100F90008C33B0F48181982F92959F7046E0949F96
:100FA000801911248C3360F48281982F92959F7060
:100FB00026E0929F80191124982F81E0983108F043
:100FC00080E00895243079F69EE1CECF9CE1CCCF2D
:100FD00018951895282F80FF20C08EE0689FF0019B
:100FE0001124E050F04E9181E081F0E0EE0FFF1F00
:100FF000EE0FFF1F892F869586958695E80FF11DC8
:10100000E05FF24F5081492F477081E090E001C0CE
:10101000880F4A95EAF7852B808321FF20C08EE058
:10102000689FF0011124E050F04E9381E281F0E0DE
:10103000EE0FFF1FEE0FFF1F892F86958695869571
:10104000E80FF11DE05FF24F5081492F477081E0BA
:1010500090E001C0880F4A95EAF7852B808322FF34
:1010600020C08EE0689FF0011124E050F04E958181
:10107000E481F0E0EE0FFF1FEE0FFF1F892F869532
:1010800086958695E80FF11DE05FF24F5081492F5C
:10109000477081E090E001C0880F4A95EAF7852B00
:1010A000808323FF20C08EE0689FF0011124E05070
:1010B000F04E9781E681F0E0EE0FFF1FEE0FFF1F6D
:1010C000892F869586958695E80FF11DE05FF24F92
:1010D0005081492F477081E090E001C0880F4A9508
:1010E000EAF7852B808324FF20C08EE0689FF00103
:1010F0001124E050F04E9185E085F0E0EE0FFF1FE7
:10110000EE0FFF1F892F869586958695E80FF11DB6
:10111000E05FF24F5081492F477081E090E001C0BD
:10112000880F4A95EAF7852B808325FF20C08EE043
:10113000689FF0011124E050F04E9385E285F0E0C5
:10114000EE0FFF1FEE0FFF1F892F86958695869560
:10115000E80FF11DE05FF24F5081492F477081E0A9
:1011600090E001C0880F4A95EAF7852B808326FF1F
:1011700020C08EE0689FF0011124E050F04E95856C
:10118000E485F0E0EE0FFF1FEE0FFF1F892F86951D
:1011900086958695E80FF11DE05FF24F3081292F8B
:1011A000277081E090E001C0880F2A95EAF7832B31
:1011B000808308951F920F920FB60F921124E0E0E2
:1011C000FDE08081866880836BE087E60E94EA0705
:1011D0006AE08EE70E94EA0769E083E70E94EA0777
:1011E00065E082E00E94EA0764E082E60E94EA0786
:1011F00063E087E40E94EA070E949900E82FF0E08C
:10120000E855FF4D2081822F20FF20C02EE0629FF5
:10121000F0011124E050F04E3181E081F0E0EE0F5A
:10122000FF1FEE0FFF1F232F269526952695E20F11
:10123000F11DE05FF24F5081432F477021E030E015
:1012400001C0220F4A95EAF7252B208381FF20C099
:101250002EE0629FF0011124E050F04E3381E281D4
:10126000F0E0EE0FFF1FEE0FFF1F232F26952695B0
:101270002695E20FF11DE05FF24F5081432F47703A
:1012800021E030E001C0220F4A95EAF7252B2083A8
:1012900082FF20C02EE0629FF0011124E050F04E4A
:1012A0003581E481F0E0EE0FFF1FEE0FFF1F232FCB
:1012B000269526952695E20FF11DE05FF24F5081AD
:1012C000432F477021E030E001C0220F4A95EAF732
:1012D000252B208383FF20C02EE0629FF001112484
:1012E000E050F04E3781E681F0E0EE0FFF1FEE0F89
:1012F000FF1F232F269526952695E20FF11DE05F0F
:10130000F24F5081432F477021E030E001C0220F9F
:101310004A95EAF7252B208384FF20C02EE0629FA8
:10132000F0011124E050F04E3185E085F0E0EE0F41
:10133000FF1FEE0FFF1F232F269526952695E20F00
:10134000F11DE05FF24F5081432F477021E030E004
:1013500001C0220F4A95EAF7252B208385FF20C084
:101360002EE0629FF0011124E050F04E3385E285BB
:10137000F0E0EE0FFF1FEE0FFF1F232F269526959F
:101380002695E20FF11DE05FF24F5081432F477029
:1013900021E030E001C0220F4A95EAF7252B208397
:1013A00086FF20C08EE0689FF0011124E050F04ECF
:1013B0009585E485F0E0EE0FFF1FEE0FFF1F892FEC
:1013C000869586958695E80FF11DE05FF24F308196
:1013D000292F277081E090E001C0880F2A95EAF755
:1013E000832B80830895C82F6BE08FE40E94EA0767
:1013F0006AE08FE40E94EA0769E08EE50E94EA074E
:1014000068E082E40E94EA0767E083E60E94EA0758
:1014100065E08FE40E94EA0764E082E40E94EA0744
:1014200063E082E40E94EA0762E083E60E94EA0742
:1014300061E082E40E94EA0760E08C2F0E94FE08CF
:101440000E94990028E030E090E861E042E011C09D
:101450006093420600C000C0000052E04093420684
:1014600000C000C00000409341069695215031090C
:1014700031F0582F592361F760934106EBCF81E09B
:101480008093420600C000C000005093420600C096
:1014900000C00000809148065093410600C000C083
:1014A0000000817008950F931F93CF93DF93D82F7F
:1014B0008B01C42F00C000C0000081E08093410672
:1014C00000C000C0000082E08093410684E60E94D4
:1014D000220A8D2F0E94220AAFEFAC0FCC23B9F164
:1014E000F801B0E01196A00FB11F61E071E092E049
:1014F000519128E030E080E810C06093420600C0BF
:1015000000C000009093420600C000C0000090930D
:10151000410686952150310931F0482F452369F75E
:1015200060934106ECCF7093420600C000C00000FB
:101530009093420600C000C000008091480690933E
:10154000410600C000C00000EA17FB0789F681E0F1
:101550008093410600C000C0000092E090934206D4
:1015600000C000C000008093420600C000C0000020
:1015700080E0DF91CF911F910F91089500C000C0CE
:10158000000021E02093410600C000C0000022E0DE
:101590002093410648E050E020E871E032E011C0BD
:1015A0007093420600C000C0000062E03093420623
:1015B00000C000C0000030934106269541505109FB
:1015C00031F0622F647661F770934106EBCF21E032
:1015D0002093420600C000C000006093420600C095
:1015E00000C00000209148066093410600C000C082
:1015F000000028E030E071E042E061E070934106D5
:1016000000C000C0000052E04093420600C000C08D
:101610000000409341062150310979F7609342065A
:1016200000C000C000005093420600C000C000008F
:10163000209148065093410600C000C0000050931E
:10164000420600C000C0000000C000C0000060935F
:10165000410600C000C000005093410648E050E041
:1016600020E871E032E011C07093420600C000C073
:10167000000062E03093420600C000C000003093DA
:10168000410626954150510931F0622F657661F788
:1016900070934106EBCF21E02093420600C000C0CA
:1016A00000006093420600C000C000002091480680
:1016B0006093410600C000C00000FC01BC01685FEF
:1016C0007F4F32E0A1E088E090E020E850E03093E6
:1016D000420600C000C000004091480640FD522B69
:1016E00042E03093410600C000C0000026950197FB
:1016F00071F751936E177F07C9F44093420600C0FB
:1017000000C000004093410681E08093410600C084
:1017100000C000004093420600C000C0000080935B
:10172000420600C000C0000080E00895A09341067A
:1017300000C000C000003093420600C000C000009E
:101740003093410600C000C00000A093420600C0D4
:1017500000C00000B8CFFC0100C000C0000081E064
:101760008093410600C000C0000082E080934106E3
:1017700028E030E090E851E011C05093420600C0EC
:1017800000C0000042E08093420600C000C000009C
:101790008093410696952150310931F0492F4476C6
:1017A00061F750934106EBCF81E08093420600C081
:1017B00000C000004093420600C000C000008091BD
:1017C00048064093410600C000C0000028E030E019
:1017D00090E851E011C05093420600C000C00000E4
:1017E00082E04093420600C000C0000040934106E2
:1017F00096952150310931F0892F8E7061F7509301
:101800004106EBCF91E09093420600C000C000007B
:101810008093420600C000C00000209148068093DB
:10182000410600C000C000008093420600C000C016
:10183000000000C000C000009093410600C000C03E
:1018400000008093410628E030E090E851E042E05B
:1018500011C05093420600C000C0000082E04093D7
:10186000420600C000C000004093410696952150FA
:10187000310931F0892F857661F750934106EBCF1E
:1018800091E09093420600C000C0000080934206A1
:1018900000C000C00000909148068093410600C03F
:1018A00000C0000028E030E090E860E042E04093B3
:1018B000420600C000C000005091480650FD692B50
:1018C00082E04093410600C000C000009695215080
:1018D000310969F760838093420600C000C00000B0
:1018E0008093410691E09093410600C000C0000043
:1018F0008093420600C000C000009093420600C0E2
:1019000000C0000080E00895CF93DF93CDB7DEB72D
:101910006E97CDBFDEBF21E02093430087E0809328
:10192000300680933106809333068093340680938B
:10193000350680933606809354068093550680932F
:1019400056068093D0068093D1068093D20680936A
:10195000D3068093D4068093D5068093D6068093D1
:10196000D7068093700780937107809372078093E6
:10197000730780937407809375078093770790911E
:101980004A069F7790934A068093570698E1909372
:1019900050069093510682E08093B20090935206D5
:1019A000909353068093CA01E0E2F0E0E491109234
:1019B000CA01E0934C028093CA01E1E2F0E0E491B5
:1019C0001092CA01E0934D0294E1909341028093FA
:1019D00042021092600280E18093610283E0809372
:1019E000720087E5809370008FE580937300809389
:1019F000750098ED94BF2093960084E08093000DCD
:101A000088EF8093010D8FE38093020D8091000D8C
:101A100086688093000D1092070D94BF8091A200FC
:101A200081608093A20080914800817F86608093CE
:101A30004800809148008160809348008091600652
:101A4000816080936006809160068260809360066A
:101A500080E8809321068093250610923206209319
:101A6000290680912A06846080932A0678948091C2
:101A7000160D80688093160D8091160D80628093FC
:101A8000160D8091160D88608093160D8091160DAD
:101A900082608093160D8091150D80688093150DDE
:101AA0008091150D80628093150D8091150D8860D1
:101AB0008093150D8091150D82608093150D809196
:101AC000140D80688093140D8091140D80628093B2
:101AD000140D8091140D88608093140D8091140D65
:101AE00082608093140D2FEB37E249E021503040A3
:101AF0004040E1F700C00000198241E0BE016F5F85
:101B00007F4F88E10E94530A88E0898341E0BE014B
:101B10006F5F7F4F8DE00E94530A8091000D8668B1
:101B20008093000D929984C211E005E0D02E83E0ED
:101B3000E82E0DEC80911D0D816080931D0D48E015
:101B400050E060E070E0CE0101960E946F15CE017A
:101B500001960E94B7008091280682FD0AC08895F0
:101B60008091280682FFFBCF8091280682FF05C066
:101B700088958091280682FDFBCF8091000D8668B4
:101B80008093000DCE0101960E94AB0B898181FFED
:101B900005C080911C0D806180931C0D84E190E054
:101BA0000E947B15882329F080911E0D816080930F
:101BB0001E0D80911E0D806180931E0DCE01019639
:101BC0000E94BE0ACE0101960E94B70080912806AD
:101BD00082FD0AC088958091280682FFFBCF809104
:101BE000280682FF05C088958091280682FDFBCFDC
:101BF0008091000D86688093000D8091100D8061AA
:101C00008093100D8091140D80618093140D80914C
:101C1000180D80618093180D8091180D806280935B
:101C2000180D8091100D80628093100D8091100D21
:101C300080648093100D8091140D80648093140D46
:101C40008091100D80688093100D8091140D806834
:101C50008093140D8091150D81608093150D8091F6
:101C6000190D81608093190D8091110D846080930E
:101C7000110D8091150D84608093150D8091190DC3
:101C800084608093190D8091150D88608093150DE7
:101C90008091110D80618093110D8091150D8061EF
:101CA0008093150D8091190D80618093190D80919D
:101CB000190D80628093190D8091110D80628093BF
:101CC000110D8091110D80648093110D8091150D7F
:101CD00080648093150D8091190D80648093190D97
:101CE00080911D0D806880931D0D8091150D806879
:101CF0008093150D8091160D81608093160D809153
:101D0000160D82608093160D10937200109340029E
:101D100080E88A95F1F700C097E09A95F1F7000006
:101D200010934602D09240028091460280FFFCCF81
:101D30008091500210924002E0927200E4E68E021E
:101D4000C001112497FD94C1FC01EE0FEF2FEE1F8F
:101D5000FF0BE09FA12D1124A695A695A695B0E0B6
:101D6000A855BF4D8C9180FF05C09091100D9160DA
:101D70009093100D81FF05C09091140D9160909388
:101D8000140D82FF05C09091180D91609093180D6D
:101D900083FF05C090911C0D926090931C0D84FFF1
:101DA00005C09091180D92609093180D85FF05C0A5
:101DB0009091100D92609093100D86FF05C0809158
:101DC000140D82608093140DE09F812D112486955F
:101DD000869586952AE0829FE0191124F0E0E85567
:101DE000FF4D808180FF05C09091100D946090930D
:101DF000100D81FF05C09091140D94609093140D07
:101E000082FF05C09091180D94609093180D83FF88
:101E100005C090911C0D986090931C0D84FF05C027
:101E20009091180D98609093180D85FF05C09091C2
:101E3000100D98609093100D86FF05C08091140DD1
:101E400088608093140D80911A0D886080931A0D1C
:101E50008091120D88608093120D8091120D806127
:101E60008093120D8091160D80618093160D8091E4
:101E70001A0D806180931A0D80911E0D80628093EF
:101E80001E0D80911A0D806280931A0D8091120DA3
:101E900080628093120D8091120D80648093120DE8
:101EA0008091160D80648093160D80911E0D8068C0
:101EB00080931E0D80911A0D806880931A0D809179
:101EC000160D80688093160D8091280682FD0AC049
:101ED00088958091280682FFFBCF8091280682FF9B
:101EE00005C088958091280682FDFBCF8091000D6A
:101EF00086688093000D929B1DCE939B9BC081E0D2
:101F0000809372008093400230E83A95F1F700C068
:101F100047E04A95F1F700008093460285E0809300
:101F200040028091460280FFFCCF809150021092C7
:101F3000400293E090937200E4E68E02C001112407
:101F400097FD99C0880F892F881F990B883108F455
:101F50009BC084E190E00E947B15823008F496C01B
:101F600081E00E94F3098091140D81608093140D2B
:101F70008091100D82608093100D8091140D82600D
:101F80008093140D8091100D84608093100D8091CA
:101F9000140D84608093140D8091100D88608093DF
:101FA000100D8091140D88608093140D8091110D97
:101FB00080618093110D8091150D80618093150DC6
:101FC0008091190D80618093190D8091150D8062AB
:101FD0008093150D8091150D80648093150D80916F
:101FE000150D80688093150D8091160D816080938A
:101FF000160D8091120D84608093120D8091160D44
:1020000084608093160D80911A0D846080931A0D60
:1020100080911E0D886080931E0D8091120D886046
:102020008093120D88958091000D86688093000D35
:10203000939965CF82E190E00E947B15882309F493
:1020400092CF48E050E06AE070E0CE0101960E9435
:102050006F1580911D0D816080931D0D80911E0D67
:10206000806180931E0DCE0101960E94B700DACFE9
:1020700081589F4F69CE81589F4F880F892F881FA5
:10208000990B883108F065CF0E94A60088E090E0A7
:102090000E947B15182F823018F082E00E94F3090D
:1020A00082E190E00E947B15823018F083E00E946C
:1020B000F309111105C0882331F184E00E94F3096E
:1020C000CE0101960E94AB0B898181FDCFC084E1D6
:1020D00090E00E947B15882309F4AEC082E190E075
:1020E0000E947B15882309F45DC048E050E06AE057
:1020F00070E0CE0101960E946F15CE0101960E94FC
:10210000B7000E9499006BE08DE60E94EA076AE042
:102110008FE40E94EA0769E087E40E94EA0765E02D
:1021200083E40E94EA0764E087E00E94EA0763E034
:1021300083E60E94EA0762E083E40E94EA0788E0FF
:10214000898341E0BE016F5F7F4F88E10E94530A9F
:10215000FFEB27E239E0F15020403040E1F700C0CA
:102160000000198241E0BE016F5F7F4F88E10E944D
:10217000530A198241E0BE016F5F7F4F8EE00E94DB
:10218000530A48E050E060E070E0CE0101960E9402
:102190006F15CE0101960E948007811129C087E04A
:1021A0000E94F3096BE083E40E94EA076AE087E09B
:1021B0000E94EA0769E083E60E94EA0768E083E498
:1021C0000E94EA0765E08FE40E94EA0764E082E487
:1021D0000E94EA0763E082E40E94EA0762E083E685
:1021E0000E94EA0761E082E40E94EA070E949900E7
:1021F00081E4898741E0BE01675F7F4F8FE00E94E5
:10220000530A48E0BE016F5F7F4F80E00E94530A8F
:1022100044E062EB70E288E00E94530A61E088E0EB
:1022200090E00E948B158091CF0187FDFCCF88ED57
:1022300084BF81E08093790082E190E00E947B1569
:10224000882339F148E050E06AE070E0CE01019661
:102250000E946F15CE0101960E9480078823B1F07D
:102260008091280682FD0CC08895FACF61E084E158
:1022700090E00E948B158091CF0187FDFCCF27CF86
:102280008091280682FF60C18895FACF88E00E947D
:10229000F30988E18093570683EF91E00197F1F706
:1022A00000C0000081E08093490680914A06806862
:1022B00080934A06809148068E01075F1F4F87FD75
:1022C00026C0EE24E394DF2CDE24F1100AC08091B6
:1022D0001D0D816080931D0D80911E0D8061809386
:1022E0001E0DC8010E94BE0AC8010E94B700889551
:1022F00080911D0D8E7F80931D0D80911E0D8F7E10
:1023000080931E0D80914806FD2C87FFDCCFEFE403
:10231000F3EC3197F1F700C00000F12C8091000D33
:1023200086688093000D86E08F0D8770D82EE12C93
:102330006F2D8E2D0E94D2146D2D81E08E0D0E9486
:10234000D214E394E394FCE0EF12F2CFF394F8E0BC
:10235000AF2EFA1001C0F12C809128068470909164
:1023600028069470891739F00AC08895909128063C
:102370009470891304C09091480697FDF6CF809120
:1023800028068470909128069470891739F00AC045
:102390008895909128069470891304C090914806FE
:1023A00097FDF6CF8091480687FDB8CF8091000D4C
:1023B00086688093000D81E4898341E0BE016F5FF0
:1023C0007F4F8FE00E94530ACE0101960E94BE0A01
:1023D00048E050E06AE070E0CE0101960E941315DB
:1023E00061E082E190E00E948B158091CF0187FD32
:1023F000FCCF80914A068F7780934A0687E08093CE
:102400005706E6E0FE2E60E08F2D0E946605F394ED
:102410007CE0B72EFB10F7CF60E080E00E946605FD
:1024200060E081E00E94660560E082E00E9466054F
:1024300060E083E00E94660560E084E00E9466053B
:1024400060E085E00E94660580916506816080936A
:1024500065068FE097E20197F1F700C000008091D8
:10246000660681608093660680916506826080932F
:102470006506EFE0F7E23197F1F700C000008091C8
:10248000660682608093660680916506816080930F
:1024900065068FE097E20197F1F700C00000809198
:1024A00066068160809366068091650682608093EF
:1024B0006506EFE0F7E23197F1F700C00000809188
:1024C000660682608093660686E434E6932F981B46
:1024D00020916506216020936506292FE9EFF0E041
:1024E0003197F1F700C000002150C1F72091660636
:1024F000216020936606282FE9EFF0E03197F1F78D
:1025000000C000002150C1F7209165062260209391
:102510006506E9EFF0E03197F1F700C00000915057
:10252000C1F790916606926090936606982FE9EF46
:10253000F0E03197F1F700C000009150C1F7865FDD
:10254000843609F0C3CF03C08E01075F1F4F80910F
:10255000280682FD02C08895FACF8091280682FF66
:1025600002C08895FACFC8010E94BE0A9F85292F14
:1025700022952F708889382F32953F70F6E03F9F63
:102580008019112436E0239F90191124923308F406
:10259000FDC080FD13C08F5F9DEC899F912D11249C
:1025A000969596959695292F220F920F990F890F40
:1025B000888B48E0B80180E00E94530AB801CE0140
:1025C00041960E94BB06BE016F5F7F4FCE014896C9
:1025D0000E94BB06988D8989891708F0DBC1845C4D
:1025E000898B21E030E041E0182F191B598D8A8931
:1025F000250F311D682F70E0621773070CF0C6C1FC
:10260000845C8A8B21E030E091E0851BF82EF41A7F
:10261000EA8D8B892E0F311D482F50E0421753074A
:102620000CF0BCC1885E8B8B41E050E060E070E054
:102630008E1BE82EE91A8B8D9C8DAD8DBE8D840F7F
:10264000951FA61FB71F4C895D896E897F89481722
:1026500059076A077B0708F496C15A016B01A81A4B
:10266000B90ACA0ADB0A35018C2C0DEC109F012D2A
:1026700011240695069506952AE0029F101911244B
:1026800030E4A31632E4B3063FE0C30608F0A8C066
:102690005AE0252E312C412C6DECD62EE62D772DCF
:1026A000882D46E0C42E6E2F442D91010E94BC154A
:1026B000B62E972EA82E6E2F4AE0B49E60191124D4
:1026C0008C2D0E946605C394EB2D792D8A2D9CE0FC
:1026D000C912E9CFE7E1EE1508F464C0ED9CC12C06
:1026E0001124C694C694C6946E2DFAE0CF9E60194C
:1026F000112484E00E9466056C2D85E00E94660529
:102700003BE3A32EAF1408F448C0FD9CC12C112458
:10271000C694C694C6946F2D2AE0C29E60191124F7
:1027200082E00E9466056C2D83E00E9466050630FB
:1027300018F5602F81E00E9466051A30C8F4612FF9
:1027400080E00E9466058091280682FD0AC0889577
:102750008091280682FFFBCF8091280682FF05C06A
:1027600088958091280682FDFBCF1F5F1A3039F7CC
:102770000F5F10E00630E9F6F394929B02C0939944
:1027800008C088ED84BF81E08093790080FD03CF8D
:1027900015CF00E03CE3F312B8CFE394F12C48E10D
:1027A000E4129CCF8FEF681A780A880AA82DC3011B
:1027B00087709927AA270197A10509F4B0C0A82D11
:1027C000C3018F779927AA27892B8A2BD9F1E12C6E
:1027D00020E4621622E472062FE0820609F05ECF42
:1027E00069E086E00E94660569E087E00E94660570
:1027F00069E088E00E94660569E089E00E9466055C
:1028000069E08AE00E94660569E08BE00E94660547
:1028100069E080E00E94660565E081E00E9466054F
:1028200069E082E00E94660565E083E00E9466053B
:1028300063E084E00E94660562E085E00E94660530
:102840000E9499008091000D86688093000D6BE0D6
:1028500083E40E94EA078091100D84608093100D3C
:102860008091140D84608093140D80911C0D8860FC
:1028700080931C0D8091180D88608093180D8091B5
:10288000140D88608093140D8091100D80618093E9
:10289000100D8091140D80618093140D8091180D9E
:1028A00080618093180D80911C0D806280931C0DB7
:1028B0008091180D80628093180D8091100D8062B8
:1028C0008093100D8091180D80688093180D809171
:1028D000100D80688093100D67E088E00E94FE086C
:1028E00065E083E30E94EA0764E08FE30E94EA0761
:1028F00063E08DE60E94EA0762E086E70E94EA074D
:102900008091280682FD05C088958091280682FF67
:10291000FBCF8091280682FF2FC08895FACF81E0F7
:10292000809372008093400290E89A95F1F700C07E
:10293000E7E0EA95F1F700008093460285E0809396
:1029400040028091460280FFFCCF8091500210929D
:10295000400293E090937200F4E68F02C0011124CC
:1029600097FF02C081589F4F880F892F881F990BAE
:10297000883108F024CF88CB8091000D8668809341
:10298000000D1F5F24CF85E00E94F30920E030E0B6
:1029900090E03BCE20E030E040E026CE40E050E04A
:1029A000BA0146CE0F931F93CF93E62FF0E0EA547F
:1029B000FF4D40810EE0809FC0011124DC01A0503A
:1029C000B04E80E090E050E061E070E09A01082EA7
:1029D00002C0359527950A94E2F720FF1BC0119697
:1029E0002C9111973C91E22FE695E695E695F0E063
:1029F00014E0319FE00DF11D1124E05FF24FC08122
:102A000027708B0102C0000F111F2A95E2F7980171
:102A10002C2B20830196129687309105B9F6CF9121
:102A20001F910F910895CF92DF92EF92FF920F9333
:102A30001F93CF93DF932091CC0128602093CC018A
:102A4000C0E20FEF17E0D5E3FF24F39441155105E1
:102A5000C1F1262F2F713C2F321B232F30E042175C
:102A6000530708F49A01D22EF801E21BF30BE61784
:102A7000F70710F40E94AE15E091CF01E7FDFCCFFF
:102A8000C82EDB01B05FFC01E090CF01E7FCFCCF7A
:102A9000E190ED92EE2EEC18ED14B0F31092C2011D
:102AA0007093C1016093C001D093CA01E8EDE4BF07
:102AB000F092CB01820F931F620F731F421B530BC7
:102AC000C5CF8091CC01877F8093CC01DF91CF91DE
:102AD0001F910F91FF90EF90DF90CF900895E0EC61
:102AE000F1E0A785A7FDFDCFA485A860A48760506D
:102AF000704F0C94B31503D0808199270895E0ECB2
:102B0000F1E0378537FDFDCF348538603487FC012F
:102B1000E050F04F0895262FE0ECF1E0378537FDC7
:102B2000FDCF3485377F3487378531FF09C036E3E1
:102B3000328738ED34BF31E03387378537FDFDCF3D
:102B400033E33287808391831282248325E32287B3
:102B500028ED31E024BF33870196089581E090E0AD
:102B6000F8940C94EE15FB01DC0102C001900D926B
:102B700041505040D8F7089559E1AA27991B0AC03F
:102B8000111CAA1F991F1216A307940718F0121AF6
:102B9000A30B940B661F771F881F5A9589F76095C2
:102BA00070958095212D3A2F492F11240895EE0F0D
:102BB000FF1F881F8BBF0790F691E02D1994A29FED
:102BC000B001B39FC001A39F700D811D1124911D01
:102BD000B29F700D811D1124911D0895F894FFCFAF
:102BE000001601160216031702170017011700142A
:102BF000011402140315021500150115001201122B
:102C0000021203130213001301130010011002102B
:102C10000311021100110111000E010E020E030F2B
:102C2000020F000F010F000C010C020C030D020D2E
:102C3000000D010D000A010A020A030B020B000B32
:102C4000010B000801080208030902090009010933
:102C50000006010602060307020700070107000439
:102C6000010402040305020500050105000201023A
:102C7000020203030203000301030000010002003B
:102C800003010201000101013F305B79746D6F386F
:0E2C90007F7D54734C33010240100804402035
:00000001FF
